:020000040800F2
:10000000600F0020394E0008D9490008DD4900087A
:1000100000000000000000000000000000000000E0
:10002000000000000000000000000000E14900089E
:100030000000000000000000E3490008E549000856
:10004000D3180008000000000B1A00083B44000809
:1000500013460008154C00081F4C0008294C0008E6
:1000600000000000354C00083B460008A34900088A
:10007000514D0008CB4D00083F4C00080000000027
:10008000494C00080000000000000000534C00082C
:1000900000000000D74D0008494E00084B4E0008F4
:1000A000000000004D4E0008000000004F4E000808
:1000B000F8B501F00FFC00F08EF800F0C3FA00F084
:1000C000A9FA00F0CAF800F03DF900F08BF900F051
:1000D000FFF900F00EF900F0E3F900F049FA984C4E
:1000E000B4486064B44DA564E564B4482065B44880
:1000F000C06801F0FFFBA06500206065B148206684
:10010000B148E065B14F6766B14EAA487064B56406
:10011000F564AA483065AF48C06801F0EBFBB065F4
:1001200000207065A7483066A748F0657766C8204C
:1001300000022083A8483083D44DE868A049C968EC
:1001400001F00CFCA083D24FF868A249C96801F005
:1001500005FCB0831E203C21605446213D22A15461
:100160003C22B0543D2031549C4860629C4820623F
:10017000C8487062C8483062FE208005C749886060
:10018000FA200001B080B088B18B01F0E4FB914906
:10019000096848633C21380001F0C0FD3C2128007B
:1001A00001F0BCFD00218B4801F0DAFC00218448FD
:1001B00001F0D6FCC34801F070FCC34D280002F0EA
:1001C000CBF80322C149280002F012FA2000443083
:1001D00002F0D4FBFEE738B594B03022002108A825
:1001E00002F04EFC10220021684602F049FC102269
:1001F000002104A802F044FC03200890012009908B
:100200000B9010200C90022410948020400211903A
:100210008020400312900025139508A802F03AFCB4
:10022000002801D001F052FB0720009001940295B4
:1002300003950121684602F08DFE002801D001F0EF
:1002400045FB20200490079504A802F071FF0028C8
:1002500001D001F03BFB15B030BD7FB50C22002171
:10026000684602F00DFC984CC048206080200006D3
:1002700060600026A660E6600125256104206061BB
:1002800030002076300060762800A0763000E076DE
:10029000FF20C230E0612662280024216054A6625B
:1002A000200002F0C7F8002801D001F00FFB0096F3
:1002B000802040010190062002906946200002F053
:1002C000F7F9002801D001F001FB009569462000F4
:1002D00002F0EEF9002801D001F0F8FA02200090B7
:1002E0006946200002F0E4F9002801D001F0EEFA9E
:1002F0007FBD10B5C54CC6482060D0486060002066
:10030000A0600121E16020616061A061E061206284
:10031000200002F0A5FF002801D001F0D7FA00214B
:10032000200003F03DFB002801D001F0CFFA0021AE
:10033000200003F068FB002801D001F0C7FA10BDCF
:100340004807002030B58BB02422002102A802F01B
:1003500097FB08220021684602F092FB4C4CB848FB
:10036000206000256560A560C8200002E06025616E
:100370006561A56103200290039501200490059515
:100380000A2106910795089009950A9502A920006F
:1003900001F05AFC002801D001F098FA009501956F
:1003A0006946200003F078FB002801D001F08EFAA6
:1003B0000BB030BDCDCCCC3DCDCC4C3E0AD7233C90
:1003C000180A002000504347005043C7FAED6B392C
:1003D000C8070020D0090020204E00003D0A7BC144
:1003E000ACAD583F38B592B02422002109A802F0E4
:1003F00047FB08220021684602F042FB1C22002134
:1004000002A802F03DFB214CCA482060002565602F
:10041000A560C8200002E0602561A561200001F010
:1004200071FB002801D001F051FA032009900A95D0
:1004300001200B900C950A210D910E950F901095AF
:10044000119509A9200001F0FFFB002801D001F05F
:100450003DFA009501956946200003F01DFB002838
:1004600001D001F033FA60200290039504950695BF
:10047000082202A9200001F0BEFD002801D001F0F1
:1004800025FA200003F0B8FC13B030BD400900206D
:10049000F808002033F3A5C3D7A3B03FE40A002037
:1004A00080B50848A4490160002141608160A34AE9
:1004B000C2600161816101F0A9FA002801D001F058
:1004C00005FA01BD88090020A40A0020080B0020BD
:1004D00030B58FB01C22002108A802F0D1FA2022EA
:1004E0000021684602F0CCFA954D96482860002419
:1004F0006C60AC60C8204001E8602C616C61AC614C
:10050000280001F083FA002801D001F0DFF928006B
:1005100001F0F8FA002801D001F0D8F96020089025
:1005200009940A940B940C940D940E94002208A93B
:10053000280001F060FD002801D001F0C7F9009407
:100540000194029403940494802080010590079400
:100550006946280003F0CEFA002801D001F0B6F970
:10056000280003F049FC0FB030BD0000002401401A
:1005700030B58FB01C22002108A802F081FA202299
:100580000021684602F07CFAB64DB7482860002486
:100590006C60AC60C8204001E8602C616C61AC61AB
:1005A000280001F033FA002801D001F08FF928006B
:1005B00001F0A8FA002801D001F088F96020089025
:1005C00009940A940B940C940D940E94002208A99B
:1005D000280001F010FD002801D001F077F9009407
:1005E0000194029403940494802080010590079460
:1005F0006946280003F07EFA002801D001F066F970
:10060000280003F0F9FB0FB030BD0000AC0800205B
:100610000054004080B5012094490A6802430A60F2
:10062000096808400090009800220321092003F087
:10063000BAFC092003F0C1FC01BD00000E09002036
:10064000002C014070B586B014220021684602F0EB
:1006500017FA8021C903854802680A4302600268CC
:100660001140059105998021890202680A430260C0
:1006700002681140059105998021C90202680A4368
:10068000026000680140059105989026F605002259
:10069000CE49300003F09AFD2820009001250195F5
:1006A00000240294032003906946300003F09EFC6E
:1006B000C120000100900195029403946946300026
:1006C00003F094FC0A2000908425AD030195029468
:1006D0006946BF4803F08AFC802000020090019523
:1006E00002946946300003F081FC002202210520BB
:1006F00003F059FC052003F060FC002202210620D3
:1007000003F051FC062003F058FC002202210720D0
:1007100003F049FC072003F050FC06B070BD00B5A3
:100720000020010089B2CD4A914201DA401CF8E76D
:1007300000BD000000040040002000401027000021
:10074000D00900200044014000B501000800C0B2FB
:1007500000280ED0022824D017D3042839D02CD357
:1007600006284ED041D3082863D056D309286CD030
:1007700076E00020BA4A1080012353809380D38012
:10078000138153819381D0816AE00020B44A1080A4
:1007900050809080D0801081012353819381D0813B
:1007A0005EE0AF4A01231380538000209080D38005
:1007B000138150819381D08152E0A94A0123138093
:1007C000002050809080D380138153819381D08109
:1007D00046E0A34A01231380002050809380D080FC
:1007E000108153819381D0813AE09D4A0123138087
:1007F000002050809380D380138153819081D081D9
:100800002EE0974A0120108050809080D080108187
:10081000508100209081D08122E00020904A1080F9
:1008200050809080D0800123138153819381D081A7
:1008300016E08B480122028042808280C2800281C1
:10084000428182810022C2810AE0854A012313800D
:10085000002050809380D380138153819381D08175
:100860007F4800BD180A00200048014014100240D3
:10087000F1B582B00C00642768460089390001F0A8
:100880006AF869460870684600780A2821DA20006C
:10089000C0B220281DD168460078FFF755FF00211F
:1008A0000A001300DBB2082B4EDA6E4B2500EDB2C6
:1008B0001600F6B2AD1959552500EDB21600F6B284
:1008C000AD195B191500EDB26D00455B1D72521C30
:1008D000E7E70A2668460078310001F03CF8C0B22C
:1008E000FFF732FF0190002528000100C9B2082956
:1008F0000FDA01990200D2B252008B5A594A94463B
:100900002200D2B20100C9B2511862465354401CB1
:10091000EBE768460078310001F01DF80800C0B22E
:10092000FFF712FF2900C9B208290DDA4D4922004C
:10093000D2B22B00DBB2D21889182A00D2B25200F0
:10094000825A0A726D1CEDE768460089390001F091
:1009500002F8684641700A2668464078310000F087
:10096000FAFFC0B2FFF7F0FE0700002528000100E3
:10097000C9B208290DDA3B492200D2B20300DBB22A
:10098000D21889180200D2B25200BA5A0A74401C16
:10099000EDE768464078310000F0DDFF0800C0B2A6
:1009A000FFF7D2FE2900C9B208290DDA2D4922002D
:1009B000D2B22B00DBB2D21889182A00D2B2520070
:1009C000825A0A766D1CEDE7F7BD0000380C000076
:1009D00000040048F1B582B000242000C0B2022813
:1009E0003ADA0A2668460089310000F0B4FFC0B246
:1009F000FFF7AAFE0090002738000100C9B20829BD
:100A00000CDA00990200D2B25200895A154A03004A
:100A1000DBB2D2184023D154401CEEE7114D012027
:100A20004721685468460089310000F094FF0800AF
:100A3000C0B2FFF789FE3900C9B208290ADA3900C5
:100A4000C9B24900415A3A00D2B2AA184823D15437
:100A50007F1CF0E7641CC0E7F7BD00001127000011
:100A6000F80A002048080020F1B584B004985449E1
:100A7000884201D000F0AFFD049800F0F5FF514C22
:100A8000208800F037FF216A03F0D2FB616A03F08F
:100A900027FC03F0B5FC20644B4E3078002833D19E
:100AA0004A4801884A4A1288914203D20188491C67
:100AB00001806CE047480178002905D1D9490988AF
:100AC000454A118001210170D64D4348008803F04A
:100AD000B5FC42A20CCA03F0C1FC02000B0000925C
:100AE0000193288803F0AAFC009A019B03F078FD8B
:100AF00007D2E868401CE860E868D649096848639E
:100B000045E00120307042E0D34EC64D308800F001
:100B1000F1FE0100E86F03F07DFD14D231884842F8
:100B200000F0F8FEE96F03F075FD0CD2CB480068C9
:100B30006864CB480068A864CA480068E864CA488A
:100B4000006828650BE0C94800686864C848006808
:100B5000A864C8480068E864C74800682865C748B2
:100B600000782988484300F0D5FE02001600A888C6
:100B700000F0C0FE010032002800443001F005FF03
:100B800003F03EFCE860E868B24909684863BC4D80
:100B9000BC4F287838180079012800D01AE30821C2
:100BA000B94803F006FB00281CD1B8482978490051
:100BB00041182A78520080184088401C48800FE372
:100BC00088090020C80700205B0B0020520B002082
:100BD000340000205C0B0020540B002014AE47E1D1
:100BE0007A14F03FFA26B600A84928784000081881
:100BF0004088B04200DA51E1002002002B78FB1857
:100C00001A712A785200891848802878002844D11F
:100C1000844881889E4A1170808880B2000A9D496C
:100C200008709D4F02960120019099480090012381
:100C30001E22A021380002F07DFBFFF770FD029616
:100C4000012001909348009001231F22A021380029
:100C500002F070FBFFF763FDA0888D490870A08843
:100C600080B2000A8B4908700296012001908848E2
:100C7000009001232022A021380002F05BFBFFF747
:100C80004EFD02960120019082480090012321220E
:100C9000A021380002F04EFBA2E22878012844D1BE
:100CA000604881887A4A1170808880B2000A794948
:100CB0000870794F02960120019075480090012339
:100CC0000A22A021380002F035FBFFF728FD02962A
:100CD000012001906F48009001230B22A0213800D1
:100CE00002F028FBFFF71BFDA08869490870A08867
:100CF00080B2000A6749087002960120019064489A
:100D0000009001230C22A021380002F013FBFFF712
:100D100006FD0296012001905E48009001230D22FD
:100D2000A021380002F006FB5AE22878022844D1BC
:100D30003C488188564A1170808880B2000A554923
:100D40000870554F029601200190514800900123F0
:100D50001422A021380002F0EDFAFFF7E0FC029621
:100D6000012001904B48009001231522A02138005A
:100D700002F0E0FAFFF7D3FCA08845490870A0888C
:100D800080B2000A43490870029601200190404851
:100D9000009001231622A021380002F0CBFAFFF7C1
:100DA000BEFC0296012001903A48009001231722D0
:100DB000A021380002F0BEFA12E22878032800D001
:100DC0000EE218488188324A1170808880B2000A89
:100DD00030490870304F0296012001902C48009055
:100DE00001232822A021380002F0A4FAFFF797FC83
:100DF0000296012001902748009001232922A0217A
:100E0000380002F097FAFFF78AFCA08820490870A2
:100E1000A08880B2000A1F49087002960120019044
:100E20001B4801E048070020009001232A22A0214E
:100E3000380002F07FFAFFF772FC02960120019061
:100E40001448009001232B22A021380002F072FAEE
:100E5000C6E100BF180A0020360000200000002074
:100E600004000020080000200C00002010000020DA
:100E700014000020180000201C0000203C0000206E
:100E8000560B0020140B0020000400482C0B0020FF
:100E9000570B0020580B0020AC0800202878400099
:100EA00008184088642800DA8FE128784000081884
:100EB0004088B04200DB88E1002002002B78FB185C
:100EC0001A712A78520089184880297800295CD143
:100ED000D04F0521F970E64902005123CA5402009F
:100EE0005223CA5401225323CA54542288540296CE
:100EF00001200190DF48009001231E22A021DE483E
:100F000002F0EAFA029601200190DC4800900123E9
:100F10001F22A021D84802F0DFFAD6480078D7492E
:100F2000097809020143B980B888B98B00F013FD34
:100F3000D34909684863B888D2490968486202966B
:100F400001200190CB48009001232022A021CA4813
:100F500002F0C2FA029601200190C84800900123D5
:100F60002122A021C44802F0B7FAC2480078C34940
:100F7000097809020143A180A088D549096848631E
:100F8000A088D449096848622AE1297801295CD1FE
:100F9000A04F0321F970B64901225123CA5402001F
:100FA0005223CA5402005323CA545422885402962E
:100FB00001200190AF48009001230A22A021AE48F1
:100FC00002F08AFA029601200190AC4800900123B9
:100FD0000B22A021A84802F07FFAA6480078A74972
:100FE000097809020143B980B888B98B00F0B3FCD5
:100FF000A34909684863B888A2490968486202960B
:10100000012001909B48009001230C22A0219A48C6
:1010100002F062FA029601200190984800900123A4
:101020000D22A021944802F057FA92480078934983
:10103000097809020143A180A088A549096848638D
:10104000A088A44909684862CAE0297802295CD1CD
:10105000704F0421F970864902005123CA540122BD
:101060005223CA5402005323CA545422885402966D
:10107000012001907F48009001231422A0217E4886
:1010800002F02AFA0296012001907C480090012388
:101090001522A021784802F01FFA76480078774997
:1010A000097809020143B980B888B98B00F053FC74
:1010B000734909684863B8887249096848620296AA
:1010C000012001906B48009001231622A0216A485C
:1010D00002F002FA02960120019068480090012374
:1010E0001722A021644802F0F7F9624800786349AA
:1010F000097809020143A180A088754909684863FD
:10110000A0887449096848626AE02978032967D190
:10111000404F0621F970564902005123CA5402007B
:101120005223CA54532288540120542288540296D0
:10113000012001904F48009001232822A0214E4811
:1011400002F0CAF90296012001904C480090012358
:101150002922A021484802F0BFF9464800784749B3
:10116000097809020143B980B888B98B00F0F3FB14
:10117000434909684863B888424909684862029649
:10118000012001903B48009001232A22A0213A48E7
:1011900002F0A2F902960120019038480090012344
:1011A0002B22A021344802F097F9324800783349C5
:1011B000097809020143A180A0884549096848636C
:1011C000A0884449096848620AE000202978791813
:1011D000087105E00020A9492A7852008918488042
:1011E000A74E2878305C012800D0B5E080210902A4
:1011F0009020C00502F0DDFF00280DD1A14829781C
:10120000490041182A78520080184088401C4880C4
:10121000A8E000BF480700209A48FA2189002A78F0
:101220005200821852888A4257DB00210A002B782C
:10123000F2542A785200801841802878002823D15F
:1012400091488278012A07D10A0082708F4A117072
:10125000C8210902018385E08178002900D081E05E
:1012600001210A008270894A11708188018379E026
:1012700048080020590B0020AC0800205A0B002021
:10128000180A0020400900202878012815D1A078EC
:10129000012807D10800A070BE480170C8200002D4
:1012A00020835FE0A07800285CD101200100A170BC
:1012B000B8490870A088208354E0287802280BD110
:1012C000C6485721415CCA43572142544AE000BFF7
:1012D000D0090020F808002044E02A785200821843
:1012E0005288642A3EDB2A785200821852888A4249
:1012F00038DA002739002A78B15429784900401893
:101300004780287800282DD0287801280FD15E4EFC
:10131000708A002826D0B078012823D1B088B18BFC
:1013200000F019FBAE490968486377821AE0287813
:10133000022817D0287803280BD1608A002811D002
:10134000A07801280ED1A088A64909684863678261
:1013500008E02878375405E000204A492A785200EE
:10136000891848802878032807DB00202870B748B0
:101370000168B74A0A40026008E02878401C2870DB
:10138000B24801688022D200891801603E4D3C209D
:10139000285CB049098880B2884215D0AE48AF4970
:1013A0000988028891420CD2002101803C20285CEF
:1013B000401E3C2168543D20285C401C3D2168545F
:1013C00002E00188491C01803C20205CA449098876
:1013D00080B2884215D0A048A0490988028891426D
:1013E0000CD2002101803C20205C401E3C21605436
:1013F0003D20205C401C3D21605402E00188491CD6
:101400000180984E3088401C30803088C42800DA33
:10141000C2E0002737809026F60501221021300017
:1014200002F0D4FE1021300002F0C3FE0028F9D0F3
:1014300000221021300002F0C9FEA878002802D056
:10144000688A00282DD1288800F054FA296A02F011
:10145000EFFE696A02F044FF02F0D2FF0600012E9F
:1014600016DB3C20285C70433D21695C2A8D51438A
:101470004018642100F06FFA28850AE02C0B002048
:10148000200B0020380B0020480700209D0800207A
:101490002F852021288DFFF7EBF901207249087074
:1014A00024E0688A7149098888420ED3A88880B2EE
:1014B000800828822021288AFFF7DAF901206A496A
:1014C0000870688A401E688210E0688A00280DD083
:1014D000A88880B2800828822021288AFFF7C8F9CE
:1014E000012061490870688A401E6882608A00286D
:1014F00019D1206C01280DDB3C20205C216C484375
:101500003D21615C228D51434018642100F023FA93
:10151000208500E027850021208DFFF7A9F9012013
:101520002E49C87124E0608A5049098888420ED348
:10153000A08880B2800820820021208AFFF798F9D5
:1015400001202649C871608A401E608210E0608ACE
:1015500000280DD0A08880B2800820820021208A37
:10156000FFF786F901201D49C871608A401E60821C
:10157000934C208800F0BEF9A16802F059FEE168A2
:1015800002F0AEFE02F03CFF2082208AFFF722FA32
:101590001EE000BF9E0800203078C00712D49024BF
:1015A000E40500222021200002F010FE0B483188C3
:1015B00049104A4280186121425C0821200002F053
:1015C00005FE05E0012220219020C00502F0FEFD6D
:1015D000049800F062FA05B0F0BD00004808002051
:1015E000180A0020D009002030B5AA490222CA708A
:1015F0000022A94B140051255C55140052255C555E
:10160000140053255C55140054255C55A34B984297
:101610000ED103685B6A8B808B78002B02D10B881C
:10162000CB808A8264233C240B553D23CA540BE0B3
:101630009B49884208D19B4903685B6A8B8064237D
:101640003C240B553D23CA5430BD00001400004813
:10165000FFF300002E000020500B0020320000207D
:10166000300000204C0B0020770800202C000020C8
:10167000F1B584B00C220021684601F001FA8A48D5
:1016800000688A490860002421000800C0B20328CD
:1016900059DA2200854813009BB205686D1EAB42E3
:1016A0002AD296239B00824D0800C0B258432F18BF
:1016B000100080B24600B4460800C0B25843281853
:1016C0001600B6B27600801940886646B853684660
:1016D0000E00F6B2B60080590E00F6B25E43AB19AA
:1016E0001500ADB26D005B5BC0186B460D00EDB22E
:1016F000AD005851521CCDE7962292006C4B0D0064
:10170000EDB255435D1906687600AE19B61E694DF7
:101710000F00FFB2BF00ED5935806D460E00F6B2E6
:10172000B600AD590E00F6B256439A190068400053
:101730001018801E008828186A460B00DBB29B0038
:10174000D050491CA1E7534D584E0098316800F025
:1017500005F964214843642100F000F92880514FC5
:101760000198316800F0FAF864214843642100F0E0
:10177000F5F838800298316800F0F0F864214843A9
:10178000642100F0EBF80E490880A878012808D100
:10179000288B2988884204D22000474908702000FD
:1017A000A875B878012808D1388B42494968884221
:1017B00003D2200040490870AC7505B0F0BD0000B0
:1017C000E40A0020F8B5070000252C00380080B29C
:1017D000082817D12800C0B2642808DA0821374841
:1017E00002F0E7FC002800D1641C6D1CF2E7200029
:1017F000C0B255284DDB01203149324A1278891890
:10180000087146E0802636023800310080B28842F6
:1018100017D12800C0B2642809DA31009020C00531
:1018200002F0C7FC002800D1641C6D1CF1E7200009
:10183000C0B255282DDB01202349224A1278885452
:1018400027E0380080B2022823D12E003000C0B239
:10185000642808DA0221194802F0ABFC002800D104
:10186000641C761CF2E72000C0B2552811DB094841
:10187000817D002907D1084901225923CA545823E0
:10188000CA54827505E0044959228D5458228D545A
:101890008575F1BD48070020480800204009002058
:1018A000F8080020C807002020000020440B00207A
:1018B00040000020080B0020A10800200004004880
:1018C000140B0020560B0020200B002000B572B630
:1018D000FEE7FEE780B50648016810220A43026071
:1018E000002002F0ABFE02F045F9002002BD00002E
:1018F000002002409D2102000AD002D4491E921805
:10190000FCD5C905100A1206524100D3012A4841EC
:10191000704700009D210200EED55242F446FFF7C9
:10192000EBFF0122D20710436047F446002804D49D
:10193000494200F013F8404260474042002905D474
:101940005FD000F00BF8404249426047494200F046
:1019500005F84942604703460B43E6D40022030AD8
:101960008B420BD203098B4219D243088B422ED2F1
:10197000411A00D20146524110467047FF22090227
:101980003FD012068B4205D3121209028B4201D3BB
:101990001212090203098B4219D300E0090AC30994
:1019A0008B4201D3CB01C01A524183098B4201D330
:1019B0008B01C01A524143098B4201D34B01C01A1B
:1019C000524103098B4201D30B01C01A5241C30893
:1019D0008B4201D3CB00C01A524183088B4201D302
:1019E0008B00C01A524143088B4201D34B00C01AEE
:1019F0005241884200D3401A5241CFD2014610468C
:101A0000704708B502F042FE08BDFEE710B50400BD
:101A1000002C01D1012026E03D20205C002805D1CA
:101A200000203C216054200002F0A6F902203D2154
:101A30006054211D206800F05FFB012046216054A6
:101A40003E2160543F216054402160544121605444
:101A50004221605443216054442160544521605424
:101A60003D216054002010BD00B501000868006AE7
:101A7000204A0240002A0BD10868006A1E4A024030
:101A8000002A05D108680068012290430A681060A6
:101A900001203D228854002000BD10B501003D20EA
:101AA000085C012801D0012023E002203D23C85416
:101AB00001200B68DB6803430C68E3600B680F4C84
:101AC000A34203D00B680E4CA3420CD10B689B6859
:101AD0005B075B0F1A00062A0AD00B681B681843C5
:101AE0000B68186004E00B681B6818430B681860EB
:101AF000002010BD1111000044040000002C014022
:101B00000004004010B50400002C01D1012026E0A3
:101B10003D20205C002805D100203C21605420009D
:101B200002F0F0F802203D216054211D206800F0F1
:101B3000E3FA0120462160543E2160543F21605465
:101B4000402160544121605442216054432160543B
:101B500044216054452160543D216054002010BD53
:101B600070B504000D00002D02D13E20205C0BE07A
:101B7000042D02D13F20205C06E0082D02D1402038
:101B8000205C01E04120205C012801D0012052E0CE
:101B9000002D04D102203E216054C0B211E0042D7A
:101BA00004D102203F216054C0B20AE0082D04D1C4
:101BB000022040216054C0B203E002204121605461
:101BC000C0B201222900206800F0B4FB1A48216845
:101BD000814207D02168194A914203D02168184AEE
:101BE000914201D1012100E00021C9B2002906D0B3
:101BF0002168496C802212020A4321684A642168E4
:101C0000814203D020680F4988420DD12068806846
:101C10004007400F0600062E0CD020680068012106
:101C200001432068016005E020680068012101434C
:101C300020680160002070BD002C0140004401407C
:101C4000004801400004004070B504000D00002C65
:101C500001D1012059E03D20205C002805D1002061
:101C60003C216054200002F00FF802203D21605416
:101C7000206880682549014020688160211D206816
:101C800000F03AFA20688368206882692068006A58
:101C9000296819431E4B1340AE681E43AA691202FD
:101CA00032431C4B13401C4A1A40EB681343EA6949
:101CB00012021A432B691B0113432A6A12031A43A7
:101CC00022239843882398436E680643686903017A
:101CD00033432068816020688261206803620126A6
:101CE000462026543E2026543000C0B23F202654C1
:101CF0003000C0B2422026543000C0B243202654E7
:101D00003000C0B23D202654002070BDF8BFFFFF58
:101D1000FCFCFFFFF3F3FFFF0F0FFFFFF8B504001C
:101D20000D003E20205C694648703F20205C6946DB
:101D300008704220275C4320265C002D12D16846A3
:101D40004078012803D13800C0B2012801D0012019
:101D50007AE0022001003E22A154C9B2422160541F
:101D6000C0B236E0042D12D168460078012803D1B4
:101D70003000C0B2012801D0012065E0022001003E
:101D80003F22A154C9B243216054C0B221E0684649
:101D9000407801280BD168460078012807D1380027
:101DA000C0B2012803D13000C0B2012801D0012007
:101DB0004AE0022001003E22A154C9B201003F22A4
:101DC000A154C9B201004222A154C9B243216054B6
:101DD000C0B22800002802D004280CD017E001224D
:101DE0000021206800F0A6FA2068C06802210143A3
:101DF0002068C16021E001220421206800F09AFAE5
:101E00002068C068042101432068C16015E00122F8
:101E10000021206800F08EFA01220421206800F0E1
:101E200089FA2068C068022101432068C1602068E7
:101E3000C068042101432068C16020680068012156
:101E40000143206801600020F2BD70B50400022645
:101E500020680069304000281CD02068C0683040ED
:101E6000002817D00220C043216808610120207794
:101E7000206880698007800F002803D02000FFF7CA
:101E8000B3FB05E0200002F002FC200002F000FCA1
:101E900000202077042520680069284000281CD0F5
:101EA0002068C0682840002817D00420C04321685B
:101EB0000861267720688069C021890001400029D7
:101EC00003D02000FFF790FB05E0200002F0DFFBCD
:101ED000200002F0DDFB0020207708262068006942
:101EE000304000281BD02068C0683040002816D041
:101EF0000820C0432168086125772068C0698007F1
:101F0000800F002803D02000FFF76EFB05E02000C3
:101F100002F0BDFB200002F0BBFB00202077102068
:101F200021680969014000291CD02168C96808405E
:101F3000002817D01020C043216808612677206848
:101F4000C069C02189000140002903D02000FFF7AB
:101F50004BFB05E0200002F09AFB200002F098FB0A
:101F600000202077012021680969014000290BD059
:101F70002168C9680840002806D00120C0432168B4
:101F800008612000FEF770FD80202168096901408A
:101F900000290BD02168C9680840002806D080209D
:101FA000C04321680861200002F073FB40202168D3
:101FB0000969014000290BD02168C9680840002840
:101FC00006D04020C04321680861200002F062FB77
:101FD000202021680969014000290BD02168C968C7
:101FE0000840002806D02020C04321680861200056
:101FF00002F051FB70BDF4B504000E0000252F0067
:102000003C20205C012801D1022071E001203C210C
:1020100060540099002906D004291BD0082932D029
:102020000C2947D05FE03100206800F09AF8206862
:10203000806908210143206881612068806904214A
:10204000884321688861206880693169014320687C
:10205000816149E03100206800F0BBF820688069A8
:10206000802109010143206881612068806921493C
:10207000014020688161206880693169090201435B
:102080002068816130E03100206800F0D9F82068D4
:10209000C069082101432068C1612068C06904212A
:1020A00088432168C8612068C0693169014320689C
:1020B000C16119E03100206800F0F7F82068C069BC
:1020C0008021090101432068C1612068C069094974
:1020D00001402068C1612068C0693169090201437B
:1020E0002068C16100E007003C2025543800C0B2E0
:1020F000F2BD0000FFFBFFFF10B503687F4A90426E
:1021000002D07F4CA04204D17024A3431C004B6832
:10211000234390420BD07A4CA04208D0794CA04285
:1021200005D0794CA04202D0784CA04203D1784C23
:102130001C40CB6823438024A3434C691C430460A8
:102140008B68C3620B688362904205D06E4A9042EE
:1021500002D06E4A904201D10A69026301224261B3
:1021600010BD70B5026A01239A430262056A436892
:10217000846970229443032294430A682243022410
:10218000A5438C682C435D4DA84205D05E4EB042FD
:1021900002D05E4EB04206D10826B4432600CC6879
:1021A00034430426B443A84205D0574DA84202D078
:1021B000564DA84207D1574D1D40594B2B404D69F4
:1021C0001D438B692B43436082614D684563046204
:1021D00070BD70B5026A10239A430262036A4268B6
:1021E00084694D4D25404A4E2E400C6824023443EC
:1021F0002025AB438D682D011D43404B984207D1EC
:102200008026B5432E00CD682D0135434026B543C9
:10221000984205D03C4B984202D03C4B984209D1A1
:102220003E4B13403F4A1A404B699B0013438A6957
:1022300092001A43426084614B688363056270BDFB
:10224000F0B5026A334B13400362046A4268C56901
:1022500070239D4303239D430B682B43304D254042
:102260008C6824022C43254DA84206D12D4E2640D1
:10227000CC6827023743294C3C40A84205D0224D68
:10228000A84202D0214DA84209D1274D1540274A26
:102290002A404D692D0115438A6912012A43426083
:1022A000C3614D68C5630462F0BD70B5026A1E4B20
:1022B00013400362036A4268C469174D2540144EF7
:1022C0002E400C6824023443184D1D408B681B03BC
:1022D0002B430A4DA84205D00B4DA84202D00B4D0E
:1022E000A84204D1124D15404A6992012A43426026
:1022F000C4614D680564036270BD0000002C01409C
:10230000000400400020004000440140004801401B
:10231000FFFCFFFFFFFEFFFFFF8FFFFFFFFBFFFF45
:10232000FFFDFFFFFFF7FFFFFFEFFFFFFFDFFFFFF7
:10233000FFBFFFFF70B41F2301240D001D40AC4000
:10234000056AA5430562056A0E00334016009E40EB
:102350002E43066270BC7047FEB5040000252F00B6
:10236000019500953420205C012801D102205EE017
:10237000012630003421605403202168896801401F
:1023800001290AD1216809683140002903D1216857
:10239000C968090401D5310000E0290000293DD1B8
:1023A000A16B234A0A4002211143A1632168C96835
:1023B000084000902068C068032188432168C860F5
:1023C000206880688021090601432068816002F04E
:1023D00063F9019020688068002813D502F05CF949
:1023E0000199401A0328F5D3206880680028F1D5A8
:1023F000A06B0221884310210143A163342025549E
:10240000012014E02068C068009901432068C16081
:10241000A06B022188430643A66304E0A06B202141
:102420000143A1633700342025543800C0B2FEBDFB
:10243000FFFEFFFFF8B5040000252F002E00002C42
:1024400001D10120CCE0A06B002806D1E563280073
:1024500034216054200001F0A3FB1020A16B014047
:10246000002900D0B5E004222168896811400029C4
:1024700000D0AEE0A36B5B49194002230B43A3637A
:10248000216889688907890F01290AD101212368F8
:102490001B680B40002B03D12368DB681B0400D5AD
:1024A00000E0290000290FD12168C9681823994349
:1024B000A3680B432168CB60216809698B009B08E6
:1024C00061681943236819612168CB68464919403E
:1024D0002368D960A16A012902D08021490100E066
:1024E00029002369022B00D02A00237E9B0333435B
:1024F000667EF6031E43A37E5B0333431943E36802
:102500000B431A432421615C4E001643E17E0129EE
:102510000FD1A17E002904D13100802676020E431E
:1025200007E0A16B20220A43A263E16B01220A4368
:10253000E263E169FF22C232914203D0E169314393
:10254000266A0E432168C96831432268D160E16A76
:1025500080225205914214D0E16A012911D0E16A2A
:1025600002290ED0E16A03290BD0E16A042908D0C0
:10257000E16A052905D0E16A062902D0E16A072946
:102580000ED121684969072291432268516121686F
:1025900049692C22A25C5207520F0A4321684A6102
:1025A0002168C968114A0A40B24207D1E563A06BAD
:1025B0000221884301210143A1630FE0A16B0222A4
:1025C00091430843A0630120E16B0143E1630700ED
:1025D00004E0A16B0843A063012007003800C0B2EB
:1025E000F2BD0000FFFEFFFF1902FEFFE7FF3F8381
:1025F000F7B5040000252800694608700427206804
:1026000080683840002844D13420205C012801D162
:10261000022043E00126300034216054607E01280E
:1026200004D0200000F0F0F8694608706846007891
:10263000002831D1A06B1A49014080204000084396
:10264000A063E563342025541648216B8862164840
:10265000216BC8621548216B08631C202168086043
:102660002068406810210143206841602068C068EC
:1026700006432068C660029B019A20680100403131
:10268000206B02F03BF82068806807432068876071
:1026900002E002206946087068460078FEBD00002E
:1026A000FEF1FFFFCD280008512900085F2900082E
:1026B000F8B504000D0000273E0000978021490571
:1026C000E06A884213D0E06A012810D0E06A02284C
:1026D0000DD0E06A03280AD0E06A042807D0E06A37
:1026E000052804D0E06A062801D0E06A07283420D3
:1026F000205C012801D1022085E001221000342352
:10270000E05420688068400774D468686B4B984236
:1027100056D02068806A2B689A4002432068826203
:10272000E06A884228D0E06A012825D0E06A0228C1
:1027300022D0E06A03281FD0E06A04281CD0E06A97
:10274000052819D0E06A062816D0E06A072813D0B9
:102750000720A96822685269024091420CD0216882
:102760004969072291432268516121684969AA6831
:1027700010400843216848612868102802D0286862
:1027800011283CD12868102802D18020000401E0E3
:102790008020C0034A490A6810430860286810284E
:1027A0002DD1484800684849FFF7D8F80A21484326
:1027B00000900098002822D00098401E0090F8E772
:1027C0002068806A29688A40904321688862286866
:1027D000102802D02868112811D12868102802D1A9
:1027E0008021090401E08021C903354802688A4339
:1027F000026004E0A06B20210143A1631600342095
:1028000027543000C0B2F2BD7CB5040000200600A1
:102810000090216889688907890F01290BD101215E
:10282000226812680A40002A03D12268D268120482
:1028300001D50800FFE700283DD1206880684249A3
:102840000140002909D0A06B10210143A163E06B76
:1028500001210143E16301202EE001252068806809
:10286000284321688860174800681749FFF776F801
:1028700000900098002803D00098401E0090F8E7D0
:1028800001F00AFF0600206800682840002812D1E5
:1028900001F002FF801B0328F5D320680068284060
:1028A0000028F0D1A06B10210143A163E06B054328
:1028B000E563012000E0002076BD0000011000006B
:1028C000082701402800002040420F0038B50400CE
:1028D000656AA86B5021014000292FD1A86B802187
:1028E00089000143A9632868C068C021090101402B
:1028F00000291FD1A87E00281CD128680068000785
:1029000018D52868806840070CD4286840680C21D6
:10291000884329684860A86B0C490140012008439E
:10292000A86307E0A86B20210143A963E86B01219C
:102930000143E9632800FEF79BFE03E02000296BBA
:10294000096B884731BD000017000080FFFEFFFFC4
:1029500038B50400656A280001F0A8FF31BD38B51C
:102960000400656AA86B40210143A963E86B042158
:102970000143E963280001F09AFF31BD0021416263
:102980008162C162016341637047F3B581B00400A5
:1029900015000298290001F0DBFCA0632168A06B00
:1029A00001F046FC06006168FC20800501F040FC57
:1029B000216A01F03DFC01000F00A16BA06A01F04B
:1029C0008FFC390001F034FC616A01F089FC60621F
:1029D000E069616A01F01EFE02D2E069606206E011
:1029E000606AA16901F016FE01D2A06960628027C9
:1029F000FF05A068390001F01BFC00902800216B46
:102A000001F0A6FC009901F013FC0090E068390089
:102A100001F00EFC216A01F09BFCE16A01F008FC68
:102A2000009901F05DFC0090E068390001F000FCC5
:102A30000100206A01F054FC0100009801F038FF09
:102A4000802109064840E062606A310001F048FCDC
:102A5000E16A01F045FC60636069616B01F0DAFDD9
:102A600002D26069606306E0606B216901F0D2FD0B
:102A700001D220696063A06BA0622563606BFEBD1C
:102A800010B50400080011000200200001F062FFF0
:102A9000200010BDF8B584B00400002C01D1012045
:102AA0004AE22078C00766D50C20B4490A68024083
:102AB000042A09D00A68104008280ED1802040025C
:102AC00009680140814208D1AD480068800352D5B1
:102AD000606800284FD101202EE26068012806D1ED
:102AE000A7480168802252020A43026024E060681D
:102AF000002809D1A2480168A24A0A400260016880
:102B0000A14A0A40026017E0606805280BD19C4882
:102B100001688022D2020A430260016880225202C8
:102B20000A43026008E096480168964A0A4002603B
:102B30000168954A0A400260606800280DD001F0E3
:102B4000ABFD05008E480068800314D401F0A4FD9D
:102B5000401B6528F6D30320EEE101F09DFD050042
:102B600087480068800306D501F096FD401B652864
:102B7000F6D30320E0E102262068304000284FD041
:102B80000C207E490A680240002A06D00A681040DC
:102B9000082814D10868C00311D47948016831406D
:102BA000002904D0E168012901D00120C4E10168B5
:102BB000F82291432269D2000A43026030E0E068C3
:102BC00000281AD06E4F386801210143396001F0A6
:102BD00063FD050038683040002806D101F05CFD37
:102BE000401B0328F6D30320A6E13868F821884368
:102BF0002169C9000143396012E0614F3868012141
:102C00008843386001F048FD0500386830400028EE
:102C100006D001F041FD401B0328F6D303208BE1D1
:102C20002078000728D5E069002812D0C34F386803
:102C300001210143396001F02FFD05003868304063
:102C4000002819D101F028FD401B0328F6D30320EA
:102C500072E1BA4F386801218843386001F01CFDE9
:102C6000050038683040002806D001F015FD401BF3
:102C70000328F6D303205FE10427206838400028AA
:102C800000D18CE000206946087080204005AC49E6
:102C90000968014000290AD1A9490A6802430A606B
:102CA0000968084003900398012069460870A54808
:102CB0000068C00514D4A34800688021490001437E
:102CC000A048016001F0E8FC05009E480068C005CE
:102CD00006D401F0E1FC401B6528F6D303202BE16C
:102CE000A068012805D19848016801220A430260C2
:102CF00021E0A068002809D193480168012291438E
:102D00000160016804229143016014E0A068052875
:102D100008D18D48016839430160016801220A43E6
:102D2000026008E08848016801229143016001685F
:102D3000042291430160A06800280FD001F0ACFC90
:102D4000050081480068304000281FD101F0A4FC34
:102D5000401B7E498842F4D30320EDE001F09CFC47
:102D6000050079480068304000280FD001F094FC3D
:102D7000401B76498842F4D30320DDE00410024072
:102D800000100240FFFFFEFFFFFFFBFF68460078D8
:102D9000012804D16A4801686D4A0A40026020781F
:102DA000C00650D56069012822D1B44800680743A5
:102DB000B2480760B148006801210143AF48016093
:102DC00001F06AFC0500AD4800683040002806D1DB
:102DD00001F062FC401B0328F5D30320ACE0A748B8
:102DE0000168F8229143A269D2000A4302602AE0F6
:102DF0000421C943606988420BD1A0480268114090
:102E000001600168F8229143A269D2000A4302607E
:102E100019E09A4800680743984807609748006897
:102E2000012188439549086001F036FC050093486C
:102E300000683040002806D001F02EFC401B03281B
:102E4000F5D3032078E0206A002874D08C4800680D
:102E50000C21014008294DD0206A022838D1894F21
:102E6000386889490140396001F016FC00908026DD
:102E7000B60438683040002807D001F00DFC0099F6
:102E8000401A0328F3D3032056E09E4801680F221E
:102E90009143E26A0A430260794801687B4A0A402A
:102EA000A16A1143626A0A430260386880214904BA
:102EB0000143396001F0F0FB05003868304000281C
:102EC00039D101F0E9FB401B0328F6D3032033E09E
:102ED0006C4E30686C490140316001F0DDFB05004B
:102EE0003068800127D501F0D7FB401B0328F7D3BA
:102EF000032021E0206A012801D101201CE0604864
:102F0000006801907F480068029001988021490282
:102F10000840616A88420CD102980007000FE16AFC
:102F2000884206D10198F02189030140A06A8142BC
:102F300001D0012000E0002005B0F0BD24100240C7
:102F40001C10024000700040201002408913000055
:102F5000FFFFFFEFF3B581B00400002C01D1012089
:102F60008BE00125684E30682840029988420CD2D7
:102F7000306801218843029901433160306828405C
:102F80000299884201D0012077E0022021680140A7
:102F900000290FD02178490705D539490A68E0236F
:102FA000DB0013430B6036490A68F0239A43A36899
:102FB00013430B6021682940002932D06168012940
:102FC00005D130480068800311D4012055E06168C4
:102FD000022905D12B480068800108D401204CE06B
:102FE000284909680840002801D1012045E0244F04
:102FF00038680321884361680143396001F04CFB64
:10300000009038680C21014060688000814208D03F
:1030100001F042FB0099401A3C498842F1D3032059
:103020002BE002983168294088420CD23068012197
:103030008843029901433160306805400298854217
:1030400001D0012019E02078400706D50C4801681E
:103050002F4A0A40E1681143016000F019F82D4938
:10306000074A126812091207120F895CC8402A49E0
:103070000860002001F0E2FA0020FEBD341002409A
:103080000410024000100240FFFFFFFEFFFFC2FFDE
:10309000F0B589B005A82149102201F083FC01A8F0
:1030A0001F49102201F07EFC00242000009425001E
:1030B00026001C490F680C213940042902D0082938
:1030C00002D01BE018481AE00F2005A9BA0C0240F4
:1030D000895C0E0001A90B4A12681040085C009040
:1030E000F80306D510480099FEF738FC7043050038
:1030F00002E00E4870430500280000E00A4809B0CD
:10310000F0BD00002C100240002002408913000096
:10311000FFF8FFFF284E000828000020084E000896
:10312000184E00080410024000127A0000093D0009
:10313000F8B584B00700002002900190802464025A
:1031400039682140002964D0694608708020400514
:103150003B4D29680140002909D1296801432960B4
:103160002968084003900398012069460870354E8D
:103170003068C00512D430688021490001433160B5
:1031800001F08AFA02903068C00507D401F084FA91
:103190000299401A6528F6D303204FE0C020800032
:1031A000294E3168014001910199002923D00199EC
:1031B0007A68104081421ED0306824490140019154
:1031C000306804433460306821490140316001981F
:1031D00030600198C0070ED501F05EFA02903068A9
:1031E000800708D401F058FA0299401A1949884218
:1031F000F5D3032022E03068144901407868084381
:10320000306068460078012803D1286812490140DF
:1032100029603878C00706D5104801680322914319
:10322000BA680A4302603878800606D50B48016800
:1032300010229143FA680A430260002005B0F0BDF5
:103240001C1002400070004020100240FFFCFFFFF5
:10325000FFFFFEFF89130000FFFFFFEF3010024069
:1032600010B50400002C01D101205BE04120205C5E
:10327000002805D1002040216054200000F0D4FC3B
:10328000242041216054206800680121884321687E
:103290000860606824490140206801612348216872
:1032A0008968014022689160E168012906D1A1681E
:1032B000802212020A4321688A6005E0A168842204
:1032C00012020A4321688A60E168022903D1802141
:1032D00009012268516021684968154A0A4321683A
:1032E0004A602168C96808402168C860206961692E
:1032F0000143A069000208432168C860E069216AAF
:1033000001432068016020680068012101432068B2
:1033100001600020606420214122A15420634221E9
:103320006054002010BD0000FFFFFFF0FF7FFFFF93
:1033300000800002FEB582B004000F004120205C36
:10334000202800D0C5E00A98002803D06846808D68
:10335000002804D18020800060640120BAE0402071
:10336000205C012801D10220B4E0012040216054FA
:1033700001F092F90600009619230122802109022A
:10338000200000F01FFA002801D00120A2E0212037
:1033900041216054402042216054002565640A9810
:1033A00060626846808D6085656301960C98009028
:1033B0006846038A68468289390089B2200000F095
:1033C00065F9002803D040202554012082E0608D5B
:1033D000FF280DD9FF2020850020009080235B046A
:1033E000228DD2B2390089B2200000F0BCFA0CE084
:1033F000608D20850020009080239B04228DD2B216
:10340000390089B2200000F0AEFA32000C99200099
:1034100000F004FA002801D001205BE0606A007827
:1034200021688862606A401C60629548618D091855
:103430006185218D08182085608D00282BD0208D76
:10344000002828D100960C9B00228021200000F04B
:10345000B9F9002801D001203CE0608DFF280DD98A
:10346000FF2020850020009080235B04228DD2B2B3
:10347000390089B2200000F076FA0CE0608D2085DA
:103480000020009080239B04228DD2B2390089B2A3
:10349000200000F068FA608D0028B6D132000C9947
:1034A000200000F0E7F9002801D0012012E02020E0
:1034B0002168C86121684968724A0A4021684A60E7
:1034C00041216054280042216054402025540020AE
:1034D00000E0022005B0F0BDFEB582B004000F0090
:1034E0004120205C202800D0C7E00A98002803D0A3
:1034F0006846808D002804D180208000606401200F
:10350000BCE04020205C012801D10220B6E001206F
:103510004021605401F0C0F80600009619230122F2
:1035200080210902200000F04DF9002801D001207F
:10353000A4E0222041216054402042216054002513
:1035400065640A9860626846808D6085656301964F
:103550000C9800906846038A68468289390089B2CF
:10356000200000F0D6F8002803D040202554012088
:1035700084E0608DFF280DD9FF202085424800900F
:1035800080235B04228DD2B2390089B2200000F082
:10359000EAF90CE0608D20853B48009080239B0475
:1035A000228DD2B2390089B2200000F0DCF90096F9
:1035B0000C9B00220421200000F004F9002801D017
:1035C00001205BE02068406A616A0870606A401C04
:1035D00060622B48218D09182185618D081860854E
:1035E000608D00282BD0208D002828D100960C9BC0
:1035F00000228021200000F0E5F8002801D0012001
:103600003CE0608DFF280DD9FF2020850020009030
:1036100080235B04228DD2B2390089B2200000F0F1
:10362000A2F90CE0608D20850020009080239B048F
:10363000228DD2B2390089B2200000F094F9608D59
:103640000028B4D132000C99200000F013F90028B2
:1036500001D0012012E020202168C861216849685A
:10366000084A0A4021684A604121605428004221EA
:10367000605440202554002000E0022005B0F0BD39
:10368000FFFF000000E800FE00240080FBB50400FE
:103690001700089E099D4048009080235B046846FF
:1036A0000289D2B268468188200000F05CF92A00C5
:1036B0003100200000F0B2F8002801D0012027E0FE
:1036C00068460089012804D13800C0B221688862A8
:1036D00012E0380080B2000AC0B2216888622A0075
:1036E0003100200000F09AF8002801D001200FE0FE
:1036F0003800C0B221688862009533000022802122
:10370000200000F05FF8002801D0012000E0002038
:10371000FEBDFBB504001700089E099D1E480090E1
:10372000002368460289D2B268468188200000F0F2
:103730001AF92A003100200000F070F8002801D0AA
:10374000012027E068460089012804D13800C0B272
:103750002168886212E0380080B2000AC0B2216895
:1037600088622A003100200000F058F8002801D0BB
:1037700001200FE03800C0B2216888620095330054
:1037800000224021200000F01DF8002801D0012077
:1037900000E00020FEBD00000020008000B50168B0
:1037A0008969890702D500210268916201210268B6
:1037B00092690A40002A04D10268926911430268A2
:1037C000916100BDF4B504000F001D00069E206845
:1037D00080693840B84201D1012000E000206946EC
:1037E0000978884218D10020C0438542EFD000F00C
:1037F00053FF801B854201D3002DE8D12020616C4E
:103800000143616441216054002001004222A1541F
:1038100040216054012000E00020F2BD70B504009A
:103820000D00160020688069800721D4320029002D
:10383000200000F048F8002801D0012019E0002005
:10384000C0438542EED000F027FF801B854201D3A4
:10385000002DE7D12020616C014361644121605457
:10386000002001004222A15440216054012000E0C8
:10387000002070BDF8B505000E0017002024286850
:103880008069204000281CD13A003100280000F057
:103890001AF8002801D0012014E000F0FDFEC01B42
:1038A000864201D3002EE9D1686C20436864412030
:1038B0002C54002001004222A954402168540120C8
:1038C00000E00020F2BDF4B504000F0010252068D0
:1038D00080692840002844D020684068800106D4D0
:1038E000206840688021C90101432068416020268A
:1038F000206880693040002818D10020C0438742EA
:10390000F5D000F0C9FE0099401A874201D3002F7C
:10391000EDD1606C304360644120265400200100EA
:103920004222A1544021605401201BE02068C5615F
:103930002068C6612000FFF731FF20684068164903
:10394000014020684160606C0421014361644120B2
:103950002654002001004222A1544021605401203D
:1039600000E00020F2BDF0B4049C05686D68660DAF
:103970000A4F3743BD430E00B6B2B605B60D2E430F
:103980001500EDB22D0435431D43254306687560CF
:10399000F0BC70470000000000E800FEFF63FF037A
:1039A00010B502004120105C20282AD14020105C74
:1039B000012801D1022025E00120030040241355F5
:1039C00024234124135513681B680124A34314685E
:1039D000236013681B682C4C1C4013681C60136820
:1039E0001B680B431468236013681B681843136833
:1039F000186020204123D05400204023D0540020C0
:103A000000E0022010BD10B502004120105C20280B
:103A100027D14020105C012801D1022022E00120A2
:103A200003004024135524234124135513681B68B5
:103A30000124A3431468236013681B68134C1C40C3
:103A40000B0223431468236014682468204314681D
:103A500020602020412410550020402410550020D3
:103A600000E0022010BD81B00121094A13680B4318
:103A70001360126811400091009906490A680243D8
:103A80000A6001B070470000FFEFFFFFFFF0FFFF8B
:103A9000181002400000014070B502003C20105C8C
:103AA000012801D1022024E001203C23D05402232C
:103AB0003D24135513685D6813689B687024A54303
:103AC0000C682C4315686C601568234EB54203D012
:103AD0001568224EB54206D18025AB431D004B68C8
:103AE0002B431568AB603D25505500203C255055B3
:103AF000002070BD30B50200002003003C24145D9E
:103B0000012C01D1022023E001243C255455FF243F
:103B1000A343CC681C43124D25408B682B43114CAA
:103B20001C404B682343104C1C400B6823430F4C34
:103B30001C400B692343074C1C404B6923430C4C2E
:103B40001C40CB692343146863643C241055002057
:103B500030BD0000FFDFFFFF002C014000040040EB
:103B6000FFFCFFFFFFFBFFFFFFF7FFFFFFEFFFFF84
:103B7000FFBFFFFF81B001207E490A6802430A604F
:103B800009680840009000988020400596490A681E
:103B900002430A60096808400090009801B070472D
:103BA000F8B586B007001422002101A8FEF768FFCF
:103BB00038688E49884235D18024A4006D48016858
:103BC000214301600068204000900098802080021E
:103BD00087490A6802430A60096808400090009813
:103BE00007200190032002900025039501A9902051
:103BF000C00500F0FBF97F4EB14830607560B560DC
:103C00008020F06034618020000170612020B0616C
:103C1000F561300000F046FD002801D0FDF756FEAA
:103C20003E63776207B0F0BD10B586B00400142281
:103C3000002101A8FEF724FF2068A049884221D175
:103C40008020C0026A490A6802430A600968084085
:103C500000900098C0200190122002900020039054
:103C6000032004900120059001A9964800F0BEF9B8
:103C70008020800395490A6802430A600968084069
:103C80000090009806B010BD10B586B00400142254
:103C9000002101A8FEF7F4FE20688B4988422FD14D
:103CA0008020000133490A6802430A60096808401D
:103CB00000900098802080024D490A6802430A6003
:103CC0000968084000900098C020800001901220F0
:103CD000029000200390032004900220059001A987
:103CE0009020C00500F082F98020C003FFF7BBFEE2
:103CF000002202210E2000F056F90E2000F05DF99E
:103D000006B010BD10B586B004001422002101A831
:103D1000FEF7B6FE20686E49884228D1022032495B
:103D20000A6802430A6009680840009000988020F1
:103D3000C0022F490A6802430A60096808400090DF
:103D40000098302001901220029000200390032060
:103D500004900120059001A95A4800F047F900227B
:103D60000221102000F01FF9102000F026F906B003
:103D700010BD0000181002401CB504002068554911
:103D8000884212D18020400017490A6802430A6025
:103D9000096808400090009800220221132000F0DA
:103DA00002F9132000F009F91CE020684A49884212
:103DB0000AD180218902494802680A4302600068EA
:103DC0000140009100980DE020684549884209D1E2
:103DD0008021C902414802680A430260006801402C
:103DE0000091009813BD00001C1002400024014007
:103DF00014100240600A002010B586B0040014229E
:103E000000216846FEF73CFE20683149884217D100
:103E10008021C902334802680A43026000680140F9
:103E20000591059801200090022101910021029145
:103E30000321039104906946224800F0D7F83AE044
:103E400020682549884219D18021890225480268C5
:103E50000A430260006801400591059840200090E7
:103E6000022001900020029003200390052004907E
:103E700069469020C00500F0B9F81CE02068184998
:103E8000884218D180218902164802680A430260DC
:103E90000068014005910598802000900220019063
:103EA0000020029003200390052004906946902092
:103EB000C00500F09BF806B010BD000000540040A3
:103EC0000800024000040048002C01401C10024081
:103ED000000400400020004000440140181002404F
:103EE000004801401410024000B5010049B2002909
:103EF00005D40121C206D20E9140364A116000BDA0
:103F0000F0B5020052B2002A17D41822324B040036
:103F100064B2A408A4001C59FF25C6001640B54091
:103F2000AC438D01EDB2C6003240954025430200FE
:103F300052B2920892009D501BE00F22274B18248A
:103F400005006DB21540083DAD08AE0005006DB22C
:103F50002A40083A920892009A58FF25C700274045
:103F6000BD40AA438D01EDB2C7003C40A5401543BA
:103F70009D51F0BD10B50400601E802149048842A7
:103F800001D301200EE0601E1549086003210020C6
:103F9000C043FFF7B5FF002012490860072012490F
:103FA0000860002010BD70B505000C00160021004F
:103FB000280040B2FFF7A4FF70BD10B50400200038
:103FC00040B2FFF791FF10BD10B504002000FFF7CD
:103FD000D1FF10BD00E100E000E400E01CED00E0D6
:103FE00014E000E018E000E010E000E0FEB5002280
:103FF0000B68D340002B00D1DAE001230C681D00D0
:10400000954025400195019C002C00D1CEE0032471
:104010004D682540012D03D04D682540022D19D152
:10402000866815006F002500BD40AE43CD681700BF
:104030007F00BD4035430095009D856046681D00AA
:104040009540AE434D682D091D4095403543009580
:10405000009D45604D682540032D0DD0C6681500B4
:104060006F002500BD40AE438D6817007F00BD4046
:1040700035430095009DC5604D682540022D1DD13A
:10408000D508AD0045192D6A00951C25009EB44643
:104090000F271600B6002E40B7406646BE433700D5
:1040A000BC460E691700BF003D40AE4067463E4328
:1040B0000096D508AD004519009E2E6206681500D1
:1040C0006F002500BD40AE434D68254017007F00BE
:1040D000BD4035430095009D05604D68C026B60281
:1040E0002E40002E62D0484D2E681E432E602D6853
:1040F0001D400295029D454D9608B600AE590096AA
:104100000F27BC461600B7000C263E406746B74056
:10411000009EBE439027FF05B84201D100230DE069
:104120003B4FB8420AD03B4B984201D1022305E0F5
:10413000394B984201D1230000E005231400A4006C
:104140000C272740BB4033439408A4002B51334D28
:104150002C68019EB4434E68F60302D52300019CEF
:104160001C432C602E4D2B68019EB3434E68B60352
:1041700002D51C00019B23432B602A4D2C68019E15
:10418000B4434E68F60202D52300019C1C432C6008
:10419000254B1D68019EB54300954D68AD0203D5C2
:1041A000009C019D25430095009C1C60521C1FE74C
:1041B000F7BD00B5020010690B009BB21840002843
:1041C00001D0012000E00020C0B200BD00B5130006
:1041D000DBB2002B03D00B009BB2836102E00B002B
:1041E0009BB2836200BD10B5040010480168220034
:1041F00092B21140002906D0210089B2016020004E
:1042000080B2FDF7DFFA10BD18100240080001402F
:104210000004004800080048000C00480004014069
:1042200004040140080401400C040140140401404E
:1042300030B405004D400122D20715404B18041838
:10424000240E2ED01B0E32D0FF2C34D0FF2B3AD0B0
:10425000E4180002090210431143000A090A9446B7
:10426000C2B24A43000AC3B24B43000A4843110A90
:104270005B181A43D2B2190A091801D44918641EEE
:10428000080A7F3C23DBFE2C08DAE405090611430B
:10429000634699416041284330BC7047FF20C00508
:1042A000F9E728001B0EFF2BF6D1D043F4E72800D6
:1042B000FF2CF1D1F9E74002F7D1FF2B01D14902E0
:1042C000F3D1E005E7E7D8054902E4D0EDE7430282
:1042D0000020641CDFD15B129B1CDCD9D805DAE717
:1042E0000122D20703004B402ED4431A01D2C01A38
:1042F000C91830B44B180418240E1B0E22D0FF2C02
:1043000020D0E31A182B1DDC09021143C40D641ED2
:104310000002104394461925ED1A0A00AA40D9401C
:10432000451801D36D08A41CE405D209280A2D06FE
:104330002A436546AA41604103181B0EFF2B01D397
:10434000C00DC00530BC7047514006E05140CCE77D
:104350000122D20703004B40F8D4431A03D2C01AFB
:10436000C9185040514030B44B1809021143041889
:10437000240E1B0E40D0FF2C3AD025009D410BD3BC
:104380001ED8C50D4002401A0BD3ED050100400AAE
:10439000C90591416841D5E7C50D40024918401A49
:1043A000D0D001214008491C0018FCD58C4204D310
:1043B0006D1A000AED054019C4E7E8051040C1E791
:1043C000182DBFDCAC1C0D00E140E5414D40012D36
:1043D0004941C40D00021043451A01D46D1995439B
:1043E000641EE405280A2D069541604130BC7047E3
:1043F000FF2BA7D1D843A5E72442A3D10020A1E7F2
:104400000122D2070118090E7F3910D449421F3109
:104410000FD4001805D2C0011043C84000D5D043C6
:104420007047C0011043C84005D440427047002087
:1044300070470042F3D510007047FEE701004222AA
:104440001201D21E004207D002D4521E0018FCD521
:10445000C10A40051205891870470000F0B50E002A
:104460005E400125ED072E40B446AE0ADF184C1819
:10447000F44208D2F7420ED2640D01D07F0D12D162
:1044800000206146F0BD05D1F74201D87F0D05D16E
:104490000020C143F0BDFBD1640DF9D00020C14321
:1044A000490549088FE0E419C902DB0229432B437F
:1044B000DB0A460DC00231438E4630B487B295B256
:1044C0007D432E0CADB2140C7C43A419260C24049D
:1044D00025439CB27C43A419190C7943270CC919B4
:1044E000A4B20F043C43090C000C97B247432E0CB6
:1044F000BE193543ADB2170C4743360CBF19A6B2EF
:10450000BF193E043543240C3E0C36199FB2474375
:10451000BF19BCB23E0C89191F0C47437F183E04DB
:104520003443390C704680B297B247432E0CBE1903
:104530003543ADB2170C4743360CBF19A6B2BF19AD
:104540003E043543240C3E0C36199FB24743BF1935
:10455000BCB23E0C89191F0C47437F183E043443FC
:10456000390C77463F0C90B278432E0C8019060424
:10457000ADB22E43050CA0B22D18120C7A4350197F
:10458000020C80B2240CA4189AB27A4312191404B3
:104590002043120C89181B0C7B43C91830BCEF0A4E
:1045A000394203D1B61940414941641E6F12BF0D13
:1045B000E41B0BDBFF19BC4211DA2405002742087B
:1045C000AE417841614166463143F0BD641C05D17E
:1045D000401C6141CF0201D34908F4E750E75DE791
:1045E00030B4012464054D00EC420BD85D00EC4270
:1045F00008D80C001C4364000443144304D29942BD
:1046000000D1904230BC7047FCD08B42FAD182423C
:10461000F8E7FEE70CB4012212060318DA4207D8C5
:104620004B18DA4204D802000A43921802D2884298
:104630000CBC7047FCD08142FAE7FEE710B50400DD
:10464000FA2080000E490978FDF788F901000D482D
:104650000068FDF783F9FFF7B7FC002801D00120BF
:104660000CE0042C09D2002221000020C043FFF7F7
:104670009AFC05480460002000E0012010BD00BF46
:104680003D000020280000202400002070477047D3
:10469000704770477047704701480068704700BF17
:1046A000480B0020F8B5040000252F00002C01D194
:1046B000012020E0022021216054206800680E497A
:1046C000014060680843A1680143E068084321692C
:1046D000014360690843A1690143E6690E4320680C
:1046E0000660200000F0D0F8A5630120212160546D
:1046F000202025540020F2BD0FC0FFFFF7B50400B5
:104700001F00002006002021615C012901D1022048
:1047100039E0012529002022A1542121615C0129D1
:104720002BD102212122A154A0632068006801211D
:104730008843216808603B00029A0199200000F03C
:104740008EF8E06A002806D0206800680E21014338
:10475000206801600BE0206800680A21014320689E
:10476000016020680068042188432168086020688F
:10477000006805432068056003E0202160540220A2
:1047800006003000C0B2FEBD70B50400E06B0568E5
:10479000206806680420216C02008A402A40002A12
:1047A00016D0064214D021680968890605D421680C
:1047B00009680422914322681160216C8840E16BF2
:1047C0004860E06A002849D02000E16A884745E057
:1047D0000220216C02008A402A40002A1CD0064296
:1047E0001AD021680968890608D4216809680A2254
:1047F00091432268116001212122A154216C88403B
:10480000E16B4860002020216054A06A002825D078
:104810002000A16A884721E00820216C02008A401C
:104820002A40002A1AD03040002817D0206800689B
:104830000E218843216808600120216C02008A4013
:10484000E16B4A60A0632121605400202021605464
:10485000206B002802D02000216B884770BD30B546
:104860000124056CAC40C56B6C60046863604468EF
:10487000102C04D10468A2600468E16003E00468BD
:10488000A1600468E26030BD10B5040020680549ED
:1048900040181421FDF762F8800020640248E063AC
:1048A00010BD0000F8FFFDBF0000024070477047D8
:1048B00030B405004D400122D20715404B180418B2
:1048C000240E25D01B0E2CD0FF2C31D0FF2B34D042
:1048D000E41A000209021043114343084808D10DAD
:1048E0001B1A02D2641EDB181B18DB18834200D38C
:1048F0001B1A4941F9D37F3423DDFF2C05DAE40587
:1049000048086041284330BC7047FF20C005F9E7E4
:1049100028001B0E03D0FF2BF5D14902F3D0D04362
:10492000F1E7FF2C01D14002F9D1FF20C005E9E7F2
:104930004002F4D1FF2BF8D1F1E728004902E2D080
:10494000EDE70B0200202442DCD15B129B1CD9D97D
:10495000D805D7E71206130A1A43130C1A4300BFEF
:10496000094205D0830705D00270401C491EF9D1C9
:10497000704700001300103906D330B4140015003E
:1049800010393CC0FCD230BC490700D30CC000D564
:1049900004C0890002D30280801C002900D5027067
:1049A0007047FEE770B4103A03D378C9103A78C064
:1049B000FBD2530701D318C918C001D508C908C0D4
:1049C000D20704D30B880380891C801C002A01D5E0
:1049D0000B78037070BC704700B5FEE700B5FEE7CA
:1049E00070477047FEB501273C009C480188491C70
:1049F000018001881E2900DA09E1002631000180CA
:104A0000974DA8886989884200D181E02800083044
:104A1000A9886A89891A01800821695E002908D558
:104A20000021C9430C00210049B22A894A4302806F
:104A300001E0380004008B48008868820820285E66
:104A400089490022895E884215DB200040B28749EF
:104A50000022895E4843A98840188549CA68824275
:104A600002D2C968A9803FE0002802D53100A980A0
:104A70003AE0A88038E00820285E052834DBA988C1
:104A80000291200040B2019078480021405E001F52
:104A900075490022895E091FFCF75DFF01000820AF
:104AA000285E4143009171480021425E6E4800211A
:104AB000405E101A80006C490022895E091FFCF7D5
:104AC0004AFF0099091A0198484302990818684951
:104AD000CA68824202D2C968A98005E0002802D5CE
:104AE0003100A98000E0A880288BA988884202D2E2
:104AF000288BA880FFE7A8886881A8885C49096896
:104B00004862A888A98BFCF726FF5A4909684863C0
:104B1000594DA8886989884279D028000830A98829
:104B20006A89891A01800821695E002908D5002157
:104B3000C9430C00210049B22A894A43028000E09F
:104B40003C00494F0820285E0021795E884214DB32
:104B5000200040B245490022895E4843A988401898
:104B6000002801D5AE803DE04449CA68824202D2A5
:104B7000C968A98036E0A88034E00820285E0528AE
:104B800030DBA9880291200040B201903748002113
:104B9000405E001F0021795E091FFCF7DCFE01006A
:104BA0000820285E4143009130480021415E0020EA
:104BB000385E081A80000021795E091FFCF7CBFEE1
:104BC0000099091A0198484302990918002901D54A
:104BD000AE8007E02948C2688A4202D2C068A88035
:104BE00000E0A980288BA988884202D2288BA8805F
:104BF000FFE7A8886881A888204909684862A888D2
:104C0000A98BFCF7A8FE40001D490968486300F025
:104C10003DF8F7BD80B50220FFF7E5FA01BD80B58C
:104C20000820FFF7E0FA01BD80B580200002FFF701
:104C3000DAFA01BD80B51348FFF7A6FD01BD80B5C6
:104C40000E48FDF702F901BD80B50948FDF7FDF8F2
:104C500001BD80B50C48FDF7F8F801BD4E0B0020F2
:104C6000480700202C000020380000203A000020D7
:104C700040090020180A0020C8070020F80800207A
:104C8000D0090020600A002088090020034801683C
:104C9000034A127889180160704700BF480B002052
:104CA0003D000020CDCCCC3DCDCCCC3E0AD7233C22
:104CB0000AD7233CCDCCCC3DCDCCCC3E0000C0406F
:104CC0000000C0402C0100000400000000127A0027
:104CD0001E001E001E00C800B80B88131400B0048C
:104CE0000C01000070B40123002413E00168001DD2
:104CF000194202D04D466918491E0C60091D121F49
:104D0000042AFAD20D00960701D50C80AD1C1A407A
:104D100000D02C700268001D002AE7D170BC7047DB
:104D200030B401220EE00368C3184468083014420E
:104D300002D04D462C19641E1D6825601B1D241DC4
:104D4000091FF9D10168001D0029ECD130BC704762
:104D5000FEE7000010B5074979441831064C7C4441
:104D6000163404E0081D0A68891888470100A1422A
:104D7000F8D110BD080000002800000069FFFFFF07
:104D8000200B0000400000200000000095FFFFFF06
:104D90004000000010FFFFFF0000002000000000A6
:104DA00000F00DF8002801D0FFF7D4FF00BF00BFCE
:104DB000002000BF00BFFBF77BF900F002F80120E4
:104DC000704780B500F002F801BDFEE7074638469F
:104DD00000F002F8FBE7FEE780B500BF00BF024A23
:104DE00011001820ABBEFBE7260002000548014673
:104DF00003B4684680F3098800BF00BF00BF00BF4E
:104E0000FFF7CEFFA5EDF5FE02030405060708092E
:104E10000A0B0C0D0E0F1010010203040506070803
:104E2000090A0B0C0D0E0F1000000000000000001E
:104E300001020304060708090148804701480047AA
:104E4000514E0008ED4D0008FEE7FEE7FEE7FEE7E5
:024E50007047A9
:0400000508004DEDB5
:00000001FF
