:020000040800F2
:100000004007002065430008814000088540000843
:1000100000000000000000000000000000000000E0
:1000200000000000000000000000000089400008FF
:1000300000000000000000008B4000088D40000818
:100040006315000800000000DF3D0008474000087D
:100050007F4000086B410008754100087F4100089F
:10006000000000008B410008DB420008E742000866
:100070003143000875430008954100080000000066
:100080009F4100080000000000000000A941000896
:100090000000000077430008794300087B43000814
:1000A000000000007D430008000000007F430008BE
:1000B00010B501F057FA00F037F800F053FA00F0ED
:1000C00034FA00F073F800F0E4F800F019F900F0E9
:1000D0008DF900F0B7F800F066F900F0D9F9BB48E7
:1000E000C82109024182BA4A5182042181823C21FD
:1000F000B84801F0CFFB3C21B74801F0CBFB002111
:10010000C14801F0E9FA0021B44801F0E5FAB44829
:1001100001F07FFAB34C200001F0DAFE0322B2496D
:10012000200002F021F8FEE738B594B0302200211B
:1001300008A802F0DFF910220021684602F0DAF97F
:100140001022002104A802F0D5F903200890012014
:1001500009900B9010200C900224109480204002F3
:1001600011908020400312900025139508A802F0FA
:10017000CBF9002801D001F0F1F90720009001949B
:10018000029503950121684602F01EFC002801D06B
:1001900001F0E4F920200490079504A802F002FD84
:1001A000002801D001F0DAF915B030BD7FB50C227E
:1001B0000021684602F09EF98A4CB44820608020F5
:1001C000000660600026A660E66001252561042027
:1001D000606130002076300060762800A076300024
:1001E000E076FF20C230E0612662280024216054BE
:1001F000A662200001F0DAFE002801D001F0AEF97D
:10020000009680204001019006200290694620005F
:1002100002F00AF8002801D001F0A0F90095694623
:10022000200002F001F8002801D001F097F9022027
:1002300000906946200001F0F7FF002801D001F08E
:100240008DF97FBD10B5C24CC2482060C2486060C5
:100250000020A0600121E16020616061A061E06197
:100260002062200002F036FD002801D001F076F96E
:100270000021200003F0CEF8002801D001F06EF933
:100280000021200003F0F9F8002801D001F066F900
:1002900010BD30B58BB02422002102A802F02AF94B
:1002A00008220021684602F025F94A4CAB4820603C
:1002B00000256560A560AA48E06025616561A561CB
:1002C0000320029003950120049005950A210691D0
:1002D0000795089009950A9502A9200001F070FA87
:1002E000002801D001F03AF90095019569462000F7
:1002F00003F00CF9002801D001F030F90BB030BD4B
:1003000038B592B02422002109A802F0F3F808229F
:100310000021684602F0EEF81C22002102A802F03B
:10032000E9F82D4CCB48206000256560A5608C481D
:10033000E0602561A561200001F0A0F9002801D04E
:1003400001F00CF9032009900A9501200B900C95FF
:100350000A210D910E950F901095119509A9200075
:1003600001F02EFA002801D001F0F8F8009501956F
:100370006946200003F0CAF8002801D001F0EEF829
:1003800060200290039504950695082202A920009A
:1003900001F0EDFB002801D001F0E0F8200003F0AF
:1003A00065FA13B030BD80B50D48AB49016000213E
:1003B00041608160A94AC2600161816101F0E2F897
:1003C000002801D001F0CAF801BD0000B4020020ED
:1003D000CC020020C800002010010020E80100200D
:1003E00058010020740200202403002030B58FB093
:1003F0001C22002108A802F07DF820220021684676
:1004000002F078F8004D01E0A00100209448286037
:1004100000246C60AC60C8208001E8602C616C61D5
:10042000AC61280001F0AEF8002801D001F096F888
:10043000280001F023F9002801D001F08FF8602096
:10044000089009940A940B940C940D940E94002235
:1004500008A9280001F08BFB002801D001F07EF8EC
:1004600000940194029403940494802080010590E8
:1004700007946946280003F077F8002801D001F0BE
:100480006DF8280003F0F2F90FB030BD00240140F0
:1004900030B58FB01C22002108A802F02BF82022D2
:1004A0000021684602F026F8B54DB64828600024C1
:1004B0006C60AC60C8208001E8602C616C61AC614C
:1004C000280001F05FF8002801D001F047F828006B
:1004D00001F0D4F8002801D001F040F86020089025
:1004E00009940A940B940C940D940E94002208A97C
:1004F000280001F03CFB002801D001F02FF8009407
:100500000194029403940494802080010590079440
:100510006946280003F028F8002801D001F01EF8F1
:10052000280003F0A3F90FB030BD80B50120964933
:100530000A6802430A600968084000900098002297
:100540000321092003F069FA092003F070FA01BDC4
:100550007C000020005400400E090020002C0140C7
:100560000AC8000070B586B014220021684601F068
:10057000C1FF8021C903844802680A4302600268FF
:100580001140059105998021890202680A430260A1
:1005900002681140059105998021C90202680A4349
:1005A000026000680140059105989026F60500223A
:1005B0007649300003F044FB282000900125019586
:1005C00000240294032003906946300003F048FAA7
:1005D000C120000100900195029403946946300007
:1005E00003F03EFA0A2000908425AD0301950294A1
:1005F0006946CF4803F034FA80200002009001954C
:1006000002946946300003F02BFA002203210520F2
:1006100003F003FA052003F00AFA00220321062062
:1006200003F0FBF9062003F002FA00220321072061
:1006300003F0F3F9072003F0FAF906B070BD00B536
:100640000020010089B2BB4A914201DA401CF8E760
:1006500000BD000000040040002000401027000002
:100660000044014000B501000800C0B200280ED0CF
:10067000022824D017D3042839D02CD306284ED0F2
:1006800041D3082863D056D309286CD076E00020E7
:10069000CB4A1080012353809380D38013815381F0
:1006A0009381D0816AE00020C54A108050809080FC
:1006B000D0801081012353819381D0815EE0C04AB4
:1006C00001231380538000209080D38013815081B8
:1006D0009381D08152E0BA4A0123138000205080D8
:1006E0009080D380138153819381D08146E0B44AB6
:1006F00001231380002050809380D080108153818B
:100700009381D0813AE0AE4A0123138000205080CB
:100710009380D380138153819081D0812EE0A84AA9
:100720000120108050809080D08010815081002066
:100730009081D08122E00020A14A108050809080DA
:10074000D0800123138153819381D08116E09C488E
:100750000122028042808280C280028142818281A5
:100760000022C2810AE0964A0123138000205080B3
:100770009380D380138153819381D081904800BDB1
:10078000E80100200048014014100240380C00002D
:10079000F1B582B00C00642768460089390003F087
:1007A00097FA69460870684600780A281DDA684694
:1007B0000078FFF757FF00210A001300DBB2082B77
:1007C0004EDA804B2500EDB21600F6B2AD19595540
:1007D0002500EDB21600F6B2AD195B191500EDB2A9
:1007E0006D00455B1D72521CE7E70A2668460078DB
:1007F000310003F06DFAC0B2FFF734FF019000251D
:1008000028000100C9B208290FDA01990200D2B20A
:1008100052008B5A6B4A94462200D2B20100C9B2F0
:10082000511862465354401CEBE76846007831008B
:1008300003F04EFA0800C0B2FFF714FF2900C9B256
:1008400008290DDA5F492200D2B22B00DBB2D218A0
:1008500089182A00D2B25200825A0A726D1CEDE742
:10086000584D01202100C9B26918C8736846008933
:10087000390003F02DFA6846417068464078002838
:100880001CD10020FFF7EEFE00210A001300DBB2AE
:10089000082B4BDA2300DBB21600F6B29B19EB18DB
:1008A0001600F6B27600865B1E742300DBB21600DB
:1008B000F6B29B19EB181976521CE7E70A2768462F
:1008C0004078390003F004FAC0B2FFF7CBFE019084
:1008D000002630000100C9B208290DDA2100C9B292
:1008E0000200D2B289186A1801990300DBB25B00DA
:1008F000C95A1174401CEDE768464078390003F08E
:10090000E7F90800C0B2FFF7ADFE3100C9B208290F
:100910000CDA2100C9B23200D2B28918691832004B
:10092000D2B25200825A0A76761CEEE7F7BD00007A
:100930000004004811270000F1B582B00024200017
:10094000C0B202283ADA0A2668460089310003F06C
:10095000BFF9C0B2FFF786FE009000273800010003
:10096000C9B208290CDA00990200D2B25200895AA1
:10097000144A0300DBB2D2184023D154401CEEE7E6
:10098000104D01204721685468460089310003F06A
:100990009FF90800C0B2FFF765FE3900C9B2082907
:1009A0000ADA3900C9B24900415A3A00D2B2AA184B
:1009B0004823D1547F1CF0E7641CC0E7F7BD00005A
:1009C000E402002018000020F1B584B00498AA4980
:1009D000884201D000F096FC049800F001FEA74C7C
:1009E000A74D207828180079012800D019E30821A4
:1009F000A44803F018F900280AD1A3482178490037
:100A000041182278520080184088401C48800EE32C
:100A10009E489D49227852008A18528803889A423B
:100A200000D23DE1002002002378EB181A712278F1
:100A30005200891848802078002844D1A84881882D
:100A4000934A1170934D0421405E00122870924F1A
:100A5000FA26B6000296012001908D4800900123ED
:100A60001E22A021380002F09FF9FFF7E8FD029650
:100A700001200190009501231F22A021380002F0DF
:100A800093F9FFF7DCFD85488188814A11700421C4
:100A9000405E001228700296012001907C48009070
:100AA00001232022A021380002F07EF9FFF7C7FDC4
:100AB000029601200190009501232122A0213800F7
:100AC00002F072F9B3E22078012844D18448818889
:100AD0006F4A11706F4D0421405E001228706E4FF6
:100AE000FA26B60002960120019069480090012381
:100AF0000A22A021380002F057F9FFF7A0FD029664
:100B000001200190009501230B22A021380002F062
:100B10004BF9FFF794FD614881885D4A117004210B
:100B2000405E001228700296012001905848009003
:100B300001230C22A021380002F036F9FFF77FFDD7
:100B4000029601200190009501230D22A02138007A
:100B500002F02AF96BE22078022844D160488188AB
:100B60004B4A11704B4D0421405E001228704A4FD1
:100B7000FA26B60002960120019045480090012314
:100B80001422A021380002F00FF9FFF758FD029659
:100B900001200190009501231522A021380002F0C8
:100BA00003F9FFF74CFD3D488188394A1170042153
:100BB000405E001228700296012001903448009097
:100BC00001231622A021380002F0EEF8FFF737FDCE
:100BD000029601200190009501231722A0213800E0
:100BE00002F0E2F823E22078032800D01FE23C481C
:100BF0008188274A1170274D0421405E0012287019
:100C0000254FFA26B6000296012001902048009058
:100C100001232822A021380002F0C6F8FFF70FFDBB
:100C2000029601200190009501232922A02138007D
:100C300002F0BAF8FFF703FD18488188144A1170D2
:100C40000421405E00122870029601200190104895
:100C5000009001232A22A021380002F0A5F8FFF716
:100C6000EEFC029601200190009501232B22A02189
:100C7000380002F099F8DAE1580100203A03002028
:100C8000F4020020000400480C03002008000020AB
:100C90003B0300203C0300207C000020CC0200200D
:100CA000227852008A185288DA4B1B889A4200D266
:100CB000B2E1227852008A1852880088824200D31A
:100CC000AAE1002002002378EB181A712278520062
:100CD000891848802178002967D1014D02E000BFC2
:100CE000B40200200521E970DD4902005123CA54F5
:100CF00002005223CA5401225323CA545422885456
:100D0000D84FFA2080000290012001900097012323
:100D10001E22A021D44802F019F9D44EFA208000F6
:100D2000029001200190009601231F22A021CE48AD
:100D300002F00CF93878317809020143A9800420C7
:100D4000285EA98A02F0C4FFDF49096848630420CD
:100D5000285EDE4909684862FA208000029001207E
:100D60000190009701232022A021BF4802F0EEF855
:100D7000FA20800002900120019000960123212298
:100D8000A021B94802F0E2F8DE4839783278120240
:100D90000A4382800421415EDB4A126851630421C8
:100DA000405EDA490968486241E12178012963D14E
:100DB000D74D0321E970AA4901225123CA540200E8
:100DC0005223CA5402005323CA5454228854A54FB4
:100DD000FA208000029001200190009701230A224E
:100DE000A021A14802F0B2F8A04EFA2080000290A3
:100DF00001200190009601230B22A0219A4802F0C5
:100E0000A5F83878317809020143A9800420285ECA
:100E1000A98A02F05DFFAC49096848630420285E96
:100E2000AA4909684862FA208000029001200190D6
:100E3000009701230C22A0218B4802F087F8FA20AA
:100E40008000029001200190009601230D22A02134
:100E5000854802F07BF8AB483978327812020A43B1
:100E600082800421415EA84A126851630421405ED9
:100E7000A64909684862DAE02178022963D1A44DC5
:100E80000421E970764902005123CA5401225223F9
:100E9000CA5402005323CA5454228854714FFA2072
:100EA0008000029001200190009701231422A021CC
:100EB0006D4802F04BF86D4EFA2080000290012040
:100EC0000190009601231522A021674802F03EF808
:100ED0003878317809020143A9800420285EA98A64
:100EE00002F0F6FE7849096848630420285E7749D5
:100EF00009684862FA208000029001200190009762
:100F000001231622A021584802F020F8FA20800080
:100F1000029001200190009601231722A02152483F
:100F200002F014F877483978327812020A43828046
:100F30000421415E744A126851630421405E734982
:100F40000968486273E02178032970D1704D062149
:100F5000E970434902005123CA5402005223CA5483
:100F6000532288540120542288543E4FFA20800096
:100F7000029001200190009701232822A0213A48E5
:100F800001F0E4FF394EFA20800002900120019028
:100F9000009601232922A021334801F0D7FF387899
:100FA000317809020143A9800420285EA98A02F051
:100FB0008FFE4549096848630420285E4349096853
:100FC0004862FA20800002900120019000970123DE
:100FD0002A22A021244801F0B9FFFA2080000290C3
:100FE00001200190009601232B22A0211E4801F030
:100FF000ADFF44483978327812020A4382800421D6
:10100000415E414A126851630421405E3F490968CC
:1010100048620CE00A00002000202178691808715D
:1010200005E00020B8492278520089184880B74D61
:101030002078285C012800D0BDE0802109029020A2
:10104000C00502F0F0FD002812D1B1482178490016
:1010500041182278520080184088401C4880B0E037
:10106000180000203D0300207C0000203E030020EB
:10107000A748A84922785200821852880B889A42C1
:1010800053D300210A002378EA54227852008018B2
:101090004180207800281BD11D488278012A07D181
:1010A0000A0082709C4A1170C8210902418288E0BE
:1010B0008178002900D084E001210A008270964ADC
:1010C0001170818841827CE0E8010020100100203D
:1010D000207801281ED10B488278012A07D10A0006
:1010E00082708E4A1170C8210902418269E08178BC
:1010F000002966D101210A008270884A1170818816
:1011000041825EE0CC020020A0010020C800002047
:10111000B40200202078022806D1B8485721415C4B
:10112000CA43572142544CE04BE0227852008218C7
:1011300052887B4B1B889A4243D3227852008218F4
:10114000528809888A423CD2002631002278A9546C
:1011500021784900401846802078002831D0207836
:10116000012810D1A64DE88900282AD0A8780128A6
:1011700027D10420285EA98A02F0AAFDA1490968A6
:101180004863EE811DE0207802281AD020780328D9
:101190000ED19D480188002913D062498A78012A1E
:1011A0000FD10422895E994A12685163068008E0D3
:1011B00020782E5405E000205549227852008918E5
:1011C00048802078032807DB002020709E480168B3
:1011D0009E4A0A40026008E02078401C20709A482D
:1011E00001688022D20089180160994C2088401C37
:1011F00020802088C42866DB002020809024E4051D
:1012000001221021200002F01BFD1021200002F01D
:101210000AFD0028F9D000221021200002F010FD64
:10122000774CA078002802D0E089002805D1202141
:1012300088480088FFF7ACFA18E0E08986490988F9
:1012400088420DD30420205E042102F041FDA081DC
:101250002021A089FFF79CFAE089401EE08105E08B
:10126000E089002802D0E089401EE0812D48817885
:10127000002903D0644C2188002905D1002175483C
:101280004088FFF785FA19E02188734A1288914255
:101290000ED3A64D0421405E042102F019FD2880E2
:1012A00000212888FFF774FA2088401E208005E07E
:1012B0002088002802D02088401E20806548808831
:1012C000FFF73AFB1BE02078C00712D49025ED050C
:1012D00000222021280002F0B3FC48482188491050
:1012E0004A4280186121425C0821280002F0A8FCD3
:1012F00005E0012220219020C00502F0A1FC049805
:1013000000F087F905B0F0BD0C03002000030020B9
:1013100018030020080000206D0000206E0000204F
:101320000A000020CC02002030B5040001208049D2
:10133000088033490220C8700020304A030051253C
:1013400053550300522553550300532553550300AD
:1013500054255355774A944227D10A1D23685B6A66
:1013600013803D4B1B88CB814B8A0A3304254D5F8C
:10137000AB4206DA488A10800420085E2268506278
:1013800007E00423CB5E002B03D503001380226803
:1013900050628878002830D10420085E898A02F0E3
:1013A00097FC18490968486327E063498C4224D1B7
:1013B00062490A1D23685B6A1380274B1B88124D04
:1013C0002B804B8A04254D5FAB4206DA488A108099
:1013D0000420085E2268506207E00423CB5E002BE5
:1013E00003D503001380226850628878002804D156
:1013F0000420085E05490968486330BD18000020D4
:10140000B4020020E801002036030020A0010020E3
:1014100000B54B498A78012A08D14A8A0D4B1B88AE
:101420009A4203D20022474B1A700A74434A9378B7
:10143000012B08D1528A074B5B889A4203D20022C3
:10144000404B1A700A7400BD14000048FFF30000FE
:1014500030030020240300200C000020F8B5070012
:1014600000252C00380080B2082817D12800C0B20F
:10147000642808DA0821344802F0D5FB002800D19E
:10148000641C6D1CF2E72000C0B255284DDB012022
:101490002E492F4A12788918087146E080263602B4
:1014A0003800310080B2884217D12800C0B26428C9
:1014B00009DA31009020C00502F0B5FB002800D108
:1014C000641C6D1CF1E72000C0B255282DDB012003
:1014D00020491F4A1278885427E0380080B2022839
:1014E00023D12E003000C0B2642808DA0221164849
:1014F00002F099FB002800D1641C761CF2E7200062
:10150000C0B2552811DB0E48017C002907D11249D1
:1015100001225923CA545823CA54027405E00E49C3
:1015200059228D5458228D540574F1BD3803002082
:101530003403002010010020C8000020CC0200204D
:10154000B40200207100002000040048F4020020D2
:101550003A030020000300201800002000B572B6F6
:10156000FEE7FEE780B50648016810220A430260E4
:10157000002002F007FC02F037F8002002BD000056
:101580000020024010B50400002C01D1012026E00B
:101590003D20205C002805D100203C216054200023
:1015A00002F024F902203D216054211D206800F042
:1015B0005FFB0120462160543E2160543F2160546E
:1015C00040216054412160544221605443216054C1
:1015D00044216054452160543D216054002010BDD9
:1015E00000B501000868006A204A0240002A0BD1B9
:1015F0000868006A1E4A0240002A05D1086800688F
:10160000012290430A68106001203D228854002086
:1016100000BD10B501003D20085C012801D001206B
:1016200023E002203D23C85401200B68DB680343FC
:101630000C68E3600B680F4CA34203D00B680E4CA0
:10164000A3420CD10B689B685B075B0F1A00062A4C
:101650000AD00B681B6818430B68186004E00B681D
:101660001B6818430B681860002010BD11110000A2
:1016700044040000002C01400004004010B50400A8
:10168000002C01D1012026E03D20205C002805D15E
:1016900000203C216054200002F06EF802203D2121
:1016A0006054211D206800F0E3FA012046216054B7
:1016B0003E2160543F2160544021605441216054D8
:1016C00042216054432160544421605445216054B8
:1016D0003D216054002010BD70B504000D00002DA8
:1016E00002D13E20205C0BE0042D02D13F20205C83
:1016F00006E0082D02D14020205C01E04120205C62
:10170000012801D0012052E0002D04D102203E2109
:101710006054C0B211E0042D04D102203F21605476
:10172000C0B20AE0082D04D1022040216054C0B2AA
:1017300003E0022041216054C0B201222900206848
:1017400000F0B4FB1A482168814207D02168194A89
:10175000914203D02168184A914201D1012100E051
:101760000021C9B2002906D02168496C80221202EA
:101770000A4321684A642168814203D020680F49E6
:1017800088420DD1206880684007400F0600062E71
:101790000CD020680068012101432068016005E049
:1017A000206800680121014320680160002070BDAD
:1017B000002C01400044014000480140000400406A
:1017C00070B504000D00002C01D1012059E03D202E
:1017D000205C002805D100203C216054200001F04D
:1017E0008DFF02203D21605420688068254901401A
:1017F00020688160211D206800F03AFA2068836823
:10180000206882692068006A296819431E4B1340CA
:10181000AE681E43AA69120232431C4B13401C4A95
:101820001A40EB681343EA6912021A432B691B0141
:1018300013432A6A12031A432223984388239843A6
:101840006E6806436869030133432068816020683D
:101850008261206803620126462026543E202654D9
:101860003000C0B23F2026543000C0B2422026547F
:101870003000C0B2432026543000C0B23D20265470
:10188000002070BDF8BFFFFFFCFCFFFFF3F3FFFF7C
:101890000F0FFFFFF8B504000D003E20205C6946E5
:1018A00048703F20205C694608704220275C432036
:1018B000265C002D12D168464078012803D13800FB
:1018C000C0B2012801D001207AE0022001003E22AE
:1018D000A154C9B242216054C0B236E0042D12D1E5
:1018E00068460078012803D13000C0B2012801D039
:1018F000012065E0022001003F22A154C9B243212A
:101900006054C0B221E06846407801280BD1684697
:101910000078012807D13800C0B2012803D1300077
:10192000C0B2012801D001204AE0022001003E227D
:10193000A154C9B201003F22A154C9B20100422200
:10194000A154C9B243216054C0B22800002802D07B
:1019500004280CD017E001220021206800F0A6FA2C
:101960002068C068022101432068C16021E0012293
:101970000421206800F09AFA2068C068042101431D
:101980002068C16015E001220021206800F08EFA75
:1019900001220421206800F089FA2068C068022131
:1019A00001432068C1602068C068042101432068A9
:1019B000C1602068006801210143206801600020A7
:1019C000F2BD70B50400022620680069304000288E
:1019D0001CD02068C0683040002817D00220C043C7
:1019E0002168086101202077206880698007800FC6
:1019F000002803D02000FFF797FC05E0200002F04C
:101A0000E9F9200002F0E7F900202077042520689A
:101A10000069284000281CD02068C06828400028A1
:101A200017D00420C04321680861267720688069A8
:101A3000C02189000140002903D02000FFF774FC79
:101A400005E0200002F0C6F9200002F0C4F90020F1
:101A50002077082620680069304000281BD02068C5
:101A6000C0683040002816D00820C04321680861B3
:101A700025772068C0698007800F002803D02000E8
:101A8000FFF752FC05E0200002F0A4F9200002F06C
:101A9000A2F900202077102021680969014000295F
:101AA0001CD02168C9680840002817D01020C04306
:101AB0002168086126772068C069C021890001403B
:101AC000002903D02000FFF72FFC05E0200002F0E2
:101AD00081F9200002F07FF90020207701202168A1
:101AE0000969014000290BD02168C9680840002815
:101AF00006D00120C043216808612000FEF764FF82
:101B0000802021680969014000290BD02168C9683B
:101B10000840002806D08020C043216808612000CA
:101B200002F05AF9402021680969014000290BD0D0
:101B30002168C9680840002806D04020C0432168B9
:101B40000861200002F049F920202168096901405C
:101B500000290BD02168C9680840002806D0202041
:101B6000C04321680861200002F038F970BDF4B567
:101B700004000E0000252F003C20205C012801D12C
:101B8000022071E001203C2160540099002906D018
:101B900004291BD0082932D00C2947D05FE031003E
:101BA000206800F09AF820688069082101432068C5
:101BB00081612068806904218843216888612068E8
:101BC0008069316901432068816149E03100206802
:101BD00000F0BBF82068806980210901014320687A
:101BE0008161206880692149014020688161206805
:101BF00080693169090201432068816130E0310068
:101C0000206800F0D9F82068C069082101432068E5
:101C1000C1612068C069042188432168C8612068C7
:101C2000C069316901432068C16119E03100206851
:101C300000F0F7F82068C06980210901014320689D
:101C4000C1612068C069094901402068C1612068FC
:101C5000C0693169090201432068C16100E00700E1
:101C60003C2025543800C0B2F2BD0000FFFBFFFF4E
:101C700010B503687F4A904202D07F4CA04204D145
:101C80007024A3431C004B68234390420BD07A4C32
:101C9000A04208D0794CA04205D0794CA04202D095
:101CA000784CA04203D1784C1C40CB68234380245D
:101CB000A3434C691C4304608B68C3620B68836256
:101CC000904205D06E4A904202D06E4A904201D1B5
:101CD0000A6902630122426110BD70B5026A0123E4
:101CE0009A430262056A436884697022944303221E
:101CF00094430A6822430224A5438C682C435D4D1B
:101D0000A84205D05E4EB04202D05E4EB04206D12F
:101D10000826B4432600CC6834430426B443A842C2
:101D200005D0574DA84202D0564DA84207D1574D75
:101D30001D40594B2B404D691D438B692B4343601C
:101D400082614D684563046270BD70B5026A1023FC
:101D50009A430262036A426884694D4D25404A4EA7
:101D60002E400C68240234432025AB438D682D019E
:101D70001D43404B984207D18026B5432E00CD68C5
:101D80002D0135434026B543984205D03C4B98423F
:101D900002D03C4B984209D13E4B13403F4A1A4077
:101DA0004B699B0013438A6992001A434260846125
:101DB0004B688363056270BDF0B5026A334B134014
:101DC0000362046A4268C56970239D4303239D43EF
:101DD0000B682B43304D25408C6824022C43254D45
:101DE000A84206D12D4E2640CC6827023743294C05
:101DF0003C40A84205D0224DA84202D0214DA84225
:101E000009D1274D1540274A2A404D692D01154318
:101E10008A6912012A434260C3614D68C563046246
:101E2000F0BD70B5026A1E4B13400362036A42683C
:101E3000C469174D2540144E2E400C6824023443CB
:101E4000184D1D408B681B032B430A4DA84205D03B
:101E50000B4DA84202D00B4DA84204D1124D1540A3
:101E60004A6992012A434260C4614D680564036275
:101E700070BD0000002C0140000400400020004024
:101E80000044014000480140FFFCFFFFFFFEFFFF50
:101E9000FF8FFFFFFFFBFFFFFFFDFFFFFFF7FFFFD0
:101EA000FFEFFFFFFFDFFFFFFFBFFFFF70B41F2348
:101EB00001240D001D40AC40056AA5430562056A7A
:101EC0000E00334016009E402E43066270BC7047E1
:101ED000FEB5040000252F00019500953420205CFC
:101EE000012801D102205EE0012630003421605437
:101EF000032021688968014001290AD12168096805
:101F00003140002903D12168C968090401D5310095
:101F100000E0290000293DD1A16B234A0A4002219B
:101F20001143A1632168C968084000902068C06817
:101F3000032188432168C8602068806880210906E1
:101F400001432068816001F04BFF019020688068A8
:101F5000002813D501F044FF0199401A0328F5D356
:101F6000206880680028F1D5A06B022188431021E9
:101F70000143A16334202554012014E02068C06887
:101F8000009901432068C160A06B02218843064389
:101F9000A66304E0A06B20210143A1633700342035
:101FA00025543800C0B2FEBDFFFEFFFFF8B50400A7
:101FB00000252F002E00002C01D10120CCE0A06BC9
:101FC000002806D1E563280034216054200001F088
:101FD00021FB1020A16B0140002900D0B5E00422B4
:101FE000216889681140002900D0AEE0A36B5B49ED
:101FF000194002230B43A363216889688907890F6D
:1020000001290AD1012123681B680B40002B03D151
:102010002368DB681B0400D500E0290000290FD1EC
:102020002168C96818239943A3680B432168CB60D2
:10203000216809698B009B0861681943236819614D
:102040002168CB68464919402368D960A16A0129F3
:1020500002D08021490100E029002369022B00D031
:102060002A00237E9B033343667EF6031E43A37E32
:102070005B0333431943E3680B431A432421615C38
:102080004E001643E17E01290FD1A17E002904D123
:102090003100802676020E4307E0A16B20220A431E
:1020A000A263E16B01220A43E263E169FF22C232CB
:1020B000914203D0E1693143266A0E432168C96821
:1020C00031432268D160E16A80225205914214D0E6
:1020D000E16A012911D0E16A02290ED0E16A0329DF
:1020E0000BD0E16A042908D0E16A052905D0E16A2C
:1020F000062902D0E16A07290ED121684969072221
:10210000914322685161216849692C22A25C5207DF
:10211000520F0A4321684A612168C968114A0A407E
:10212000B24207D1E563A06B02218843012101433C
:10213000A1630FE0A16B022291430843A063012039
:10214000E16B0143E163070004E0A16B0843A06376
:10215000012007003800C0B2F2BD0000FFFEFFFF03
:102160001902FEFFE7FF3F83F7B5040000252800B2
:10217000694608700427206880683840002844D1E8
:102180003420205C012801D1022043E001263000E8
:1021900034216054607E012804D0200000F0F0F863
:1021A0006946087068460078002831D1A06B1A494A
:1021B0000140802040000843A063E563342025549B
:1021C0001648216B88621648216BC8621548216B3E
:1021D00008631C20216808602068406810210143C2
:1021E000206841602068C06806432068C660029B82
:1021F000019A206801004031206B01F023FE206825
:10220000806807432068876002E002206946087002
:1022100068460078FEBD0000FEF1FFFF452400087F
:10222000C9240008D7240008F8B504000D000027D1
:102230003E00009780214905E06A884213D0E06A99
:10224000012810D0E06A02280DD0E06A03280AD0E5
:10225000E06A042807D0E06A052804D0E06A06286E
:1022600001D0E06A07283420205C012801D1022037
:1022700085E0012210003423E05420688068400784
:1022800074D468686B4B984256D02068806A2B687B
:102290009A40024320688262E06A884228D0E06A5D
:1022A000012825D0E06A022822D0E06A03281FD046
:1022B000E06A04281CD0E06A052819D0E06A0628E4
:1022C00016D0E06A072813D00720A968226852694F
:1022D000024091420CD0216849690722914322684B
:1022E000516121684969AA68104008432168486122
:1022F0002868102802D0286811283CD128681028A6
:1023000002D18020000401E08020C0034A490A680D
:1023100010430860286810282DD1484800684849B3
:1023200001F0D9FC0A21484300900098002822D0EF
:102330000098401E0090F8E72068806A29688A406B
:102340009043216888622868102802D028681128E4
:1023500011D12868102802D18021090401E08021D0
:10236000C903354802688A43026004E0A06B20215B
:102370000143A1631600342027543000C0B2F2BDDF
:102380007CB5040000200600009021688968890758
:10239000890F01290BD10121226812680A40002A05
:1023A00003D12268D268120401D50800FFE7002893
:1023B0003DD12068806842490140002909D0A06BC6
:1023C00010210143A163E06B01210143E16301207E
:1023D0002EE001252068806828432168886017481E
:1023E0000068174901F077FC00900098002803D09E
:1023F0000098401E0090F8E701F0F2FC060020680B
:1024000000682840002812D101F0EAFC801B032854
:10241000F5D32068006828400028F0D1A06B102177
:102420000143A163E06B0543E563012000E0002068
:1024300076BD0000011000000827014004000020C4
:1024400040420F0038B50400656AA86B5021014076
:1024500000292FD1A86B802189000143A963286836
:10246000C068C0210901014000291FD1A87E0028B1
:102470001CD128680068000718D5286880684007C4
:102480000CD4286840680C21884329684860A86BF0
:102490000C49014001200843A86307E0A86B2021F4
:1024A0000143A963E86B01210143E9632800FEF7BA
:1024B000AFFF03E02000296B096B884731BD0000A6
:1024C00017000080FFFEFFFF38B50400656A280092
:1024D00001F090FD31BD38B50400656AA86B40215C
:1024E0000143A963E86B04210143E963280001F07B
:1024F00082FD31BD10B5040008001100020020006B
:1025000001F07AFD200010BDF8B584B00400002C65
:1025100001D101204AE22078C00766D50C20B449D9
:102520000A680240042A09D00A68104008280ED11F
:102530008020400209680140814208D1AD4800680E
:10254000800352D5606800284FD101202EE26068D8
:10255000012806D1A7480168802252020A4302607E
:1025600024E06068002809D1A2480168A24A0A4014
:1025700002600168A14A0A40026017E0606805280D
:102580000BD19C4801688022D2020A430260016894
:10259000802252020A43026008E096480168964A87
:1025A0000A4002600168954A0A400260606800289B
:1025B0000DD001F015FC05008E480068800314D48E
:1025C00001F00EFC401B6528F6D30320EEE101F07C
:1025D00007FC050087480068800306D501F000FC71
:1025E000401B6528F6D30320E0E102262068304036
:1025F00000284FD00C207E490A680240002A06D0ED
:102600000A681040082814D10868C00311D479481A
:1026100001683140002904D0E168012901D001207E
:10262000C4E10168F82291432269D2000A430260A2
:1026300030E0E06800281AD06E4F3868012101436D
:10264000396001F0CDFB050038683040002806D124
:1026500001F0C6FB401B0328F6D30320A6E138682F
:10266000F82188432169C9000143396012E0614FB4
:10267000386801218843386001F0B2FB05003868F2
:102680003040002806D001F0ABFB401B0328F6D3F6
:1026900003208BE12078000728D5E069002812D0BC
:1026A000C34F386801210143396001F099FB0500EF
:1026B00038683040002819D101F092FB401B0328F4
:1026C000F6D3032072E1BA4F38680121884338609D
:1026D00001F086FB050038683040002806D001F084
:1026E0007FFB401B0328F6D303205FE1042720680B
:1026F0003840002800D18CE0002069460870802016
:102700004005AC490968014000290AD1A9490A6875
:1027100002430A6009680840039003980120694653
:102720000870A5480068C00514D4A348006880213B
:1027300049000143A048016001F052FB05009E489A
:102740000068C00506D401F04BFB401B6528F6D39A
:1027500003202BE1A068012805D1984801680122D7
:102760000A43026021E0A068002809D1934801686B
:10277000012291430160016804229143016014E049
:10278000A068052808D18D480168394301600168B7
:1027900001220A43026008E088480168012291434F
:1027A00001600168042291430160A06800280FD0F5
:1027B00001F016FB050081480068304000281FD159
:1027C00001F00EFB401B7E498842F4D30320EDE06C
:1027D00001F006FB050079480068304000280FD062
:1027E00001F0FEFA401B76498842F4D30320DDE075
:1027F0000410024000100240FFFFFEFFFFFFFBFF3E
:1028000068460078012804D16A4801686D4A0A4088
:1028100002602078C00650D56069012822D1B448F2
:1028200000680743B2480760B148006801210143CE
:10283000AF48016001F0D4FA0500AD4800683040AF
:10284000002806D101F0CCFA401B0328F5D3032061
:10285000ACE0A7480168F8229143A269D2000A437C
:1028600002602AE00421C943606988420BD1A04874
:102870000268114001600168F8229143A269D20008
:102880000A43026019E09A480068074398480760C5
:1028900097480068012188439549086001F0A0FA33
:1028A0000500934800683040002806D001F098FAEF
:1028B000401B0328F5D3032078E0206A002874D059
:1028C0008C4800680C21014008294DD0206A02285C
:1028D00038D1894F386889490140396001F080FA60
:1028E00000908026B60438683040002807D001F0F8
:1028F00077FA0099401A0328F3D3032056E09E4844
:1029000001680F229143E26A0A4302607948016834
:102910007B4A0A40A16A1143626A0A43026038682E
:10292000802149040143396001F05AFA05003868F2
:102930003040002839D101F053FA401B0328F6D368
:10294000032033E06C4E30686C490140316001F087
:1029500047FA05003068800127D501F041FA401B95
:102960000328F7D3032021E0206A012801D10120A8
:102970001CE06048006801907F4800680290019860
:10298000802149020840616A88420CD10298000700
:10299000000FE16A884206D10198F02189030140C5
:1029A000A06A814201D0012000E0002005B0F0BD06
:1029B000241002401C100240007000402010024011
:1029C00089130000FFFFFFEFF3B581B00400002C76
:1029D00001D101208BE00125684E30682840029922
:1029E00088420CD23068012188430299014331604A
:1029F000306828400299884201D0012077E0022007
:102A00002168014000290FD02178490705D53949AF
:102A10000A68E023DB0013430B6036490A68F023A1
:102A20009A43A36813430B6021682940002932D0E0
:102A30006168012905D130480068800311D4012064
:102A400055E06168022905D12B480068800108D44F
:102A500001204CE0284909680840002801D10120E4
:102A600045E0244F38680321884361680143396099
:102A700001F0B6F9009038680C21014060688000D0
:102A8000814208D001F0ACF90099401A3C498842D3
:102A9000F1D303202BE002983168294088420CD200
:102AA0003068012188430299014331603068054054
:102AB0000298854201D0012019E02078400706D510
:102AC0000C4801682F4A0A40E1681143016000F098
:102AD00019F82D49074A126812091207120F895C6A
:102AE000C8402A490860002001F04CF90020FEBDD2
:102AF000341002400410024000100240FFFFFFFEAD
:102B0000FFFFC2FFF0B589B005A82149102201F0EE
:102B10009BFA01A81F49102201F096FA0024200018
:102B20000094250026001C490F680C213940042917
:102B300002D0082902D01BE018481AE00F2005A98E
:102B4000BA0C0240895C0E0001A90B4A12681040C1
:102B5000085C0090F80306D51048009901F0BBF816
:102B60007043050002E00E4870430500280000E0B5
:102B70000A4809B0F0BD00002C10024000200240BD
:102B800089130000FFF8FFFF5443000804000020F1
:102B900034430008444300080410024000127A0045
:102BA00000093D00F8B584B00700002002900190B4
:102BB0008024640239682140002964D06946087085
:102BC000802040053B4D29680140002909D1296832
:102BD0000143296029680840039003980120694651
:102BE0000870354E3068C00512D430688021490025
:102BF0000143316001F0F4F802903068C00507D459
:102C000001F0EEF80299401A6528F6D303204FE050
:102C1000C0208000294E31680140019101990029AE
:102C200023D001997A68104081421ED0306824492F
:102C3000014001913068044334603068214901400B
:102C40003160019830600198C0070ED501F0C8F8D6
:102C500002903068800708D401F0C2F80299401A47
:102C600019498842F5D3032022E030681449014015
:102C700078680843306068460078012803D12868E6
:102C80001249014029603878C00706D5104801680C
:102C900003229143BA680A4302603878800606D559
:102CA0000B48016810229143FA680A430260002031
:102CB00005B0F0BD1C100240007000402010024022
:102CC000FFFCFFFFFFFFFEFF89130000FFFFFFEF88
:102CD0003010024010B50400002C01D101205BE04F
:102CE0004120205C002805D10020402160542000B4
:102CF00000F0D4FC242041216054206800680121A8
:102D000088432168086060682449014020680161A7
:102D1000234821688968014022689160E16801299F
:102D200006D1A168802212020A4321688A6005E068
:102D3000A168842212020A4321688A60E16802299C
:102D400003D1802109012268516021684968154A30
:102D50000A4321684A602168C96808402168C86040
:102D6000206961690143A069000208432168C860C5
:102D7000E069216A01432068016020680068012140
:102D80000143206801600020606420214122A15499
:102D9000206342216054002010BD0000FFFFFFF0BF
:102DA000FF7FFFFF00800002FEB582B004000F002D
:102DB0004120205C202800D0C5E00A98002803D0DC
:102DC0006846808D002804D1802080006064012046
:102DD000BAE04020205C012801D10220B4E00120AB
:102DE0004021605400F0FCFF0600009619230122E8
:102DF00080210902200000F01FFA002801D00120E4
:102E0000A2E021204121605440204221605400254D
:102E100065640A9860626846808D60856563019686
:102E20000C9800906846038A68468289390089B206
:102E3000200000F065F9002803D04020255401202F
:102E400082E0608DFF280DD9FF20208500200090B2
:102E500080235B04228DD2B2390089B2200000F0B9
:102E6000BCFA0CE0608D20850020009080239B043C
:102E7000228DD2B2390089B2200000F0AEFA3200C1
:102E80000C99200000F004FA002801D001205BE03A
:102E9000606A007821688862606A401C60629548B8
:102EA000618D09186185218D08182085608D0028A5
:102EB0002BD0208D002828D100960C9B0022802149
:102EC000200000F0B9F9002801D001203CE0608D1D
:102ED000FF280DD9FF2020850020009080235B046F
:102EE000228DD2B2390089B2200000F076FA0CE0CF
:102EF000608D20850020009080239B04228DD2B21B
:102F0000390089B2200000F068FA608D0028B6D13F
:102F100032000C99200000F0E7F9002801D00120D0
:102F200012E020202168C86121684968724A0A407D
:102F300021684A60412160542800422160544020A9
:102F40002554002000E0022005B0F0BDFEB582B09F
:102F500004000F004120205C202800D0C7E00A9820
:102F6000002803D06846808D002804D1802080008E
:102F700060640120BCE04020205C012801D10220D7
:102F8000B6E001204021605400F02AFF06000096C0
:102F90001923012280210902200000F04DF90028A8
:102FA00001D00120A4E02220412160544020422190
:102FB0006054002565640A9860626846808D60856B
:102FC000656301960C9800906846038A684682897A
:102FD000390089B2200000F0D6F8002803D0402044
:102FE0002554012084E0608DFF280DD9FF20208525
:102FF0004248009080235B04228DD2B2390089B20E
:10300000200000F0EAF90CE0608D20853B4800903C
:1030100080239B04228DD2B2390089B2200000F0B7
:10302000DCF900960C9B00220421200000F004F93A
:10303000002801D001205BE02068406A616A0870C6
:10304000606A401C60622B48218D09182185618DC2
:1030500008186085608D00282BD0208D002828D18D
:1030600000960C9B00228021200000F0E5F800284B
:1030700001D001203CE0608DFF280DD9FF20208584
:103080000020009080235B04228DD2B2390089B2E7
:10309000200000F0A2F90CE0608D20850020009057
:1030A00080239B04228DD2B2390089B2200000F027
:1030B00094F9608D0028B4D132000C99200000F002
:1030C00013F9002801D0012012E020202168C861F6
:1030D00021684968084A0A4021684A6041216054D1
:1030E00028004221605440202554002000E00220A6
:1030F00005B0F0BDFFFF000000E800FE00240080E6
:10310000FBB504001700089E099D404800908023ED
:103110005B0468460289D2B268468188200000F0CC
:103120005CF92A003100200000F0B2F8002801D03C
:10313000012027E068460089012804D13800C0B288
:103140002168886212E0380080B2000AC0B22168AB
:1031500088622A003100200000F09AF8002801D08F
:1031600001200FE03800C0B221688862009533006A
:1031700000228021200000F05FF8002801D001200B
:1031800000E00020FEBDFBB504001700089E099D6D
:103190001E480090002368460289D2B268468188A2
:1031A000200000F01AF92A003100200000F070F829
:1031B000002801D0012027E068460089012804D1B9
:1031C0003800C0B22168886212E0380080B2000A7C
:1031D000C0B2216888622A003100200000F058F84F
:1031E000002801D001200FE03800C0B221688862B9
:1031F0000095330000224021200000F01DF8002837
:1032000001D0012000E00020FEBD00000020008071
:1032100000B501688969890702D5002102689162B9
:103220000121026892690A40002A04D10268926969
:1032300011430268916100BDF4B504000F001D0048
:10324000069E206880693840B84201D1012000E024
:10325000002069460978884218D10020C043854281
:10326000EFD000F0BDFD801B854201D3002DE8D1D9
:103270002020616C01436164412160540020010001
:103280004222A15440216054012000E00020F2BD00
:1032900070B504000D00160020688069800721D4F5
:1032A00032002900200000F048F8002801D0012059
:1032B00019E00020C0438542EED000F091FD801B54
:1032C000854201D3002DE7D12020616C0143616468
:1032D00041216054002001004222A1544021605449
:1032E000012000E0002070BDF8B505000E001700B9
:1032F000202428688069204000281CD13A00310031
:10330000280000F01AF8002801D0012014E000F095
:1033100067FDC01B864201D3002EE9D1686C2043B3
:10332000686441202C54002001004222A95440210D
:103330006854012000E00020F2BDF4B504000F0045
:103340001025206880692840002844D02068406803
:10335000800106D4206840688021C90101432068AB
:1033600041602026206880693040002818D1002064
:10337000C0438742F5D000F033FD0099401A8742E0
:1033800001D3002FEDD1606C30436064412026549E
:10339000002001004222A1544021605401201BE082
:1033A0002068C5612068C6612000FFF731FF2068F2
:1033B00040681649014020684160606C0421014367
:1033C000616441202654002001004222A154402182
:1033D0006054012000E00020F2BDF0B4049C0568B8
:1033E0006D68660D0A4F3743BD430E00B6B2B60591
:1033F000B60D2E431500EDB22D0435431D43254374
:1034000006687560F0BC70470000000000E800FE30
:10341000FF63FF0310B502004120105C20282AD171
:103420004020105C012801D1022025E0012003008A
:103430004024135524234124135513681B68012489
:10344000A3431468236013681B682C4C1C4013684A
:103450001C6013681B680B431468236013681B68A7
:1034600018431368186020204123D05400204023C3
:10347000D054002000E0022010BD10B50200412011
:10348000105C202827D14020105C012801D10220A7
:1034900022E0012003004024135524234124135526
:1034A00013681B680124A3431468236013681B6816
:1034B000134C1C400B0223431468236014682468D7
:1034C000204314682060202041241055002040240F
:1034D0001055002000E0022010BD81B00121094AF2
:1034E00013680B431360126811400091009906495C
:1034F0000A6802430A6001B070470000FFEFFFFF57
:10350000FFF0FFFF181002400000014070B50200FC
:103510003C20105C012801D1022024E001203C2342
:10352000D05402233D24135513685D6813689B68CB
:103530007024A5430C682C4315686C601568234EF5
:10354000B54203D01568224EB54206D18025AB4363
:103550001D004B682B431568AB603D25505500207E
:103560003C255055002070BD30B5020000200300FE
:103570003C24145D012C01D1022023E001243C25D0
:103580005455FF24A343CC681C43124D25408B683F
:103590002B43114C1C404B682343104C1C400B68C0
:1035A00023430F4C1C400B692343074C1C404B69C1
:1035B00023430C4C1C40CB692343146863643C24B4
:1035C0001055002030BD0000FFDFFFFF002C014040
:1035D00000040040FFFCFFFFFFFBFFFFFFF7FFFFC2
:1035E000FFEFFFFFFFBFFFFF81B001207E490A68A8
:1035F00002430A6009680840009000988020400556
:1036000096490A6802430A600968084000900098D9
:1036100001B07047F8B586B007001422002101A858
:10362000FEF768FF38688E49884235D18024A400AF
:103630006D480168214301600068204000900098B7
:103640008020800287490A6802430A6009680840AE
:103650000090009807200190032002900025039518
:1036600001A99020C00500F0FBF97F4EB148306001
:103670007560B5608020F060346180200001706169
:103680002020B061F561300000F0B0FB002801D0CF
:10369000FDF764FF3E63776207B0F0BD10B586B0FA
:1036A00004001422002101A8FEF724FF2068A0498D
:1036B000884221D18020C0026A490A6802430A6018
:1036C0000968084000900098C020019012200290E4
:1036D00000200390032004900120059001A9964842
:1036E00000F0BEF98020800395490A6802430A6011
:1036F000096808400090009806B010BD10B586B06B
:1037000004001422002101A8FEF7F4FE20688B4972
:1037100088422FD18020000133490A6802430A60A1
:103720000968084000900098802080024D490A688E
:1037300002430A600968084000900098C020800099
:103740000190122002900020039003200490022098
:10375000059001A99020C00500F082F98020C003E7
:10376000FFF7BBFE002203210E2000F056F90E20C9
:1037700000F05DF906B010BD10B586B0040014224B
:10378000002101A8FEF7B6FE20686E49884228D1C4
:10379000022032490A6802430A6009680840009022
:1037A00000988020C0022F490A6802430A60096815
:1037B00008400090009830200190122002900020D4
:1037C0000390032004900120059001A95A4800F0BD
:1037D00047F900220321102000F01FF9102000F00B
:1037E00026F906B010BD0000181002401CB50400F8
:1037F00020685549884212D18020400017490A6844
:1038000002430A60096808400090009800220321E2
:10381000132000F002F9132000F009F91CE02068E1
:103820004A4988420AD180218902494802680A43EC
:10383000026000680140009100980DE02068454951
:10384000884209D18021C902414802680A430260C6
:10385000006801400091009813BD00001C10024058
:1038600000240140141002403002002010B586B040
:103870000400142200216846FEF73CFE206831490E
:10388000884217D18021C902334802680A43026086
:1038900000680140059105980120009002210191E6
:1038A000002102910321039104906946224800F00F
:1038B000D7F83AE020682549884219D18021890249
:1038C000254802680A430260006801400591059896
:1038D00040200090022001900020029003200390DD
:1038E0000520049069469020C00500F0B9F81CE05E
:1038F00020681849884218D1802189021648026838
:103900000A430260006801400591059880200090FC
:1039100002200190002002900320039005200490D3
:1039200069469020C00500F09BF806B010BD00006D
:10393000005400400800024000040048002C0140F0
:103940001C100240000400400020004000440140E0
:1039500018100240004801401410024000B5010058
:1039600049B2002905D40121C206D20E9140364A3F
:10397000116000BDF0B5020052B2002A17D418221F
:10398000324B040064B2A408A4001C59FF25C600F1
:103990001640B540AC438D01EDB2C60032409540B3
:1039A0002543020052B2920892009D501BE00F2264
:1039B000274B182405006DB21540083DAD08AE0038
:1039C00005006DB22A40083A920892009A58FF25E5
:1039D000C7002740BD40AA438D01EDB2C7003C405F
:1039E000A54015439D51F0BD10B50400601E802117
:1039F0004904884201D301200EE0601E1549086089
:103A000003210020C043FFF7B5FF002012490860E2
:103A1000072012490860002010BD70B505000C0099
:103A200016002100280040B2FFF7A4FF70BD10B5BA
:103A30000400200040B2FFF791FF10BD10B5040054
:103A40002000FFF7D1FF10BD00E100E000E400E03E
:103A50001CED00E014E000E018E000E010E000E001
:103A6000FEB500220B68D340002B00D1DAE0012321
:103A70000C681D00954025400195019C002C00D14B
:103A8000CEE003244D682540012D03D04D6825402C
:103A9000022D19D1866815006F002500BD40AE4388
:103AA000CD6817007F00BD4035430095009D8560BF
:103AB00046681D009540AE434D682D091D40954058
:103AC00035430095009D45604D682540032D0DD080
:103AD000C66815006F002500BD40AE438D68170015
:103AE0007F00BD4035430095009DC5604D68254071
:103AF000022D1DD1D508AD0045192D6A00951C2554
:103B0000009EB4460F271600B6002E40B74066460A
:103B1000BE433700BC460E691700BF003D40AE40B3
:103B200067463E430096D508AD004519009E2E62BB
:103B3000066815006F002500BD40AE434D68254066
:103B400017007F00BD4035430095009D05604D681E
:103B5000C026B6022E40002E62D0484D2E681E436D
:103B60002E602D681D400295029D454D9608B600B9
:103B7000AE5900960F27BC461600B7000C263E40F3
:103B80006746B740009EBE439027FF05B84201D16B
:103B900000230DE03B4FB8420AD03B4B984201D185
:103BA000022305E0394B984201D1230000E00523B0
:103BB0001400A4000C272740BB4033439408A40002
:103BC0002B51334D2C68019EB4434E68F60302D549
:103BD0002300019C1C432C602E4D2B68019EB34397
:103BE0004E68B60302D51C00019B23432B602A4D6F
:103BF0002C68019EB4434E68F60202D52300019C56
:103C00001C432C60254B1D68019EB54300954D68F3
:103C1000AD0203D5009C019D25430095009C1C60CE
:103C2000521C1FE7F7BD00B5020010690B009BB2E4
:103C30001840002801D0012000E00020C0B200BDE3
:103C400000B51300DBB2002B03D00B009BB28361E5
:103C500002E00B009BB2836200BD10B50400104867
:103C60000168220092B21140002906D0210089B2D9
:103C70000160200080B2FDF7F1FB10BD181002407A
:103C8000080001400004004800080048000C0048FB
:103C90000004014004040140080401400C040140F8
:103CA00014040140F446002804D4494200F013F8FB
:103CB000404260474042002905D45FD000F00BF835
:103CC000404249426047494200F005F84942604796
:103CD00003460B43E6D40022030A8B420BD20309AE
:103CE0008B4219D243088B422ED2411A00D2014690
:103CF000524110467047FF2209023FD012068B4204
:103D000005D3121209028B4201D3121209020309D0
:103D10008B4219D300E0090AC3098B4201D3CB01BE
:103D2000C01A524183098B4201D38B01C01A524100
:103D300043098B4201D34B01C01A524103098B4204
:103D400001D30B01C01A5241C3088B4201D3CB00EF
:103D5000C01A524183088B4201D38B00C01A5241D2
:103D600043088B4201D34B00C01A5241884200D312
:103D7000401A5241CFD201461046704708B500F0B4
:103D80007DF908BD10B50400FA2080000E490978BD
:103D9000FFF7A1FF01000D480068FFF79CFFFFF748
:103DA0004DFE002801D001200CE0042C09D2002295
:103DB00021000020C043FFF730FE054804600020CA
:103DC00000E0012010BD00BF14000020040000200E
:103DD0000000002070477047704770477047FEE74B
:103DE00001480068704700BF2C030020F8B50400AC
:103DF00000252F00002C01D1012020E002202121EC
:103E00006054206800680E49014060680843A1685A
:103E10000143E06808432169014360690843A169DF
:103E20000143E6690E4320680660200000F0D0F8E8
:103E3000A563012021216054202025540020F2BDDB
:103E40000FC0FFFFF7B504001F000020060020216F
:103E5000615C012901D1022039E0012529002022DD
:103E6000A1542121615C01292BD102212122A154DD
:103E7000A0632068006801218843216808603B0036
:103E8000029A0199200000F08EF8E06A002806D01E
:103E9000206800680E210143206801600BE0206863
:103EA00000680A210143206801602068006804213D
:103EB0008843216808602068006805432068056021
:103EC00003E020216054022006003000C0B2FEBD95
:103ED00070B50400E06B0568206806680420216C5A
:103EE00002008A402A40002A16D0064214D02168D7
:103EF0000968890605D4216809680422914322686B
:103F00001160216C8840E16B4860E06A002849D06C
:103F10002000E16A884745E00220216C02008A40C7
:103F20002A40002A1CD006421AD021680968890656
:103F300008D4216809680A2291432268116001218E
:103F40002122A154216C8840E16B4860002020218F
:103F50006054A06A002825D02000A16A884721E08B
:103F60000820216C02008A402A40002A1AD03040E2
:103F7000002817D0206800680E2188432168086057
:103F80000120216C02008A40E16B4A60A06321217C
:103F90006054002020216054206B002802D02000B3
:103FA000216B884770BD30B50124056CAC40C56BF2
:103FB0006C60046863604468102C04D10468A260DB
:103FC0000468E16003E00468A1600468E26030BD59
:103FD00010B504002068054940181421FFF77BFE46
:103FE000800020640248E06310BD0000F8FFFDBFC0
:103FF00000000240704770471206130A1A43130C60
:104000001A4300BF094205D0830705D00270401C47
:10401000491EF9D1704700001300103906D330B49F
:104020001400150010393CC0FCD230BC490700D345
:104030000CC000D504C0890002D30280801C002976
:1040400000D502707047FEE770B4103A03D378C908
:10405000103A78C0FBD2530701D318C918C001D554
:1040600008C908C0D20704D30B880380891C801CB0
:10407000002A01D50B78037070BC70477047FEE7CB
:1040800000B5FEE700B5FEE77047704770B5012048
:10409000040048490A88521C0A800A88464B1B883B
:1040A0009A425FD3002213000B8044490423CB5E65
:1040B00008254D5FAB4255D08B1D8D880E89AD1BF9
:1040C0001D8006254D5F002D08D50020C04304004B
:1040D000200040B2CD8845431D8000E004003848F0
:1040E0000088C8810620085E364B00255B5F984239
:1040F00009DB200040B2C8235B0058430423CB5E99
:10410000C018888012E030480023C05E0623CB5ED2
:1041100098420BDA0420085E23005BB206254D5F4F
:1041200024266E438C3E7343C0188880488A04233B
:10413000CB5E984202DA488A888004E00420085E58
:10414000002800D58A80888808810420085E1F4ADC
:10415000126850620420085E898AFFF7B9FD1C4985
:104160000968486300F03CF870BD80B50220FFF795
:1041700074FD01BD80B50820FFF76FFD01BD80B55E
:1041800080200002FFF769FD01BD80B51148FFF7EF
:104190009FFE01BD80B51048FDF713FC01BD80B541
:1041A0000A48FDF70EFC01BD80B50C48FDF709FC7F
:1041B00001BD0000320300200E000020B4020020E8
:1041C0000C00002010000020120000201001002030
:1041D000E801002030020020C80000205801002023
:1041E00003480168034A127889180160704700BFCC
:1041F0002C0300201400002070B40123002413E0DD
:104200000168001D194202D04D466918491E0C6014
:10421000091D121F042AFAD20D00960701D50C8041
:10422000AD1C1A4000D02C700268001D002AE7D196
:1042300070BC704730B401220EE00368C3184468B4
:104240000830144202D04D462C19641E1D682560AA
:104250001B1D241D091FF9D10168001D0029ECD187
:1042600030BC704710B5074979441831064C7C447E
:10427000163404E0081D0A68891888470100A14225
:10428000F8D110BD08000000280000006DFFFFFFFE
:1042900028030000180000200000000099FFFFFF25
:1042A0001800000074000000000000200000000062
:1042B00000F00DF8002801D0FFF7D4FF00BF00BFC9
:1042C000002000BF00BFFBF7F3FE00F002F8012062
:1042D000704780B500F002F801BDFEE7074638469A
:1042E00000F002F8FBE7FEE780B500BF00BF024A1E
:1042F00011001820ABBEFBE726000200054801466E
:1043000003B4684680F3098800BF00BF00BF00BF48
:10431000FFF7CEFFA5EDF5FE0400000000127A00C5
:10432000E80364001E001E000F00040001000000EE
:10433000FEE7000002030405060708090A0B0C0D3E
:104340000E0F10100102030405060708090A0B0CE2
:104350000D0E0F1000000000000000000102030419
:1043600006070809014880470148004781430008C3
:10437000FD420008FEE7FEE7FEE7FEE7FEE7FEE798
:02438000704784
:04000005080042FDB0
:00000001FF
