:020000040800F2
:10000000C00F0020C9470008BD430008C1430008D5
:1000100000000000000000000000000000000000E0
:10002000000000000000000000000000C5430008C0
:100030000000000000000000C7430008C94300089A
:100040007716000800000000C3400008874300083E
:100050005B470008A9450008B3450008BD450008F6
:1000600000000000C945000867470008D94700089C
:10007000DB470008DD470008D3450008000000000A
:10008000DD4500080000000000000000E745000812
:1000900000000000DF470008E1470008E3470008D0
:1000A00000000000E547000800000000E7470008E6
:1000B00010B501F0E1FA00F04CF800F06DFA00F034
:1000C0004EFA00F088F800F0F9F800F02EF900F090
:1000D000A9F900F0CCF800F085F900F0F3F9BC487C
:1000E000C82212024282BB494A8204221300838240
:1000F0008A82B94AC261B94A8261FE20800588615C
:10010000B74A9061FA2000018880BF4C8888898AAC
:1001100001F0D8FA216848633C21BC4801F0B4FCE6
:100120003C21BB4801F0B0FC0021200001F0CEFBD7
:100130000021B84801F0CAFBB74801F064FBB74C96
:10014000200001F0BFFF0322B549200002F006F9AC
:10015000FEE738B594B03022002108A802F0C4FAB6
:1001600010220021684602F0BFFA1022002104A8E4
:1001700002F0BAFA03200890012009900B90102099
:100180000C900224109480204002119080204003A3
:1001900012900025139508A802F0B0FA002801D0AB
:1001A00001F066FA07200090019402950395012161
:1001B000684602F003FD002801D001F059FA202022
:1001C0000490079504A802F0E7FD002801D001F093
:1001D0004FFA15B030BD7FB50C220021684602F001
:1001E00083FA8E4CB64820608020000660600026AE
:1001F000A660E6600125256104206061300020765C
:10020000300060762800A0763000E076FF20C23013
:10021000E0612662280024216054A662200001F0DB
:10022000BFFF002801D001F023FA00968020400192
:100230000190062002906946200002F0EFF80028A5
:1002400001D001F015FA00956946200002F0E6F8A9
:10025000002801D001F00CFA02200090694620002D
:1002600002F0DCF8002801D001F002FA7FBD10B5E1
:10027000C44CC5482060C54860600020A0600121D2
:10028000E16020616061A061E0612062200002F015
:100290001BFE002801D001F0EBF90021200003F043
:1002A000B3F9002801D001F0E3F90021200003F0A8
:1002B000DEF9002801D001F0DBF910BD30B58BB0BC
:1002C0002422002102A802F00FFA08220021684629
:1002D00002F00AFA4D4CAE48206000256560A5602A
:1002E000AC48E06025616561A5610320029003953B
:1002F0000120049005950A2106910795089009951B
:100300000A9502A9200001F055FB002801D001F058
:10031000AFF9009501956946200003F0F1F9002836
:1003200001D001F0A5F90BB030BD38B592B0242250
:10033000002109A802F0D8F908220021684602F03D
:10034000D3F91C22002102A802F0CEF9304CCE488D
:10035000206000256560A5608E48E0602561A5618C
:10036000200001F085FA002801D001F081F9032076
:1003700009900A9501200B900C950A210D910E957C
:100380000F901095119509A9200001F013FB00288A
:1003900001D001F06DF9009501956946200003F048
:1003A000AFF9002801D001F063F9602002900395B5
:1003B00004950695082202A9200001F0D2FC00282D
:1003C00001D001F055F9200003F04AFB13B030BD15
:1003D000F40A0020180B0020AE47A5C12506A13F56
:1003E0003C0B002080B50C48A84901600021416009
:1003F0008160A74AC2600161816101F0BDF90028F6
:1004000001D001F035F901BDE00900200809002004
:1004100050090020280A002098090020B40A002072
:10042000700B002030B58FB01C22002108A802F00C
:100430005BF920220021684602F056F9954D964856
:10044000286000246C60AC60C8208001E8602C61EA
:100450006C61AC61280001F08FF9002801D001F037
:1004600007F9280001F004FA002801D001F000F992
:100470006020089009940A940B940C940D940E94A7
:10048000002208A9280001F06CFC002801D001F02E
:10049000EFF8009401940294039404948020800166
:1004A000059007946946280003F058F9002801D008
:1004B00001F0DEF8280003F0D3FA0FB030BD0000E1
:1004C0000024014030B58FB01C22002108A802F0A2
:1004D0000BF920220021684602F006F9B64DB74814
:1004E000286000246C60AC60C8208001E8602C614A
:1004F0006C61AC61280001F03FF9002801D001F0E7
:10050000B7F8280001F0B4F9002801D001F0B0F8E4
:100510006020089009940A940B940C940D940E9406
:10052000002208A9280001F01CFC002801D001F0DD
:100530009FF8009401940294039404948020800115
:10054000059007946946280003F008F9002801D0B7
:1005500001F08EF8280003F083FA0FB030BD80B5AB
:10056000012097490A6802430A6009680840009020
:10057000009800220321092003F049FB092003F021
:1005800050FB01BDBC080020005400400E090020B3
:10059000002C01400AC8000070B586B0142200216A
:1005A000684602F0A1F88021C903854802680A4321
:1005B0000260026811400591059980218902026854
:1005C0000A43026002681140059105998021C90221
:1005D00002680A4302600068014005910598902670
:1005E000F6050022CE49300003F024FC28200090BC
:1005F00001250195002402940320039069463000F0
:1006000003F028FBC120000100900195029403949F
:100610006946300003F01EFB0A2000908425AD03DC
:10062000019502946946BF4803F014FB8020000244
:100630000090019502946946300003F00BFB002204
:100640000221052003F0E3FA052003F0EAFA002274
:100650000221062003F0DBFA062003F0E2FA002272
:100660000221072003F0D3FA072003F0DAFA06B0DC
:1006700070BD00B50020010089B2CD4A914201DA77
:10068000401CF8E700BD00000004004000200040CE
:1006900010270000E00900200044014000B50100DF
:1006A0000800C0B200280ED0022824D017D3042896
:1006B00039D02CD306284ED041D3082863D056D346
:1006C00009286CD076E00020BA4A108001235380BC
:1006D0009380D380138153819381D0816AE000207D
:1006E000B44A108050809080D080108101235381C3
:1006F0009381D0815EE0AF4A0123138053800020B4
:100700009080D380138150819381D08152E0A94A97
:1007100001231380002050809080D3801381538167
:100720009381D08146E0A34A0123138000205080AA
:100730009380D080108153819381D0813AE09D4A8B
:1007400001231380002050809380D3801381538134
:100750009081D0812EE0974A0120108050809080B7
:10076000D0801081508100209081D08122E0002033
:10077000904A108050809080D08001231381538153
:100780009381D08116E08B480122028042808280D2
:10079000C2800281428182810022C2810AE0854AB0
:1007A00001231380002050809380D38013815381D4
:1007B0009381D0817F4800BD280A00200048014075
:1007C00014100240F1B582B00C006427684600891D
:1007D000390000F077FF69460870684600780A28FB
:1007E0001DDA68460078FFF759FF00210A00130060
:1007F000DBB2082B4EDA704B2500EDB21600F6B2D4
:10080000AD1959552500EDB21600F6B2AD195B19B8
:100810001500EDB26D00455B1D72521CE7E70A261C
:1008200068460078310000F04DFFC0B2FFF736FF98
:100830000190002528000100C9B208290FDA0199AA
:100840000200D2B252008B5A5B4A94462200D2B2C6
:100850000100C9B2511862465354401CEBE7684688
:100860000078310000F02EFF0800C0B2FFF716FF3D
:100870002900C9B208290DDA4F492200D2B22B0053
:10088000DBB2D21889182A00D2B25200825A0A72F8
:100890006D1CEDE7484E01202100C9B27118C873E4
:1008A00068460089390000F00DFF684641700A274C
:1008B00068464078390000F005FFC0B2FFF7EEFE51
:1008C0000190002528000100C9B208290DDA210095
:1008D000C9B20200D2B28918721801990300DBB2C2
:1008E0005B00C95A1174401CEDE768464078390036
:1008F00000F0E8FE0800C0B2FFF7D0FE2900C9B240
:1009000008290CDA2100C9B22A00D2B2891871185C
:100910002A00D2B25200825A0A766D1CEEE7F7BD69
:10092000380C000000040048F1B582B0002420001B
:10093000C0B202283ADA0A2668460089310000F07F
:10094000C1FEC0B2FFF7AAFE0090002738000100E8
:10095000C9B208290CDA00990200D2B25200895AB1
:10096000154A0300DBB2D2184023D154401CEEE7F5
:10097000114D01204721685468460089310000F07C
:10098000A1FE0800C0B2FFF789FE3900C9B20829EC
:100990000ADA3900C9B24900415A3A00D2B2AA185B
:1009A0004823D1547F1CF0E7641CC0E7F7BD00006A
:1009B00011270000600B002058080020F1B584B01A
:1009C0000498AA49884201D000F0A0FC049800F0E5
:1009D00001FFA74CA74D207828180079012800D0E6
:1009E00007E30821A44803F018FA00280AD1A34815
:1009F0002178490041182278520080184088401C14
:100A00004880FCE29E489D49227852008A1852880C
:100A100003889A4200D23DE1002002002378EB18BF
:100A20001A7122785200891848802078002844D111
:100A3000A8488188934A1170934D808880B2000A3B
:100A40002870924FFA26B6000296012001908D4838
:100A5000009001231E22A021380002F09FFAFFF728
:100A600008FE029601200190009501231F22A0217B
:100A7000380002F093FAFFF7FCFD85488188814A2F
:100A80001170808880B2000A2870029601200190BF
:100A90007C48009001232022A021380002F07EFA39
:100AA000FFF7E7FD02960120019000950123212226
:100AB000A021380002F072FAA1E22078012844D186
:100AC000844881886F4A11706F4D808880B2000A17
:100AD00028706E4FFA26B6000296012001906948F0
:100AE000009001230A22A021380002F057FAFFF7F4
:100AF000C0FD029601200190009501230B22A02148
:100B0000380002F04BFAFFF7B4FD614881885D4A76
:100B10001170808880B2000A28700296012001902E
:100B20005848009001230C22A021380002F036FA28
:100B3000FFF79FFD029601200190009501230D22F1
:100B4000A021380002F02AFA59E22078022844D184
:100B5000604881884B4A11704B4D808880B2000AF2
:100B600028704A4FFA26B6000296012001904548A7
:100B7000009001231422A021380002F00FFAFFF7A1
:100B800078FD029601200190009501231522A021F5
:100B9000380002F003FAFFF76CFD3D488188394ABE
:100BA0001170808880B2000A28700296012001909E
:100BB0003448009001231622A021380002F0EEF9FB
:100BC000FFF757FD0296012001900095012317229F
:100BD000A021380002F0E2F911E22078032800D0C9
:100BE0000DE23C488188274A1170274D808880B2E9
:100BF000000A2870254FFA26B600029601200190BF
:100C00002048009001232822A021380002F0C6F9D4
:100C1000FFF72FFD02960120019000950123292264
:100C2000A021380002F0BAF9FFF723FD18488188A7
:100C3000144A1170808880B2000A28700296012040
:100C400001901048009001232A22A021380002F0D0
:100C5000A5F9FFF70EFD02960120019000950123F2
:100C60002B22A021380002F099F9C8E19809002050
:100C7000B80B00207C0B002000040048940B0020DF
:100C80000C000020B90B0020BA0B0020BC0800208B
:100C9000180B0020227852008A185288E44B1B88D7
:100CA0009A4200D2A0E1227852008A185288008825
:100CB000824200D398E1002002002378EB181A71D9
:100CC00022785200891848802178002963D1014D8B
:100CD00002E000BFF40A00200521E970D5490200B6
:100CE0005123CA5402005223CA5401225323CA5426
:100CF00054228854D04FFA208000029001200190A5
:100D0000009701231E22A021E24802F019FAE24EC8
:100D1000FA208000029001200190009601231F22FA
:100D2000A021DC4802F00CFA38783178090201433E
:100D3000A980A888A98A00F0C5FCD8490968486339
:100D4000A888D74909684862FA20800002900120EB
:100D50000190009701232022A021CE4802F0F0F953
:100D6000FA208000029001200190009601232122A8
:100D7000A021C84802F0E4F9D74839783278120245
:100D80000A4382808188D54A126851638088D44999
:100D90000968486233E1217801295FD1D14D0321EF
:100DA000E970A44901225123CA5402005223CA54B3
:100DB00002005323CA54542288549F4FFA208000C3
:100DC000029001200190009701230A22A021B1483E
:100DD00002F0B6F9B04EFA20800002900120019096
:100DE000009601230B22A021AA4802F0A9F9387825
:100DF000317809020143A980A888A98A00F062FC21
:100E0000A64909684863A888A54909684862FA2084
:100E10008000029001200190009701230C22A02164
:100E20009C4802F08DF9FA20800002900120019088
:100E3000009601230D22A021964802F081F9A648D0
:100E40003978327812020A4382808188A34A126874
:100E500051638088A24909684862D0E0217802295C
:100E60005FD1A04D0421E970724902005123CA5498
:100E700001225223CA5402005323CA5454228854D4
:100E80006D4FFA208000029001200190009701230D
:100E90001422A0217F4802F053F97F4EFA208000EF
:100EA000029001200190009601231522A02179488B
:100EB00002F046F93878317809020143A980A88800
:100EC000A98A00F0FFFB754909684863A88874493E
:100ED00009684862FA208000029001200190009782
:100EE00001231622A0216B4802F02AF9FA20800083
:100EF000029001200190009601231722A02165484D
:100F000002F01EF974483978327812020A4382805E
:100F10008188724A12685163808871490968486201
:100F20006DE0217803296AD16E4D0621E9704149AF
:100F300002005123CA5402005223CA545322885437
:100F40000120542288543C4FFA2080000290012056
:100F50000190009701232822A0214E4802F0F0F8CA
:100F60004D4EFA208000029001200190009601234E
:100F70002922A021474802F0E3F8387831780902A5
:100F80000143A980A888A98A00F09CFB434909680D
:100F90004863A888424909684862FA2080000290A4
:100FA00001200190009701232A22A021394802F054
:100FB000C7F8FA20800002900120019000960123DA
:100FC0002B22A021334802F0BBF84348397832780D
:100FD00012020A4382808188404A126851638088E5
:100FE0003F49096848620AE00020217869180871C1
:100FF00005E00020C6492278520089184880C54D76
:101000002078285C012800D0BCE0802109029020D3
:10101000C00502F002FF002810D1BF482178490026
:1010200041182278520080184088401C4880AFE068
:101030000E00002058080020BB0B0020B648B7491E
:1010400022785200821852880B889A4257D3002186
:101050000A002378EA5422785200801841802078D0
:1010600000281FD11F488278012A07D10A00827008
:10107000AB4A1170C8210902418289E081780029B8
:1010800000D085E001210A008270A54A1170818894
:1010900041827DE0BC080020BC0B0020280A002013
:1010A00050090020207801281ED10B488278012A9F
:1010B00007D10A0082709B4A1170C821090241823F
:1010C00066E08178002963D101210A008270954A87
:1010D0001170818841825BE0180B0020E00900203C
:1010E00008090020F40A00202078022806D1C2480E
:1010F0005721415CCA435721425449E048E02278D5
:10110000520082185288884B1B889A4240D322781A
:1011100052008218528809888A4239D2002631004A
:101120002278A95421784900401846802078002868
:101130002ED0207801280FD1B04DE889002827D083
:10114000A878012824D1A888A98A00F0BBFAAC4964
:1011500009684863EE811BE02078022818D02078C7
:1011600003280CD1A748C189002911D08178012911
:101170000ED18188A44A12685163C68108E02078A4
:101180002E5405E0002064492278520089184880D6
:101190002078032807DB002020709C4801689C4AC7
:1011A0000A40026008E02078401C207097480168DF
:1011B0008022D20089180160964C2088401C208033
:1011C0002088C42800DA82E0002020809024E405F2
:1011D00001221021200002F02DFE1021200002F03B
:1011E0001CFE0028F9D000221021200002F022FE6F
:1011F000824CA078002802D0E089002810D12088F5
:1012000002F04AFEA16902F057FEE16902F0ACFE6D
:1012100002F03AFF20842021208CFFF7D3FA16E059
:10122000E0897D49098888420BD3A08880B2800874
:10123000A0812021A089FFF7C5FAE089401EE08146
:1012400005E0E089002802D0E089401EE0816D4C75
:10125000A078002802D0E089002810D1208802F070
:101260001BFEA16902F028FEE16902F07DFE02F09A
:101270000BFF20840021208CFFF7A4FA16E0E08900
:101280006549098888420BD3A08880B28008A08174
:101290000021A089FFF796FAE089401EE08105E071
:1012A000E089002802D0E089401EE081AB4C208814
:1012B00002F0F2FDA16902F0FFFDE16902F054FEC7
:1012C00002F0E2FE2084208CFFF72EFB1BE020784A
:1012D000C00712D49025ED0500222021280002F03D
:1012E000A9FD4548218849104A4280186121425C85
:1012F0000821280002F09EFD05E001222021902017
:10130000C00502F097FD049800F07DFA05B0F0BD2D
:10131000940B0020880B0020A00B00200C00002064
:10132000AD080020AE0800200E00002030B50400FB
:101330000A208B49086031490220C87000202E4ADB
:1013400003005125535503005225535503005325DF
:101350005355030054255355824A944225D10A1D02
:1013600023685B6A13802C4B1B88CB818B880D898B
:101370005B1B7D4DAB4204DB03001380226850628F
:1013800008E0488A8B88984204D2488A108088886E
:1013900022685062887800282DD18888898A00F0D8
:1013A00091F917490968486325E0A4498C4222D184
:1013B00014490A1D23685B6A1380174B1B88CB8175
:1013C0008B880D895B1B684DAB4204DB03001380E7
:1013D0002268506208E0488A8B88984204D2488A82
:1013E00010808888226850628878002803D1888815
:1013F00005490968486330BD58080020F40A0020F8
:10140000280A0020180B0020E009002014000048E2
:10141000FFF30000B00B002010000020F1B584B0F5
:101420000C220021684601F05FF900242100080029
:10143000C0B2032859DA2200494813009BB205685C
:101440006D1EAB422AD2AF239B007D4D0800C0B277
:1014500058432F18100080B24600B4460800C0B2AE
:10146000584328181600B6B27600801940886646A0
:10147000B85368460E00F6B2B60080590E00F6B2B8
:101480005E43AB191500ADB26D005B5BC0186B46D7
:101490000D00EDB2AD005851521CCDE7AF229200C5
:1014A000674B0D00EDB255435D1906687600AE1925
:1014B000B61E644D0F00FFB2BF00ED5935806D467A
:1014C0000E00F6B2B600AD590E00F6B256439A19A8
:1014D000006840001018801E008828186A460B001B
:1014E000DBB29B00D050491CA1E7574D1C4E57481A
:1014F00007780098316800F0E8F8474354480078CE
:10150000298848433818642100F0DFF82880514FBB
:101510000198316800F0D9F838800298316800F0FD
:10152000D4F80E490880A878012808D1688A29884B
:10153000884204D220004849087020002874B878F6
:10154000012808D1788A3F494968884203D220009F
:10155000414908702C7405B0F0BD00003C0B002020
:10156000000000205009002031750000F8B5070088
:1015700000252C00380080B2082817D12800C0B2FE
:10158000642808DA0821354802F047FC002800D119
:10159000641C6D1CF2E72000C0B255284DDB012011
:1015A0002F49304A12788918087146E080263602A1
:1015B0003800310080B2884217D12800C0B26428B8
:1015C00009DA31009020C00502F027FC002800D184
:1015D000641C6D1CF1E72000C0B255282DDB0120F2
:1015E0002149204A1278885427E0380080B2022826
:1015F00023D12E003000C0B2642808DA0221174837
:1016000002F00BFC002800D1641C761CF2E72000DD
:10161000C0B2552811DB0C48017C002907D11349C1
:1016200001225923CA545823CA54027405E00F49B1
:1016300059228D5458228D540574F1BD080900209B
:1016400024000020700B0020F40A0020200000205D
:1016500021000020180B0020B108002000040048E1
:101660007C0B0020B80B0020880B002058080020BD
:1016700000B572B6FEE7FEE780B5064801681022A5
:101680000A430260002002F01DFD02F0A7F80020CE
:1016900002BD000000200240F446002804D4494264
:1016A00000F013F8404260474042002905D45FD063
:1016B00000F00BF8404249426047494200F005F80B
:1016C0004942604703460B43E6D40022030A8B429B
:1016D0000BD203098B4219D243088B422ED2411AF6
:1016E00000D20146524110467047FF2209023FD006
:1016F00012068B4205D3121209028B4201D3121239
:10170000090203098B4219D300E0090AC3098B427D
:1017100001D3CB01C01A524183098B4201D38B0103
:10172000C01A524143098B4201D34B01C01A5241A6
:1017300003098B4201D30B01C01A5241C3088B42EB
:1017400001D3CB00C01A524183088B4201D38B00D6
:10175000C01A524143088B4201D34B00C01A524178
:10176000884200D3401A5241CFD2014610467047FA
:1017700008B502F0CFFC08BD10B50400002C01D163
:10178000012026E03D20205C002805D100203C21DE
:101790006054200002F024F902203D216054211DF4
:1017A000206800F05FFB0120462160543E21605418
:1017B0003F216054402160544121605442216054D3
:1017C0004321605444216054452160543D216054BC
:1017D000002010BD00B501000868006A204A0240E0
:1017E000002A0BD10868006A1E4A0240002A05D16F
:1017F00008680068012290430A68106001203D22B9
:101800008854002000BD10B501003D20085C01286F
:1018100001D0012023E002203D23C85401200B68A1
:10182000DB6803430C68E3600B680F4CA34203D0F2
:101830000B680E4CA3420CD10B689B685B075B0FD7
:101840001A00062A0AD00B681B6818430B68186038
:1018500004E00B681B6818430B681860002010BD7B
:101860001111000044040000002C0140000400405D
:1018700010B50400002C01D1012026E03D20205CA1
:10188000002805D100203C216054200002F06EF8B1
:1018900002203D216054211D206800F0E3FA012060
:1018A000462160543E2160543F21605440216054E1
:1018B00041216054422160544321605444216054CA
:1018C000452160543D216054002010BD70B50400D6
:1018D0000D00002D02D13E20205C0BE0042D02D132
:1018E0003F20205C06E0082D02D14020205C01E072
:1018F0004120205C012801D0012052E0002D04D1BC
:1019000002203E216054C0B211E0042D04D1022017
:101910003F216054C0B20AE0082D04D102204021CA
:101920006054C0B203E0022041216054C0B20122E1
:101930002900206800F0B4FB1A482168814207D0D2
:101940002168194A914203D02168184A914201D175
:10195000012100E00021C9B2002906D02168496CAC
:10196000802212020A4321684A642168814203D01E
:1019700020680F4988420DD1206880684007400FD9
:101980000600062E0CD02068006801210143206863
:10199000016005E0206800680121014320680160C2
:1019A000002070BD002C014000440140004801406F
:1019B0000004004070B504000D00002C01D101208E
:1019C00059E03D20205C002805D100203C216054D6
:1019D000200001F08DFF02203D21605420688068C6
:1019E0002549014020688160211D206800F03AFAF5
:1019F00020688368206882692068006A2968194322
:101A00001E4B1340AE681E43AA69120232431C4BA0
:101A100013401C4A1A40EB681343EA6912021A4346
:101A20002B691B0113432A6A12031A43222398438A
:101A3000882398436E68064368690301334320682E
:101A40008160206882612068036201264620265456
:101A50003E2026543000C0B23F2026543000C0B291
:101A6000422026543000C0B2432026543000C0B279
:101A70003D202654002070BDF8BFFFFFFCFCFFFF97
:101A8000F3F3FFFF0F0FFFFFF8B504000D003E203A
:101A9000205C694648703F20205C694608704220FF
:101AA000275C4320265C002D12D16846407801282F
:101AB00003D13800C0B2012801D001207AE0022011
:101AC00001003E22A154C9B242216054C0B236E0A6
:101AD000042D12D168460078012803D13000C0B22D
:101AE000012801D0012065E0022001003F22A1541D
:101AF000C9B243216054C0B221E068464078012851
:101B00000BD168460078012807D13800C0B20128FF
:101B100003D13000C0B2012801D001204AE00220E8
:101B200001003E22A154C9B201003F22A154C9B212
:101B300001004222A154C9B243216054C0B228001E
:101B4000002802D004280CD017E0012200212068D0
:101B500000F0A6FA2068C068022101432068C16035
:101B600021E001220421206800F09AFA2068C06870
:101B7000042101432068C16015E001220021206892
:101B800000F08EFA01220421206800F089FA206812
:101B9000C068022101432068C1602068C068042138
:101BA00001432068C160206800680121014320686A
:101BB00001600020F2BD70B50400022620680069B3
:101BC000304000281CD02068C0683040002817D062
:101BD0000220C043216808610120207720688069C5
:101BE0008007800F002803D02000FFF79FFB05E04F
:101BF000200002F090FA200002F08EFA00202077F8
:101C0000042520680069284000281CD02068C0688E
:101C10002840002817D00420C04321680861267797
:101C200020688069C02189000140002903D020007C
:101C3000FFF77CFB05E0200002F06DFA200002F0C7
:101C40006BFA0020207708262068006930400028C1
:101C50001BD02068C0683040002816D00820C04340
:101C60002168086125772068C0698007800F0028F7
:101C700003D02000FFF75AFB05E0200002F04BFAEA
:101C8000200002F049FA002020771020216809691D
:101C9000014000291CD02168C9680840002817D0DD
:101CA0001020C0432168086126772068C069C021E0
:101CB00089000140002903D02000FFF737FB05E031
:101CC000200002F028FA200002F026FA00202077F7
:101CD000012021680969014000290BD02168C968E9
:101CE0000840002806D00120C04321680861200078
:101CF000FEF764FE802021680969014000290BD0AD
:101D00002168C9680840002806D08020C0432168A7
:101D10000861200002F001FA4020216809690140B1
:101D200000290BD02168C9680840002806D040204F
:101D3000C04321680861200002F0F0F920202168EA
:101D40000969014000290BD02168C96808400028B2
:101D500006D02020C04321680861200002F0DFF98E
:101D600070BDF4B504000E0000252F003C20205C5F
:101D7000012801D1022071E001203C21605400992A
:101D8000002906D004291BD0082932D00C2947D0BD
:101D90005FE03100206800F09AF82068806908212F
:101DA000014320688161206880690421884321689B
:101DB000886120688069316901432068816149E058
:101DC0003100206800F0BBF820688069802109019B
:101DD00001432068816120688069214901402068B1
:101DE000816120688069316909020143206881614D
:101DF00030E03100206800F0D9F82068C06908217F
:101E000001432068C1612068C069042188432168BA
:101E1000C8612068C069316901432068C16119E067
:101E20003100206800F0F7F82068C06980210901BE
:101E300001432068C1612068C069094901402068E8
:101E4000C1612068C0693169090201432068C1612C
:101E500000E007003C2025543800C0B2F2BD00006D
:101E6000FFFBFFFF10B503687F4A904202D07F4C12
:101E7000A04204D17024A3431C004B68234390422A
:101E80000BD07A4CA04208D0794CA04205D0794CB6
:101E9000A04202D0784CA04203D1784C1C40CB68C1
:101EA00023438024A3434C691C4304608B68C362B2
:101EB0000B688362904205D06E4A904202D06E4A0F
:101EC000904201D10A6902630122426110BD70B5DE
:101ED000026A01239A430262056A43688469702298
:101EE0009443032294430A6822430224A5438C6846
:101EF0002C435D4DA84205D05E4EB04202D05E4EEE
:101F0000B04206D10826B4432600CC6834430426E8
:101F1000B443A84205D0574DA84202D0564DA8421E
:101F200007D1574D1D40594B2B404D691D438B69BF
:101F30002B43436082614D684563046270BD70B598
:101F4000026A10239A430262036A426884694D4D13
:101F500025404A4E2E400C68240234432025AB43D2
:101F60008D682D011D43404B984207D18026B54313
:101F70002E00CD682D0135434026B543984205D04B
:101F80003C4B984202D03C4B984209D13E4B134007
:101F90003F4A1A404B699B0013438A6992001A43D7
:101FA000426084614B688363056270BDF0B5026A6C
:101FB000334B13400362046A4268C56970239D4332
:101FC00003239D430B682B43304D25408C6824022E
:101FD0002C43254DA84206D12D4E2640CC68270221
:101FE0003743294C3C40A84205D0224DA84202D09C
:101FF000214DA84209D1274D1540274A2A404D6955
:102000002D0115438A6912012A434260C3614D685C
:10201000C5630462F0BD70B5026A1E4B13400362D3
:10202000036A4268C469174D2540144E2E400C685F
:1020300024023443184D1D408B681B032B430A4D6B
:10204000A84205D00B4DA84202D00B4DA84204D1A6
:10205000124D15404A6992012A434260C4614D689D
:102060000564036270BD0000002C014000040040C4
:10207000002000400044014000480140FFFCFFFFF9
:10208000FFFEFFFFFF8FFFFFFFFBFFFFFFFDFFFFD7
:10209000FFF7FFFFFFEFFFFFFFDFFFFFFFBFFFFFC8
:1020A00070B41F2301240D001D40AC40056AA543F8
:1020B0000562056A0E00334016009E402E430662FC
:1020C00070BC7047FEB5040000252F0001950095F7
:1020D0003420205C012801D102205EE0012630007E
:1020E00034216054032021688968014001290AD104
:1020F000216809683140002903D12168C9680904B1
:1021000001D5310000E0290000293DD1A16B234A0F
:102110000A4002211143A1632168C9680840009068
:102120002068C068032188432168C86020688068EF
:102130008021090601432068816001F0F1FF0190D0
:1021400020688068002813D501F0EAFF0199401A41
:102150000328F5D3206880680028F1D5A06B022100
:10216000884310210143A16334202554012014E049
:102170002068C068009901432068C160A06B0221FB
:1021800088430643A66304E0A06B20210143A163BA
:102190003700342025543800C0B2FEBDFFFEFFFFDB
:1021A000F8B5040000252F002E00002C01D10120DD
:1021B000CCE0A06B002806D1E563280034216054F0
:1021C000200001F021FB1020A16B0140002900D06C
:1021D000B5E00422216889681140002900D0AEE0F2
:1021E000A36B5B49194002230B43A36321688968F1
:1021F0008907890F01290AD1012123681B680B4037
:10220000002B03D12368DB681B0400D500E0290004
:1022100000290FD12168C96818239943A3680B438B
:102220002168CB60216809698B009B0861681943AC
:10223000236819612168CB68464919402368D96031
:10224000A16A012902D08021490100E02900236907
:10225000022B00D02A00237E9B033343667EF603C5
:102260001E43A37E5B0333431943E3680B431A43C6
:102270002421615C4E001643E17E01290FD1A17E2D
:10228000002904D13100802676020E4307E0A16BBD
:1022900020220A43A263E16B01220A43E263E1695F
:1022A000FF22C232914203D0E1693143266A0E43D4
:1022B0002168C96831432268D160E16A80225205F1
:1022C000914214D0E16A012911D0E16A02290ED0AD
:1022D000E16A03290BD0E16A042908D0E16A0529E3
:1022E00005D0E16A062902D0E16A07290ED12168EA
:1022F00049690722914322685161216849692C226A
:10230000A25C5207520F0A4321684A612168C968DA
:10231000114A0A40B24207D1E563A06B022188430B
:1023200001210143A1630FE0A16B02229143084305
:10233000A0630120E16B0143E163070004E0A16BAE
:102340000843A063012007003800C0B2F2BD0000BE
:10235000FFFEFFFF1902FEFFE7FF3F83F7B5040012
:1023600000252800694608700427206880683840E6
:10237000002844D13420205C012801D1022043E010
:102380000126300034216054607E012804D02000F2
:1023900000F0F0F86946087068460078002831D1EE
:1023A000A06B1A490140802040000843A063E56308
:1023B000342025541648216B88621648216BC86268
:1023C0001548216B08631C2021680860206840685C
:1023D00010210143206841602068C06806432068DE
:1023E000C660029B019A206801004031206B01F019
:1023F000C9FE2068806807432068876002E00220E9
:102400006946087068460078FEBD0000FEF1FFFFD7
:1024100039260008BD260008CB260008F8B50400C0
:102420000D0000273E00009780214905E06A8842A0
:1024300013D0E06A012810D0E06A02280DD0E06ACB
:1024400003280AD0E06A042807D0E06A052804D0EF
:10245000E06A062801D0E06A07283420205C0128C1
:1024600001D1022085E0012210003423E0542068CD
:102470008068400774D468686B4B984256D02068D7
:10248000806A2B689A40024320688262E06A884230
:1024900028D0E06A012825D0E06A022822D0E06A2C
:1024A00003281FD0E06A04281CD0E06A052819D050
:1024B000E06A062816D0E06A072813D00720A9682A
:1024C00022685269024091420CD021684969072272
:1024D00091432268516121684969AA681040084304
:1024E000216848612868102802D0286811283CD14A
:1024F0002868102802D18020000401E08020C00359
:102500004A490A6810430860286810282DD14848B5
:1025100000684849FFF7D9F80A214843009000981D
:10252000002822D00098401E0090F8E72068806ABA
:1025300029688A409043216888622868102802D060
:102540002868112811D12868102802D18021090497
:1025500001E08021C903354802688A43026004E033
:10256000A06B20210143A1631600342027543000C2
:10257000C0B2F2BD7CB504000020060000902168C6
:1025800089688907890F01290BD101212268126806
:102590000A40002A03D12268D268120401D508003B
:1025A000FFE700283DD120688068424901400029AA
:1025B00009D0A06B10210143A163E06B012101430D
:1025C000E16301202EE0012520688068284321680E
:1025D0008860174800681749FFF777F8009000985F
:1025E000002803D00098401E0090F8E701F098FD05
:1025F0000600206800682840002812D101F090FDF4
:10260000801B0328F5D32068006828400028F0D1FB
:10261000A06B10210143A163E06B0543E56301203A
:1026200000E0002076BD00000110000008270140F6
:102630000800002040420F0038B50400656AA86B0E
:102640005021014000292FD1A86B8021890001432E
:10265000A9632868C068C0210901014000291FD171
:10266000A87E00281CD128680068000718D52868B3
:10267000806840070CD4286840680C21884329688A
:102680004860A86B0C49014001200843A86307E09B
:10269000A86B20210143A963E86B01210143E96391
:1026A0002800FEF7BBFE03E02000296B096B88477A
:1026B00031BD000017000080FFFEFFFF38B50400A9
:1026C000656A280001F036FE31BD38B50400656A40
:1026D000A86B40210143A963E86B04210143E9632E
:1026E000280001F028FE31BD10B5040008001100DB
:1026F0000200200001F020FE200010BDF8B584B0DB
:102700000400002C01D101204AE22078C00766D5E0
:102710000C20B4490A680240042A09D00A68104013
:1027200008280ED18020400209680140814208D16A
:10273000AD480068800352D5606800284FD1012061
:102740002EE26068012806D1A74801688022520263
:102750000A43026024E06068002809D1A2480168A9
:10276000A24A0A4002600168A14A0A40026017E0DA
:10277000606805280BD19C4801688022D2020A4378
:1027800002600168802252020A43026008E0964813
:102790000168964A0A4002600168954A0A40026050
:1027A000606800280DD001F0BBFC05008E48006871
:1027B000800314D401F0B4FC401B6528F6D3032039
:1027C000EEE101F0ADFC050087480068800306D506
:1027D00001F0A6FC401B6528F6D30320E0E10226A9
:1027E0002068304000284FD00C207E490A68024003
:1027F000002A06D00A681040082814D10868C003CF
:1028000011D4794801683140002904D0E1680129D8
:1028100001D00120C4E10168F82291432269D2006D
:102820000A43026030E0E06800281AD06E4F386832
:1028300001210143396001F073FC05003868304024
:10284000002806D101F06CFC401B0328F6D30320BE
:10285000A6E13868F82188432169C900014339603D
:1028600012E0614F386801218843386001F058FC5C
:10287000050038683040002806D001F051FC401BAC
:102880000328F6D303208BE12078000728D5E069E0
:10289000002812D0C34F386801210143396001F08C
:1028A0003FFC050038683040002819D101F038FCA1
:1028B000401B0328F6D3032072E1BA4F3868012188
:1028C0008843386001F02CFC05003868304000284F
:1028D00006D001F025FC401B0328F6D303205FE15E
:1028E000042720683840002800D18CE00020694689
:1028F000087080204005AC490968014000290AD1D0
:10290000A9490A6802430A600968084003900398CD
:10291000012069460870A5480068C00514D4A34882
:102920000068802149000143A048016001F0F8FBE4
:1029300005009E480068C00506D401F0F1FB401B6D
:102940006528F6D303202BE1A068012805D198481B
:10295000016801220A43026021E0A068002809D131
:102960009348016801229143016001680422914368
:10297000016014E0A068052808D18D48016839433A
:102980000160016801220A43026008E0884801688A
:102990000122914301600168042291430160A06813
:1029A00000280FD001F0BCFB0500814800683040D2
:1029B00000281FD101F0B4FB401B7E498842F4D3AC
:1029C0000320EDE001F0ACFB0500794800683040E1
:1029D00000280FD001F0A4FB401B76498842F4D3B5
:1029E0000320DDE00410024000100240FFFFFEFF64
:1029F000FFFFFBFF68460078012804D16A480168A0
:102A00006D4A0A4002602078C00650D560690128EE
:102A100022D1B44800680743B2480760B148006853
:102A200001210143AF48016001F07AFB0500AD4888
:102A300000683040002806D101F072FB401B0328DB
:102A4000F5D30320ACE0A7480168F8229143A269BE
:102A5000D2000A4302602AE00421C9436069884227
:102A60000BD1A0480268114001600168F82291432F
:102A7000A269D2000A43026019E09A48006807433D
:102A80009848076097480068012188439549086085
:102A900001F046FB0500934800683040002806D04E
:102AA00001F03EFB401B0328F5D3032078E0206AA9
:102AB000002874D08C4800680C21014008294DD0B2
:102AC000206A022838D1894F386889490140396025
:102AD00001F026FB00908026B604386830400028BC
:102AE00007D001F01DFB0099401A0328F3D30320FF
:102AF00056E09E4801680F229143E26A0A43026051
:102B0000794801687B4A0A40A16A1143626A0A4314
:102B100002603868802149040143396001F000FBFC
:102B2000050038683040002839D101F0F9FA401B1F
:102B30000328F6D3032033E06C4E30686C49014023
:102B4000316001F0EDFA05003068800127D501F011
:102B5000E7FA401B0328F7D3032021E0206A01286D
:102B600001D101201CE06048006801907F480068A6
:102B700002900198802149020840616A88420CD184
:102B800002980007000FE16A884206D10198F021FF
:102B900089030140A06A814201D0012000E00020A9
:102BA00005B0F0BD241002401C100240007000402F
:102BB0002010024089130000FFFFFFEFF3B581B042
:102BC0000400002C01D101208BE00125684E306803
:102BD0002840029988420CD230680121884302992A
:102BE00001433160306828400299884201D00120B9
:102BF00077E002202168014000290FD021784907A1
:102C000005D539490A68E023DB0013430B603649D8
:102C10000A68F0239A43A36813430B602168294094
:102C2000002932D06168012905D13048006880034D
:102C300011D4012055E06168022905D12B480068B4
:102C4000800108D401204CE0284909680840002888
:102C500001D1012045E0244F386803218843616891
:102C60000143396001F05CFA009038680C210140A2
:102C700060688000814208D001F052FA0099401A41
:102C80003C498842F1D303202BE002983168294067
:102C900088420CD230680121884302990143316097
:102CA000306805400298854201D0012019E0207863
:102CB000400706D50C4801682F4A0A40E1681143D5
:102CC000016000F019F82D49074A1268120912072D
:102CD000120F895CC8402A490860002001F0F2F90F
:102CE0000020FEBD341002400410024000100240DB
:102CF000FFFFFFFEFFFFC2FFF0B589B005A8214925
:102D0000102201F041FB01A81F49102201F03CFBF9
:102D1000002420000094250026001C490F680C2187
:102D20003940042902D0082902D01BE018481AE0D3
:102D30000F2005A9BA0C0240895C0E0001A90B4ABC
:102D400012681040085C0090F80306D510480099FE
:102D5000FEF7BBFC7043050002E00E48704305001F
:102D6000280000E00A4809B0F0BD00002C10024025
:102D70000020024089130000FFF8FFFFB847000859
:102D80000800002098470008A847000804100240E7
:102D900000127A0000093D00F8B584B00700002059
:102DA000029001908024640239682140002964D097
:102DB00069460870802040053B4D29680140002984
:102DC00009D12968014329602968084003900398C4
:102DD000012069460870354E3068C00512D430684D
:102DE000802149000143316001F09AF90290306876
:102DF000C00507D401F094F90299401A6528F6D36A
:102E000003204FE0C0208000294E3168014001912D
:102E10000199002923D001997A68104081421ED07F
:102E200030682449014001913068044334603068BF
:102E3000214901403160019830600198C0070ED5EA
:102E400001F06EF902903068800708D401F068F94B
:102E50000299401A19498842F5D3032022E03068CC
:102E600014490140786808433060684600780128BA
:102E700003D128681249014029603878C00706D577
:102E80001048016803229143BA680A430260387807
:102E9000800606D50B48016810229143FA680A4360
:102EA0000260002005B0F0BD1C1002400070004020
:102EB00020100240FFFCFFFFFFFFFEFF8913000010
:102EC000FFFFFFEF3010024010B50400002C01D1CD
:102ED00001205BE04120205C002805D1002040213A
:102EE0006054200000F0D4FC24204121605420686C
:102EF0000068012188432168086060682449014016
:102F00002068016123482168896801402268916036
:102F1000E168012906D1A168802212020A432168D2
:102F20008A6005E0A168842212020A4321688A604F
:102F3000E168022903D180210901226851602168DA
:102F40004968154A0A4321684A602168C9680840EF
:102F50002168C860206961690143A06900020843D3
:102F60002168C860E069216A014320680160206827
:102F70000068012101432068016000206064202175
:102F80004122A154206342216054002010BD000062
:102F9000FFFFFFF0FF7FFFFF00800002FEB582B061
:102FA00004000F004120205C202800D0C5E00A98D2
:102FB000002803D06846808D002804D1802080003E
:102FC00060640120BAE04020205C012801D1022089
:102FD000B4E001204021605401F0A2F80600009600
:102FE0001923012280210902200000F01FFA002885
:102FF00001D00120A2E02120412160544020422143
:103000006054002565640A9860626846808D60851A
:10301000656301960C9800906846038A6846828929
:10302000390089B2200000F065F9002803D0402063
:103030002554012082E0608DFF280DD9FF202085D6
:103040000020009080235B04228DD2B2390089B227
:10305000200000F0BCFA0CE0608D2085002000907C
:1030600080239B04228DD2B2390089B2200000F067
:10307000AEFA32000C99200000F004FA002801D0CA
:1030800001205BE0606A007821688862606A401C09
:1030900060629548618D09186185218D0818208529
:1030A000608D00282BD0208D002828D100960C9B05
:1030B00000228021200000F0B9F9002801D0012071
:1030C0003CE0608DFF280DD9FF2020850020009076
:1030D00080235B04228DD2B2390089B2200000F037
:1030E00076FA0CE0608D20850020009080239B0400
:1030F000228DD2B2390089B2200000F068FA608DCA
:103100000028B6D132000C99200000F0E7F9002821
:1031100001D0012012E020202168C861216849689F
:10312000724A0A4021684A604121605428004221C5
:10313000605440202554002000E0022005B0F0BD7E
:10314000FEB582B004000F004120205C202800D092
:10315000C7E00A98002803D06846808D002804D173
:103160008020800060640120BCE04020205C0128B9
:1031700001D10220B6E001204021605400F0D0FFD0
:10318000060000961923012280210902200000F088
:103190004DF9002801D00120A4E0222041216054F3
:1031A000402042216054002565640A9860626846A8
:1031B000808D6085656301960C9800906846038A4F
:1031C00068468289390089B2200000F0D6F80028CC
:1031D00003D040202554012084E0608DFF280DD9C4
:1031E000FF2020854248009080235B04228DD2B2CC
:1031F000390089B2200000F0EAF90CE0608D2085EA
:103200003B48009080239B04228DD2B2390089B2C2
:10321000200000F0DCF900960C9B00220421200025
:1032200000F004F9002801D001205BE02068406A2A
:10323000616A0870606A401C60622B48218D091821
:103240002185618D08186085608D00282BD0208D28
:10325000002828D100960C9B00228021200000F03D
:10326000E5F8002801D001203CE0608DFF280DD951
:10327000FF2020850020009080235B04228DD2B2A5
:10328000390089B2200000F0A2F90CE0608D2085A1
:103290000020009080239B04228DD2B2390089B295
:1032A000200000F094F9608D0028B4D132000C9910
:1032B000200000F013F9002801D0012012E02020A6
:1032C0002168C86121684968084A0A4021684A6043
:1032D00041216054280042216054402025540020A0
:1032E00000E0022005B0F0BDFFFF000000E800FE96
:1032F00000240080FBB504001700089E099D40488B
:10330000009080235B0468460289D2B268468188B7
:10331000200000F05CF92A003100200000F0B2F833
:10332000002801D0012027E068460089012804D147
:103330003800C0B22168886212E0380080B2000A0A
:10334000C0B2216888622A003100200000F09AF89B
:10335000002801D001200FE03800C0B22168886247
:103360000095330000228021200000F05FF8002843
:1033700001D0012000E00020FEBDFBB504001700D5
:10338000089E099D1E480090002368460289D2B21B
:1033900068468188200000F01AF92A0031002000D8
:1033A00000F070F8002801D0012027E0684600896D
:1033B000012804D13800C0B22168886212E03800C8
:1033C00080B2000AC0B2216888622A003100200061
:1033D00000F058F8002801D001200FE03800C0B2FA
:1033E000216888620095330000224021200000F00F
:1033F0001DF8002801D0012000E00020FEBD0000E3
:103400000020008000B501688969890702D5002184
:10341000026891620121026892690A40002A04D17F
:103420000268926911430268916100BDF4B504001D
:103430000F001D00069E206880693840B84201D107
:10344000012000E0002069460978884218D1002058
:10345000C0438542EFD000F063FE801B854201D35C
:10346000002DE8D12020616C01436164412160544A
:10347000002001004222A15440216054012000E0BC
:103480000020F2BD70B504000D00160020688069B0
:10349000800721D432002900200000F048F80028DD
:1034A00001D0012019E00020C0438542EED000F099
:1034B00037FE801B854201D3002DE7D12020616CAF
:1034C0000143616441216054002001004222A15463
:1034D00040216054012000E0002070BDF8B50500D7
:1034E0000E001700202428688069204000281CD185
:1034F0003A003100280000F01AF8002801D001201D
:1035000014E000F00DFEC01B864201D3002EE9D16D
:10351000686C2043686441202C5400200100422242
:10352000A95440216854012000E00020F2BDF4B508
:1035300004000F001025206880692840002844D02E
:1035400020684068800106D4206840688021C90155
:1035500001432068416020262068806930400028AF
:1035600018D10020C0438742F5D000F0D9FD009962
:10357000401A874201D3002FEDD1606C3043606464
:1035800041202654002001004222A15440216054D1
:1035900001201BE02068C5612068C6612000FFF79C
:1035A00031FF206840681649014020684160606C26
:1035B000042101436164412026540020010042227D
:1035C000A15440216054012000E00020F2BDF0B47D
:1035D000049C05686D68660D0A4F3743BD430E00B5
:1035E000B6B2B605B60D2E431500EDB22D04354327
:1035F0001D43254306687560F0BC7047000000005D
:1036000000E800FEFF63FF0310B502004120105CDC
:1036100020282AD14020105C012801D1022025E079
:10362000012003004024135524234124135513681B
:103630001B680124A3431468236013681B682C4C87
:103640001C4013681C6013681B680B4314682360DC
:1036500013681B6818431368186020204123D05456
:1036600000204023D054002000E0022010BD10B5FF
:1036700002004120105C202827D14020105C012846
:1036800001D1022022E0012003004024135524230D
:103690004124135513681B680124A3431468236055
:1036A00013681B68134C1C400B02234314682360EF
:1036B0001468246820431468206020204124105599
:1036C000002040241055002000E0022010BD81B0F1
:1036D0000121094A13680B431360126811400091DD
:1036E000009906490A6802430A6001B07047000069
:1036F000FFEFFFFFFFF0FFFF181002400000014046
:1037000070B502003C20105C012801D1022024E0A9
:1037100001203C23D05402233D24135513685D68D7
:1037200013689B687024A5430C682C4315686C6073
:103730001568234EB54203D01568224EB54206D116
:103740008025AB431D004B682B431568AB603D25BE
:10375000505500203C255055002070BD30B502006A
:10376000002003003C24145D012C01D1022023E041
:1037700001243C255455FF24A343CC681C43124D1F
:1037800025408B682B43114C1C404B682343104C45
:103790001C400B6823430F4C1C400B692343074C10
:1037A0001C404B6923430C4C1C40CB6923431468D9
:1037B00063643C241055002030BD0000FFDFFFFF94
:1037C000002C014000040040FFFCFFFFFFFBFFFF57
:1037D000FFF7FFFFFFEFFFFFFFBFFFFF81B00120FB
:1037E0007E490A6802430A60096808400090009810
:1037F0008020400596490A6802430A60096808402B
:103800000090009801B07047F8B586B00700142208
:10381000002101A8FEF768FF38688E49884235D13B
:103820008024A4006D4801682143016000682040A5
:10383000009000988020800287490A6802430A604D
:10384000096808400090009807200190032002902A
:103850000025039501A99020C00500F0FBF97F4EDB
:10386000B14830607560B5608020F06034618020C0
:10387000000170612020B061F561300000F056FC5D
:10388000002801D0FDF7F4FE3E63776207B0F0BD7B
:1038900010B586B004001422002101A8FEF724FF11
:1038A0002068A049884221D18020C0026A490A6864
:1038B00002430A600968084000900098C020019007
:1038C0001220029000200390032004900120059014
:1038D00001A9964800F0BEF98020800395490A6846
:1038E00002430A60096808400090009806B010BDC5
:1038F00010B586B004001422002101A8FEF7F4FEE2
:1039000020688B4988422FD18020000133490A6802
:1039100002430A60096808400090009880208002F5
:103920004D490A6802430A600968084000900098FF
:10393000C0208000019012200290002003900320FC
:1039400004900220059001A99020C00500F082F9A2
:103950008020C003FFF7BBFE002202210E2000F0F2
:1039600056F90E2000F05DF906B010BD10B586B016
:1039700004001422002101A8FEF7B6FE20686E495B
:10398000884228D1022032490A6802430A60096845
:103990000840009000988020C0022F490A68024326
:1039A0000A600968084000900098302001901220B9
:1039B000029000200390032004900120059001A9AB
:1039C0005A4800F047F900220221102000F01FF9A8
:1039D000102000F026F906B010BD000018100240BB
:1039E0001CB5040020685549884212D1802040004F
:1039F00017490A6802430A60096808400090009865
:103A000000220221132000F002F9132000F009F92E
:103A10001CE020684A4988420AD18021890249482D
:103A200002680A43026000680140009100980DE0BE
:103A300020684549884209D18021C902414802686D
:103A40000A430260006801400091009813BD000025
:103A50001C1002400024014014100240700A002093
:103A600010B586B00400142200216846FEF73CFE23
:103A700020683149884217D18021C9023348026841
:103A80000A430260006801400591059801200090FA
:103A900002210191002102910321039104906946C2
:103AA000224800F0D7F83AE020682549884219D129
:103AB00080218902254802680A43026000680140AB
:103AC000059105984020009002200190002002906E
:103AD000032003900520049069469020C00500F063
:103AE000B9F81CE020681849884218D18021890261
:103AF000164802680A430260006801400591059873
:103B0000802000900220019000200290032003906A
:103B10000520049069469020C00500F09BF806B08F
:103B200010BD00000054004008000240000400489E
:103B3000002C01401C100240000400400020004006
:103B40000044014018100240004801401410024097
:103B500000B5010049B2002905D40121C206D20EE8
:103B60009140364A116000BDF0B5020052B2002A01
:103B700017D41822324B040064B2A408A4001C59C4
:103B8000FF25C6001640B540AC438D01EDB2C6001E
:103B9000324095402543020052B2920892009D5057
:103BA0001BE00F22274B182405006DB21540083D7D
:103BB000AD08AE0005006DB22A40083A92089200A6
:103BC0009A58FF25C7002740BD40AA438D01EDB29A
:103BD000C7003C40A54015439D51F0BD10B5040001
:103BE000601E80214904884201D301200EE0601E3E
:103BF0001549086003210020C043FFF7B5FF0020EE
:103C000012490860072012490860002010BD70B5F5
:103C100005000C0016002100280040B2FFF7A4FFA9
:103C200070BD10B50400200040B2FFF791FF10BD39
:103C300010B504002000FFF7D1FF10BD00E100E047
:103C400000E400E01CED00E014E000E018E000E01B
:103C500010E000E0FEB500220B68D340002B00D13D
:103C6000DAE001230C681D00954025400195019C78
:103C7000002C00D1CEE003244D682540012D03D057
:103C80004D682540022D19D1866815006F0025006A
:103C9000BD40AE43CD6817007F00BD403543009561
:103CA000009D856046681D009540AE434D682D0916
:103CB0001D40954035430095009D45604D68254069
:103CC000032D0DD0C66815006F002500BD40AE4322
:103CD0008D6817007F00BD4035430095009DC5608D
:103CE0004D682540022D1DD1D508AD0045192D6A1E
:103CF00000951C25009EB4460F271600B6002E40E6
:103D0000B7406646BE433700BC460E691700BF0089
:103D10003D40AE4067463E430096D508AD0045198C
:103D2000009E2E62066815006F002500BD40AE4360
:103D30004D68254017007F00BD4035430095009D2C
:103D400005604D68C026B6022E40002E62D0484D58
:103D50002E681E432E602D681D400295029D454D24
:103D60009608B600AE5900960F27BC461600B7005D
:103D70000C263E406746B740009EBE439027FF0595
:103D8000B84201D100230DE03B4FB8420AD03B4B73
:103D9000984201D1022305E0394B984201D123001A
:103DA00000E005231400A4000C272740BB40334348
:103DB0009408A4002B51334D2C68019EB4434E68E7
:103DC000F60302D52300019C1C432C602E4D2B686A
:103DD000019EB3434E68B60302D51C00019B2343EA
:103DE0002B602A4D2C68019EB4434E68F60202D522
:103DF0002300019C1C432C60254B1D68019EB5438C
:103E000000954D68AD0203D5009C019D25430095AA
:103E1000009C1C60521C1FE7F7BD00B50200106932
:103E20000B009BB21840002801D0012000E00020C8
:103E3000C0B200BD00B51300DBB2002B03D00B00F5
:103E40009BB2836102E00B009BB2836200BD10B5A0
:103E5000040010480168220092B21140002906D0E7
:103E6000210089B20160200080B2FDF77FFB10BD08
:103E700018100240080001400004004800080048F3
:103E8000000C004800040140040401400804014003
:103E90000C040140140401409D2102000AD002D408
:103EA000491E9218FCD5C905100A1206524100D3CA
:103EB000012A48417047000030B405004D400122FE
:103EC000D20715404B180418240E2ED01B0E32D0EA
:103ED000FF2C34D0FF2B3AD0E41800020902104323
:103EE0001143000A090A9446C2B24A43000AC3B207
:103EF0004B43000A4843110A5B181A43D2B2190A0D
:103F0000091801D44918641E080A7F3C23DBFE2CE3
:103F100008DAE405090611436346994160412843E4
:103F200030BC7047FF20C005F9E728001B0EFF2BAF
:103F3000F6D1D043F4E72800FF2CF1D1F9E7400295
:103F4000F7D1FF2B01D14902F3D1E005E7E7D8050E
:103F50004902E4D0EDE743020020641CDFD15B128C
:103F60009B1CDCD9D805DAE70122D20703004B40BD
:103F70002ED4431A01D2C01AC91830B44B180418F1
:103F8000240E1B0E22D0FF2C20D0E31A182B1DDC90
:103F900009021143C40D641E000210439446192502
:103FA000ED1A0A00AA40D940451801D36D08A41C97
:103FB000E405D209280A2D062A436546AA41604134
:103FC00003181B0EFF2B01D3C00DC00530BC70477A
:103FD000514006E05140CCE70122D20703004B409C
:103FE000F8D4431A03D2C01AC9185040514030B413
:103FF0004B18090211430418240E1B0E40D0FF2C4D
:104000003AD025009D410BD31ED8C50D4002401A61
:104010000BD3ED050100400AC90591416841D5E780
:10402000C50D40024918401AD0D001214008491C52
:104030000018FCD58C4204D36D1A000AED05401916
:10404000C4E7E8051040C1E7182DBFDCAC1C0D002B
:10405000E140E5414D40012D4941C40D00021043AE
:10406000451A01D46D199543641EE405280A2D06EE
:104070009541604130BC7047FF2BA7D1D843A5E7DD
:104080002442A3D10020A1E70122D2070118090E82
:104090007F3910D449421F310FD4001805D2C00116
:1040A0001043C84000D5D0437047C0011043C840FA
:1040B00005D440427047002070470042F3D51000FD
:1040C0007047FEE710B50400FA2080000E49097819
:1040D000FDF7FBFA01000D480068FDF7F6FAFFF75F
:1040E000A7FD002801D001200CE0042C09D20022F9
:1040F00021000020C043FFF78AFD0548046000202E
:1041000000E0012010BD00BF2200002008000020B8
:104110000400002070477047704770477047704731
:1041200001480068704700BFAC0B0020F8B50400E0
:1041300000252F00002C01D1012020E002202121A8
:104140006054206800680E49014060680843A16817
:104150000143E06808432169014360690843A1699C
:104160000143E6690E4320680660200000F0D0F8A5
:10417000A563012021216054202025540020F2BD98
:104180000FC0FFFFF7B504001F000020060020212C
:10419000615C012901D1022039E00125290020229A
:1041A000A1542121615C01292BD102212122A1549A
:1041B000A0632068006801218843216808603B00F3
:1041C000029A0199200000F08EF8E06A002806D0DB
:1041D000206800680E210143206801600BE0206820
:1041E00000680A21014320680160206800680421FA
:1041F00088432168086020680068054320680560DE
:1042000003E020216054022006003000C0B2FEBD51
:1042100070B50400E06B0568206806680420216C16
:1042200002008A402A40002A16D0064214D0216893
:104230000968890605D42168096804229143226827
:104240001160216C8840E16B4860E06A002849D029
:104250002000E16A884745E00220216C02008A4084
:104260002A40002A1CD006421AD021680968890613
:1042700008D4216809680A2291432268116001214B
:104280002122A154216C8840E16B4860002020214C
:104290006054A06A002825D02000A16A884721E048
:1042A0000820216C02008A402A40002A1AD030409F
:1042B000002817D0206800680E2188432168086014
:1042C0000120216C02008A40E16B4A60A063212139
:1042D0006054002020216054206B002802D0200070
:1042E000216B884770BD30B50124056CAC40C56BAF
:1042F0006C60046863604468102C04D10468A26098
:104300000468E16003E00468A1600468E26030BD15
:1043100010B504002068054940181421FDF7D5F9AF
:10432000800020640248E06310BD0000F8FFFDBF7C
:1043300000000240704770471206130A1A43130C1C
:104340001A4300BF094205D0830705D00270401C04
:10435000491EF9D1704700001300103906D330B45C
:104360001400150010393CC0FCD230BC490700D302
:104370000CC000D504C0890002D30280801C002933
:1043800000D502707047FEE770B4103A03D378C9C5
:10439000103A78C0FBD2530701D318C918C001D511
:1043A00008C908C0D20704D30B880380891C801C6D
:1043B000002A01D50B78037070BC704700B5FEE78A
:1043C00000B5FEE77047704770B589490888894A8B
:1043D0001288904231D3002002000A8086490A8860
:1043E000022A0BD1854A1388854C24881B1B138015
:1043F0000023D35E002B0AD5108008E0088801282E
:1044000005D17E4802887E4B1B88D21802807B48EB
:104410000022825E7B4B1B889A4202DB02220A80CA
:1044200005E00022825E002A01D101220A800021DB
:10443000405E75490968486302E00888401C0880AE
:1044400001252C0071480188491C01800188704AAF
:104450001288914200D2A4E0002101806D49888831
:104460000A8990424CD0881D8A880B89D21A028012
:1044700006228A5E002A08D50022D24314002200B8
:1044800052B2CB885343038001E028000400624805
:104490000088C8810620085E604A0023D25E9042F0
:1044A00008DB200040B2C822520050438A8880189E
:1044B000888011E05A480022805E06228A5E90427F
:1044C0000ADA8888220052B20623CB5E24265E4395
:1044D0008C3E724380188880488A8A88904202D233
:1044E000488A8880FFE78888088188884D4A126852
:1044F00050628888898AFDF7E5F84349096848636E
:10450000494988880A8990424BD0881D8A880B893E
:10451000D21A028006228A5E002A08D50022D243DF
:104520001400220052B2CB885343038000E02C00D9
:1045300039480088C8810620085E384A0023D25EC8
:10454000904208DB200040B2C822520050438A88C3
:104550008018888011E032480022805E06228A5E40
:1045600090420ADA8888220052B20623CB5E2425C4
:104570005D438C3D6A4380188880488A8A889042CF
:1045800002D2488A8880FFE7888808818888274A7D
:10459000126850628888898AFDF794F8244909686E
:1045A000486300F04BF870BD80B50220FFF74FFC68
:1045B00001BD80B50820FFF74AFC01BD80B5802011
:1045C0000002FFF744FC01BD80B51A48FFF720FE4A
:1045D00001BD80B51548FDF7EEFA01BD80B5114863
:1045E000FDF7E9FA01BD80B51348FDF7E4FA01BD16
:1045F000B40B0020180000201C000020B60B002087
:104600001E0000201A000020280A0020B20B002003
:1046100012000020F40A00201000002014000020E6
:104620001600002050090020180B00200809002067
:10463000E0090020700A0020980900200348016862
:10464000034A127889180160704700BFAC0B002044
:104650002200002070B40123002413E00168001D33
:10466000194202D04D466918491E0C60091D121FDF
:10467000042AFAD20D00960701D50C80AD1C1A4011
:1046800000D02C700268001D002AE7D170BC704772
:1046900030B401220EE00368C318446808301442A5
:1046A00002D04D462C19641E1D6825601B1D241D5B
:1046B000091FF9D10168001D0029ECD130BC7047F9
:1046C00010B5074979441831064C7C44163404E08F
:1046D000081D0A68891888470100A142F8D110BD59
:1046E0002C0000004C0000005E01000004000000EF
:1046F00000127A00E80364001E001E000F00040090
:1047000001000032010004000A5A010049FFFFFFC6
:104710009C0B0000240000200000000075FFFFFF3C
:1047200024000000C4FFFFFF000000200000000084
:1047300000F00DF8002801D0FFF7C2FF00BF00BF56
:10474000002000BF00BFFBF7B3FC00F002F801201F
:10475000704780B500F002F801BDFEE70746384615
:1047600000F002F8FBE7FEE780B500BF00BF024A99
:1047700011001820ABBEFBE72600020005480146E9
:1047800003B4684680F3098800BF00BF00BF00BFC4
:10479000FFF7CEFFA5EDF5FE0203040506070809A5
:1047A0000A0B0C0D0E0F101001020304050607087A
:1047B000090A0B0C0D0E0F10000000000000000095
:1047C0000102030406070809014880470148004721
:1047D000E94700087D470008FEE7FEE7FEE7FEE741
:0A47E000FEE7FEE7FEE7FEE7704784
:040000050800477D2B
:00000001FF
