:020000040800F2
:10000000080F0020554D000885490008894900085F
:1000100000000000000000000000000000000000E0
:100020000000000000000000000000008D490008F2
:1000300000000000000000008F49000891490008FE
:100040007718000800000000AF190008B34300084B
:10005000DB430008414B00084B4B0008554B0008A0
:1000600000000000614B0008E74500084F49000808
:100070006D4C0008E74C00086B4B000800000000C6
:10008000754B000800000000000000007F4B0008D6
:1000900000000000F34C0008654D0008674D0008A3
:1000A00000000000694D0008000000006B4D0008D2
:1000B000F8B501F0E1FB00F06EF800F0A1FA00F0F5
:1000C00085FA00F0AAF800F01BF900F065F900F0DD
:1000D000DBF900F0EEF800F0BFF900F025FAA44CCF
:1000E000A4482060A4486060A060A448E060A448E0
:1000F000C06801F0D1FB606100202061A148E0618F
:10010000A148A061A1482062A14DC8200002288317
:10011000A04E3083CA48C0689949C96801F0F0FB15
:10012000A883C84FF868C849C96801F0E9FBB083E3
:10013000C6486862C6482862FE2080053062C5490C
:100140008860FA200001B080B088B18B01F0D5FB47
:10015000BD49096848633C21380001F0B1FD3C21EC
:10016000B74801F0ADFD0021B74801F0CBFC0021FC
:10017000834801F0C7FCC14801F061FCC04D280074
:1001800002F0BCF80322BF49280002F003FA200065
:1001900002F0C6FBFEE738B594B03022002108A873
:1001A00002F044FC10220021684602F03FFC1022BD
:1001B000002104A802F03AFC0320089001200990D5
:1001C0000B9010200C90022410948020400211907B
:1001D0008020400312900025139508A802F030FCFF
:1001E000002801D001F044FB072000900194029503
:1001F00003950121684602F083FE002801D001F03A
:1002000037FB20200490079504A802F067FF002820
:1002100001D001F02DFB15B030BD7FB50C220021BF
:10022000684602F003FC964CBE4820608020000621
:1002300060600026A660E6600125256104206061FB
:1002400030002076300060762800A0763000E0761E
:10025000FF20C230E0612662280024216054A6629B
:10026000200002F0B9F8002801D001F001FB00964F
:10027000802040010190062002906946200002F093
:10028000E9F9002801D001F0F3FA00956946200051
:1002900002F0E0F9002801D001F0EAFA0220009013
:1002A0006946200002F0D6F9002801D001F0E0FAFA
:1002B0007FBD10B5C34CC4482060CE4860600020AC
:1002C000A0600121E16020616061A061E0612062C5
:1002D000200002F09BFF002801D001F0C9FA0021A4
:1002E000200003F033FB002801D001F0C1FA002107
:1002F000200003F05EFB002801D001F0B9FA10BD28
:1003000030B58BB02422002102A802F08FFB082216
:100310000021684602F08AFB4A4CB748206000255D
:100320006560A560B548E06025616561A561032051
:10033000029003950120049005950A2106910795E6
:10034000089009950A9502A9200001F04FFC0028A9
:1003500001D001F08DFA009501956946200003F067
:1003600071FB002801D001F083FA0BB030BD000012
:10037000540A0020CDCCCC3DCDCC4C3E0AD7233CFA
:100380001009002000504347005043C7FAED6B3975
:10039000DC090020180A002038B592B02422002180
:1003A00009A802F043FB08220021684602F03EFB48
:1003B0001C22002102A802F039FB214CCC4820600D
:1003C00000256560A5608D48E0602561A56120007D
:1003D00001F06AFB002801D001F04AFA03200990DD
:1003E0000A9501200B900C950A210D910E950F9006
:1003F0001095119509A9200001F0F8FB002801D003
:1004000001F036FA009501956946200003F01AFBC9
:10041000002801D001F02CFA602002900395049589
:100420000695082202A9200001F0B7FD002801D09E
:1004300001F01EFA200003F0B5FC13B030BD00003F
:1004400038080020F0070020C80800203D0A7BC1C2
:10045000ACAD583F8C0A002080B50848A549016022
:10046000002141608160A44AC2600161816101F0A4
:100470009FFA002801D001F0FBF901BD800800209F
:100480009C090020B00A002030B58FB01C2200214A
:1004900008A802F0CBFA20220021684602F0C6FA32
:1004A000964D9748286000246C60AC60C82080019D
:1004B000E8602C616C61AC61280001F079FA0028D9
:1004C00001D001F0D5F9280001F0EEFA002801D0A2
:1004D00001F0CEF96020089009940A940B940C94D2
:1004E0000D940E94002208A9280001F056FD002862
:1004F00001D001F0BDF90094019402940394049496
:1005000080208001059007946946280003F0C8FA0E
:10051000002801D001F0ACF9280003F043FC0FB033
:1005200030BD00000024014030B58FB01C220021F6
:1005300008A802F07BFA20220021684602F076FA31
:10054000B74DB848286000246C60AC60C820000239
:10055000E8602C616C61AC61280001F029FA002888
:1005600001D001F085F9280001F09EFA002801D0A1
:1005700001F07EF96020089009940A940B940C9481
:100580000D940E94002208A9280001F006FD002811
:1005900001D001F06DF90094019402940394049445
:1005A00080208001059007946946280003F078FABE
:1005B000002801D001F05CF9280003F0F3FB0FB034
:1005C00030BD0000A40700200054004080B5012089
:1005D00095490A6802430A6009680840009000983B
:1005E00000220321092003F0B4FC092003F0BBFC26
:1005F00001BD00000E090020002C01400AC80000C7
:1006000070B586B014220021684602F00FFA8021EE
:10061000C903854802680A430260026811400591D7
:1006200005998021890202680A430260026811402C
:10063000059105998021C90202680A430260006899
:100640000140059105989026F6050022CE4930001C
:1006500003F092FD282000900125019500240294CA
:10066000032003906946300003F096FCC12000018E
:1006700000900195029403946946300003F08CFCCD
:100680000A2000908425AD03019502946946BF4875
:1006900003F082FC802000020090019502946946DC
:1006A000300003F079FC00220221052003F051FC08
:1006B000052003F058FC00220221062003F049FC2B
:1006C000062003F050FC00220221072003F041FC29
:1006D000072003F048FC06B070BD00B50020010003
:1006E00089B2CD4A914201DA401CF8E700BD000012
:1006F000000400400020004010270000C80800202F
:100700000044014000B501000800C0B200280ED02E
:10071000022824D017D3042839D02CD306284ED051
:1007200041D3082863D056D309286CD076E0002046
:10073000BA4A1080012353809380D3801381538160
:100740009381D0816AE00020B44A1080508090806C
:10075000D0801081012353819381D0815EE0AF4A24
:1007600001231380538000209080D3801381508117
:100770009381D08152E0A94A012313800020508048
:100780009080D380138153819381D08146E0A34A26
:1007900001231380002050809380D08010815381EA
:1007A0009381D0813AE09D4A01231380002050803C
:1007B0009380D380138153819081D0812EE0974A1A
:1007C0000120108050809080D080108150810020C6
:1007D0009081D08122E00020904A1080508090804B
:1007E000D0800123138153819381D08116E08B48FF
:1007F0000122028042808280C28002814281828105
:100800000022C2810AE0854A012313800020508023
:100810009380D380138153819381D0817F4800BD21
:10082000100900200048014014100240F1B582B0C8
:100830000C00642768460089390001F05EF86946BB
:100840000870684600780A281DDA68460078FFF7C5
:1008500059FF00210A001300DBB2082B4EDA704B5F
:100860002500EDB21600F6B2AD1959552500EDB2CE
:100870001600F6B2AD195B191500EDB26D00455BBF
:100880001D72521CE7E70A2668460078310001F025
:1008900034F8C0B2FFF736FF0190002528000100B0
:1008A000C9B208290FDA01990200D2B252008B5A5C
:1008B0005B4A94462200D2B20100C9B25118624686
:1008C0005354401CEBE768460078310001F015F8FE
:1008D0000800C0B2FFF716FF2900C9B208290DDAD7
:1008E0004F492200D2B22B00DBB2D21889182A005D
:1008F000D2B25200825A0A726D1CEDE7484E0120B6
:100900002100C9B27118C87368460089390000F027
:10091000F4FF684641700A2768464078390000F0C5
:10092000ECFFC0B2FFF7EEFE0190002528000100A9
:10093000C9B208290DDA2100C9B20200D2B2891861
:10094000721801990300DBB25B00C95A1174401C94
:10095000EDE768464078390000F0CFFF0800C0B2EC
:10096000FFF7D0FE2900C9B208290CDA2100C9B26C
:100970002A00D2B2891871182A00D2B25200825AC3
:100980000A766D1CEEE7F7BD380C00000004004845
:10099000F1B582B000242000C0B202283ADA0A265B
:1009A00068460089310000F0A8FFC0B2FFF7AAFE38
:1009B0000090002738000100C9B208290CDA00991C
:1009C0000200D2B25200895A154A0300DBB2D21893
:1009D0004023D154401CEEE7114D012047216854BB
:1009E00068460089310000F088FF0800C0B2FFF7B8
:1009F00089FE3900C9B208290ADA3900C9B24900AA
:100A0000415A3A00D2B2AA184823D1547F1CF0E7C9
:100A1000641CC0E7F7BD000011270000A00A0020F9
:100A200040070020F1B584B004986749884201D09E
:100A300000F05DFD049800F0E9FF644D287800287F
:100A400033D163480188634A1288914203D20188F6
:100A5000491C01809EE060480178002905D1994930
:100A600009885E4A118001210170964C5B4800881C
:100A700003F0B4FB5AA20CCA03F0C0FB02000B0047
:100A800016001F00208803F0A9FB32003B0003F092
:100A900077FC07D2E068401CE060E06858490968CC
:100AA000486377E00120287074E04F48854C018846
:100AB000A28A914241D24D4D4D4E288800F0ECFE65
:100AC0000100306803F076FC15D22988484200F016
:100AD000F3FE316803F06EFC0DD24A4845490968BF
:100AE0000160454909684160444909688160DE49FF
:100AF0000968C1600CE04348DC4909680160DC49D1
:100B000009684160DB4909688160DB490968C160A7
:100B1000208800F0C1FE02001500E08800F0BCFE55
:100B200001002A00374801F002FF03F057FCE060A3
:100B3000E0683349096848632CE0A18A0088814253
:100B400015D1A08A401CA0822088E080208800F077
:100B5000A3FE02001500E08800F09EFE01002A00BE
:100B6000284801F0E4FE03F039FCE06012E0208840
:100B700000F092FE02001500E08800F08DFE0100FA
:100B80002A00204801F0D3FE03F028FCE060A08A90
:100B9000401CA082B94CBA4E207830180079012848
:100BA00000D012E30821B74803F0D9FA00282BD16E
:100BB000B5482178490041182278520080184088B1
:100BC000401C488007E300BF80080020050B002080
:100BD000FC0A002032000020060B0020FE0A002044
:100BE00014AE47E17A14F03F300000202E000020C0
:100BF000EC0A002000000020040000200800002073
:100C000010090020540A0020FA25AD009E492078E2
:100C1000400008184088A84200DA3DE100200200A8
:100C20002378F3181A7122785200891848802078A6
:100C3000002842D123488188944A1170944E8088BC
:100C400080B2000A3070D14F0295012001908F4888
:100C5000009001231E22A021380002F041FBFFF783
:100C60003CFD029501200190009601231F22A02146
:100C7000380002F035FBFFF730FD86488188834A53
:100C80001170808880B2000A3070029501200190B6
:100C90007E48009001232022A021380002F020FB92
:100CA000FFF71BFD029501200190009601232122F0
:100CB000A021380002F014FB8DE22078012845D1F4
:100CC000004801E0DC0900208188704A1170704EF4
:100CD000808880B2000A3070AC4F029501200190EC
:100CE0006A48009001230A22A021380002F0F8FA95
:100CF000FFF7F3FC029501200190009601230B22DF
:100D0000A021380002F0ECFAFFF7E7FC6148818887
:100D10005E4A1170808880B2000A3070029501200E
:100D200001905A48009001230C22A021380002F0C3
:100D3000D7FAFFF7D2FC029501200190009601231B
:100D40000D22A021380002F0CBFA44E220780228DC
:100D500042D1EB4881884D4A11704D4E808880B257
:100D6000000A3070894F0295012001904748009099
:100D700001231422A021380002F0B2FAFFF7ADFCE3
:100D8000029501200190009601231522A021380030
:100D900002F0A6FAFFF7A1FC3E4881883B4A117099
:100DA000808880B2000A3070029501200190374897
:100DB000009001231622A021380002F091FAFFF7DB
:100DC0008CFC029501200190009601231722A0219E
:100DD000380002F085FAFEE12078032800D0FAE11D
:100DE000C7488188294A1170294E808880B2000A3C
:100DF0003070664F02950120019024480090012335
:100E00002822A021380002F06BFAFFF766FC029559
:100E100001200190009601232922A021380002F030
:100E20005FFAFFF75AFC1B488188184A11708088C6
:100E300080B2000A307002950120019013480090A2
:100E400001232A22A021380002F04AFAFFF745FCCC
:100E5000029501200190009601232B22A021380049
:100E600002F03EFAB7E100BF0C00002010000020A5
:100E700014000020180000201C000020000B00209F
:100E8000BC0A002000040048D40A0020010B002006
:100E9000020B0020180A0020207840000818408823
:100EA000642800DA8CE12078400008184088A842C5
:100EB00000DB85E1002002002378F3181A71227804
:100EC000520089184880217800295AD18C4E05217A
:100ED000F170E34902005123CA5402005223CA545C
:100EE00001225323CA5454228854029501200190B0
:100EF000DC48009001231E22A021244802F0C2FAFF
:100F0000D94F029501200190009701231F22A021B3
:100F10001E4802F0B7FAD348007839780902014335
:100F2000B180B088B18B00F0E8FCD0490968486313
:100F3000B088CF4909684862029501200190C948EC
:100F4000009001232022A021104802F09BFA029574
:100F500001200190009701232122A0210B4802F0DB
:100F600091FAD648BF4909783A7812020A4382803A
:100F70008188D34A126851638088D24909684862DF
:100F800029E1217801295DD15D4E01E0A40700200F
:100F90000321F170B24901225123CA5402005223A5
:100FA000CA5402005323CA54542288540295012083
:100FB0000190AC48009001230A22A021C24802F00F
:100FC00061FAA94F029501200190009701230B229D
:100FD000A021BD4802F056FAA248007839780902EB
:100FE0000143B180B088B18B00F087FC9F4909684C
:100FF0004863B0889E4909684862029501200190C3
:101000009848009001230C22A021AF4802F03AFA40
:10101000029501200190009701230D22A021AA48EA
:1010200002F030FAA5488F4909783A7812020A434B
:1010300082808188A24A126851638088A149096828
:101040004862C8E0217802295CD12D4E0421F1705C
:10105000834902005123CA5401225223CA54020078
:101060005323CA54542288540295012001907D488C
:10107000009001231422A021934802F003FA7A4F32
:10108000029501200190009701231522A0218E488E
:1010900002F0F8F973480078397809020143B18009
:1010A000B088B18B00F029FC704909684863B088AA
:1010B0006F490968486202950120019069480090D3
:1010C00001231622A021804802F0DCF902950120BC
:1010D0000190009701231722A0217B4802F0D2F94A
:1010E0007648604909783A7812020A4382808188FA
:1010F000734A1268516380887249096848626AE0DD
:10110000DC0900202178032965D1B84E0621F17051
:10111000534902005123CA5402005223CA54532295
:1011200088540120542288540295012001904D4892
:10113000009001232822A021634802F0A3F94A4F1E
:10114000029501200190009701232922A0215E48E9
:1011500002F098F943480078397809020143B180D8
:10116000B088B18B00F0C9FB404909684863B0887A
:101170003F49096848620295012001903948009072
:1011800001232A22A021504802F07CF90295012077
:101190000190009701232B22A0214B4802F072F905
:1011A0004648304909783A7812020A438280818899
:1011B000434A1268516380884249096848620AE0DC
:1011C000002021787118087105E00020B7492278C5
:1011D000520089184880C74D2078285C012800D02B
:1011E000B5E0802109029020C00502F0B8FF002878
:1011F0000AD1C1482178490041182278520080184C
:101200004088401C4880A8E0BB48FA218900227829
:101210005200821852888A4259DB00210A00237842
:10122000EA5422785200801841802078002821D189
:101230006E488278012A07D10A008270AF4A117085
:10124000C8210902018388E08178002900D084E068
:1012500001210A008270A94A1170818801837CE013
:1012600040070020030B0020040B00201009002081
:10127000380800202078012816D110488278012AE9
:1012800007D10A0082709E4A1170C82109020183A9
:1012900063E08178002960D101210A008270984AB8
:1012A00011708188018358E0207802280ED195487A
:1012B0005721415CCA43572142544EE0180A00208E
:1012C000C8080020F0070020A407002045E022788D
:1012D000520082185288642A3FDB2278520082181A
:1012E00052888A4239DA002631002278A9542178BE
:1012F000490040184680207800282ED02078012808
:101300000FD13A4D688A002827D0A878012824D127
:10131000A888A98B00F0F1FA7B49096848636E82BE
:101320001BE02078022818D0207803280CD1AF4881
:10133000418A002911D0817801290ED18188AC4AD7
:1013400012685163468208E020782E5405E00020A0
:10135000694922785200891848802078032807DBE1
:1013600000202070A3480168A34A0A40026008E0F8
:101370002078401C20709F4801688022D200891884
:1013800001609E4C2088401C20802088C42800DA00
:101390008EE0002626809024E40501221021200002
:1013A00002F0EAFE1021200002F0D9FE0028F9D058
:1013B00000221021200002F0DFFE0C4CA078002853
:1013C00002D0608A002819D1208800F065FA216ACD
:1013D00003F021F8616A03F076F802F0FFFF0500E0
:1013E000012D05DB2800208503E000BFDC0900207B
:1013F00026852021208DFFF719FA16E0608A8049A2
:10140000098888420BD3A08880B2800820822021DE
:10141000208AFFF70BFA608A401E608205E0608A2E
:10142000002802D0608A401E6082704CA07800289C
:1014300002D0608A002810D1208800F02DFA216A9D
:1014400002F0E9FF616A03F03EF802F0C7FF208571
:101450000021208DFFF7EAF916E0608A68490988C3
:1014600088420BD3A08880B2800820820021208A85
:10147000FFF7DCF9608A401E608205E0608A002880
:1014800002D0608A401E6082B24C208800F004FACC
:10149000A16802F0C0FFE16803F015F802F09EFFBA
:1014A0002082208AFFF774FA1EE000BFD40A0020D1
:1014B0002078C00712D49025ED05002220212800B5
:1014C00002F05AFE0F48218849104A4280186121D3
:1014D000425C0821280002F04FFE05E00122202195
:1014E0009020C00502F048FE049800F0A8FA05B06C
:1014F000F0BD00BFC80A0020E00A002095070020C8
:10150000960700204007002010090020F0B50400D5
:10151000914D0220E87000269048310051228154FC
:10152000310052228154310053228154310054221F
:1015300081548B4884422CD1281D2168496A01803E
:101540002F4909886982A9886A898F1A390009B2E6
:10155000844A914204DB310001802068466208E041
:10156000298BAA88914204D2298B0180A8882168FE
:101570004862A878002837D12888E880A888A98BF5
:1015800000F0BBF9E860E868AB4909684863AE82DF
:101590002AE0AA48844227D1144D281D2168496AAF
:1015A0000180174909886982A9886A89891A6D4A60
:1015B000914204DB310001802068466208E0298BFB
:1015C000AA88914204D2298B0180A88821684862A8
:1015D000A878002808D1A888A98B00F08EF9E860C7
:1015E000E868034909684863F0BD0000180A002054
:1015F000C808002014000048FFF30000F80A00208B
:101600002C000020F1B584B00C220021684601F0C6
:101610000DFA8B4800688B490860002421000800FF
:10162000C0B2032859DA2200864813009BB205682D
:101630006D1EAB422AD296239B00834D0800C0B298
:1016400058432F18100080B24600B4460800C0B2BC
:10165000584328181600B6B27600801940886646AE
:10166000B85368460E00F6B2B60080590E00F6B2C6
:101670005E43AB191500ADB26D005B5BC0186B46E5
:101680000D00EDB2AD005851521CCDE796229200EC
:101690006D4B0D00EDB255435D1906687600AE192D
:1016A000B61E6A4D0F00FFB2BF00ED5935806D4682
:1016B0000E00F6B2B600AD590E00F6B256439A19B6
:1016C000006840001018801E008828186A460B0029
:1016D000DBB29B00D050491CA1E71F4D594E00982A
:1016E000316800F00DF964214843642100F008F9E5
:1016F0002880574F0198316800F002F9642148436F
:10170000642100F0FDF838800298316800F0F8F8A4
:1017100064214843642100F0F3F80E490880A8785A
:10172000012808D1288B2988884204D22000494901
:1017300008702000A875B878012808D1388B434973
:101740004968884203D2200042490870AC7505B050
:10175000F0BD00008C0A0020DC09002040070020BA
:101760003808002031750000F8B5070000252C006E
:10177000380080B2082817D12800C0B2642808DADF
:101780000821354802F0EBFC002800D1641C6D1CD8
:10179000F2E72000C0B255284DDB01202F49304A26
:1017A00012788918087146E0802636023800310028
:1017B00080B2884217D12800C0B2642809DA31000B
:1017C0009020C00502F0CBFC002800D1641C6D1CE9
:1017D000F1E72000C0B255282DDB01202149204A25
:1017E0001278885427E0380080B2022823D12E00D6
:1017F0003000C0B2642808DA0221174802F0AFFCBA
:10180000002800D1641C761CF2E72000C0B25528E5
:1018100011DB1548817D002907D114490122592384
:10182000CA545823CA54827505E0104959228D5470
:1018300058228D548575F1BD10090020F007002055
:1018400020000020F00A002038000020B00A00200C
:10185000180A00209907002000040048BC0A002054
:10186000000B0020C80A0020DC09002040070020EF
:1018700000B572B6FEE7FEE780B5064801681022A3
:101880000A430260002002F0AFFE02F049F9002096
:1018900002BD0000002002409D2102000AD002D4B7
:1018A000491E9218FCD5C905100A1206524100D3F0
:1018B000012A4841704700009D210200EED55242A6
:1018C000F446FFF7EBFF0122D20710436047F446CE
:1018D000002804D4494200F013F8404260474042D7
:1018E000002905D45FD000F00BF840424942604720
:1018F000494200F005F84942604703460B43E6D4ED
:101900000022030A8B420BD203098B4219D24308EF
:101910008B422ED2411A00D20146524110467047E6
:10192000FF2209023FD012068B4205D31212090290
:101930008B4201D31212090203098B4219D300E032
:10194000090AC3098B4201D3CB01C01A5241830952
:101950008B4201D38B01C01A524143098B4201D300
:101960004B01C01A524103098B4201D30B01C01A2B
:101970005241C3088B4201D3CB00C01A52418308A5
:101980008B4201D38B00C01A524143088B4201D3D2
:101990004B00C01A5241884200D3401A5241CFD264
:1019A00001461046704708B502F046FE08BDFEE746
:1019B00010B50400002C01D1012026E03D20205C60
:1019C000002805D100203C216054200002F0AAF933
:1019D00002203D216054211D206800F05FFB0120A2
:1019E000462160543E2160543F21605440216054A0
:1019F0004121605442216054432160544421605489
:101A0000452160543D216054002010BD00B5010007
:101A10000868006A204A0240002A0BD10868006A60
:101A20001E4A0240002A05D108680068012290433E
:101A30000A68106001203D228854002000BD10B5C6
:101A400001003D20085C012801D0012023E0022094
:101A50003D23C85401200B68DB6803430C68E36036
:101A60000B680F4CA34203D00B680E4CA3420CD161
:101A70000B689B685B075B0F1A00062A0AD00B688D
:101A80001B6818430B68186004E00B681B68184358
:101A90000B681860002010BD111100004404000004
:101AA000002C01400004004010B50400002C01D1BE
:101AB000012026E03D20205C002805D100203C21AB
:101AC0006054200002F0F4F802203D216054211DF2
:101AD000206800F0E3FA0120462160543E21605462
:101AE0003F216054402160544121605442216054A0
:101AF0004321605444216054452160543D21605489
:101B0000002010BD70B504000D00002D02D13E2054
:101B1000205C0BE0042D02D13F20205C06E0082D64
:101B200002D14020205C01E04120205C012801D04E
:101B3000012052E0002D04D102203E216054C0B2A9
:101B400011E0042D04D102203F216054C0B20AE00C
:101B5000082D04D1022040216054C0B203E00220CD
:101B600041216054C0B201222900206800F0B4FB7A
:101B70001A482168814207D02168194A914203D04E
:101B80002168184A914201D1012100E00021C9B227
:101B9000002906D02168496C802212020A4321687C
:101BA0004A642168814203D020680F4988420DD1E0
:101BB000206880684007400F0600062E0CD0206881
:101BC0000068012101432068016005E02068006889
:101BD0000121014320680160002070BD002C0140FC
:101BE00000440140004801400004004070B504007A
:101BF0000D00002C01D1012059E03D20205C00287F
:101C000005D100203C216054200002F013F802208E
:101C10003D2160542068806825490140206881602A
:101C2000211D206800F03AFA2068836820688269E4
:101C30002068006A296819431E4B1340AE681E4392
:101C4000AA69120232431C4B13401C4A1A40EB682B
:101C50001343EA6912021A432B691B0113432A6AD0
:101C600012031A4322239843882398436E6806433D
:101C700068690301334320688160206882612068BD
:101C800003620126462026543E2026543000C0B26E
:101C90003F2026543000C0B2422026543000C0B24B
:101CA000432026543000C0B23D202654002070BD91
:101CB000F8BFFFFFFCFCFFFFF3F3FFFF0F0FFFFF79
:101CC000F8B504000D003E20205C694648703F20B6
:101CD000205C694608704220275C4320265C002D6A
:101CE00012D168464078012803D13800C0B20128DB
:101CF00001D001207AE0022001003E22A154C9B2A5
:101D000042216054C0B236E0042D12D168460078FA
:101D1000012803D13000C0B2012801D0012065E0C4
:101D2000022001003F22A154C9B243216054C0B235
:101D300021E06846407801280BD1684600780128E8
:101D400007D13800C0B2012803D13000C0B2012849
:101D500001D001204AE0022001003E22A154C9B274
:101D600001003F22A154C9B201004222A154C9B2CC
:101D700043216054C0B22800002802D004280CD0AF
:101D800017E001220021206800F0A6FA2068C06850
:101D9000022101432068C16021E001220421206862
:101DA00000F09AFA2068C068042101432068C160ED
:101DB00015E001220021206800F08EFA01220421A2
:101DC000206800F089FA2068C06802210143206879
:101DD000C1602068C068042101432068C160206898
:101DE000006801210143206801600020F2BD70B548
:101DF0000400022620680069304000281CD02068BA
:101E0000C0683040002817D00220C0432168086114
:101E100001202077206880698007800F002803D088
:101E20002000FFF773FB05E0200002F006FC200015
:101E300002F004FC00202077042520680069284077
:101E400000281CD02068C0682840002817D0042033
:101E5000C04321680861267720688069C021890015
:101E60000140002903D02000FFF750FB05E02000CF
:101E700002F0E3FB200002F0E1FB002020770826BF
:101E800020680069304000281BD02068C0683040BE
:101E9000002816D00820C0432168086125772068F3
:101EA000C0698007800F002803D02000FFF72EFBB9
:101EB00005E0200002F0C1FB200002F0BFFB002083
:101EC0002077102021680969014000291CD0216871
:101ED000C9680840002817D01020C0432168086155
:101EE00026772068C069C02189000140002903D0FD
:101EF0002000FFF70BFB05E0200002F09EFB200016
:101F000002F09CFB00202077012021680969014034
:101F100000290BD02168C9680840002806D001209C
:101F2000C043216808612000FEF77CFD8020216805
:101F30000969014000290BD02168C96808400028C0
:101F400006D08020C04321680861200002F077FBA2
:101F5000402021680969014000290BD02168C96827
:101F60000840002806D04020C043216808612000B6
:101F700002F066FB202021680969014000290BD08E
:101F80002168C9680840002806D02020C043216885
:101F90000861200002F055FB70BDF4B504000E008E
:101FA00000252F003C20205C012801D1022071E097
:101FB00001203C2160540099002906D004291BD03F
:101FC000082932D00C2947D05FE03100206800F0AA
:101FD0009AF820688069082101432068816120689F
:101FE000806904218843216888612068806931699B
:101FF00001432068816149E03100206800F0BBF8AE
:10200000206880698021090101432068816120687E
:1020100080692149014020688161206880693169B7
:10202000090201432068816130E03100206800F03E
:10203000D9F82068C069082101432068C16120687F
:10204000C069042188432168C8612068C06931697A
:1020500001432068C16119E03100206800F0F7F801
:102060002068C0698021090101432068C16120689E
:10207000C069094901402068C1612068C0693169AF
:10208000090201432068C16100E007003C2025549B
:102090003800C0B2F2BD0000FFFBFFFF10B50368BF
:1020A0007F4A904202D07F4CA04204D17024A343C7
:1020B0001C004B68234390420BD07A4CA04208D0BE
:1020C000794CA04205D0794CA04202D0784CA04275
:1020D00003D1784C1C40CB6823438024A3434C6934
:1020E0001C4304608B68C3620B688362904205D016
:1020F0006E4A904202D06E4A904201D10A69026350
:102100000122426110BD70B5026A01239A43026246
:10211000056A4368846970229443032294430A68E1
:1021200022430224A5438C682C435D4DA84205D070
:102130005E4EB04202D05E4EB04206D10826B44395
:102140002600CC6834430426B443A84205D0574D3A
:10215000A84202D0564DA84207D1574D1D40594BB9
:102160002B404D691D438B692B43436082614D6851
:102170004563046270BD70B5026A10239A4302621F
:10218000036A426884694D4D25404A4E2E400C68D2
:10219000240234432025AB438D682D011D43404B61
:1021A000984207D18026B5432E00CD682D013543D6
:1021B0004026B543984205D03C4B984202D03C4B58
:1021C000984209D13E4B13403F4A1A404B699B004D
:1021D00013438A6992001A43426084614B688363A7
:1021E000056270BDF0B5026A334B13400362046AA6
:1021F0004268C56970239D4303239D430B682B43AD
:10220000304D25408C6824022C43254DA84206D130
:102210002D4E2640CC6827023743294C3C40A8422B
:1022200005D0224DA84202D0214DA84209D1274D08
:102230001540274A2A404D692D0115438A6912012C
:102240002A434260C3614D68C5630462F0BD70B546
:10225000026A1E4B13400362036A4268C469174D49
:102260002540144E2E400C6824023443184D1D4066
:102270008B681B032B430A4DA84205D00B4DA84287
:1022800002D00B4DA84204D1124D15404A6992016B
:102290002A434260C4614D680564036270BD00005A
:1022A000002C014000040040002000400044014098
:1022B00000480140FFFCFFFFFFFEFFFFFF8FFFFF15
:1022C000FFFBFFFFFFFDFFFFFFF7FFFFFFEFFFFF3C
:1022D000FFDFFFFFFFBFFFFF70B41F2301240D00CE
:1022E0001D40AC40056AA5430562056A0E003340F7
:1022F00016009E402E43066270BC7047FEB5040077
:1023000000252F00019500953420205C012801D183
:1023100002205EE001263000342160540320216851
:102320008968014001290AD12168096831400029E2
:1023300003D12168C968090401D5310000E02900F2
:1023400000293DD1A16B234A0A4002211143A16318
:102350002168C968084000902068C068032188434C
:102360002168C860206880688021090601432068D0
:10237000816002F067F9019020688068002813D519
:1023800002F060F90199401A0328F5D320688068AB
:102390000028F1D5A06B0221884310210143A163DD
:1023A00034202554012014E02068C06800990143BE
:1023B0002068C160A06B022188430643A66304E045
:1023C000A06B20210143A16337003420255438003D
:1023D000C0B2FEBDFFFEFFFFF8B5040000252F00D0
:1023E0002E00002C01D10120CCE0A06B002806D1EA
:1023F000E563280034216054200001F0A7FB102081
:10240000A16B0140002900D0B5E004222168896851
:102410001140002900D0AEE0A36B5B4919400223B4
:102420000B43A363216889688907890F01290AD1B1
:10243000012123681B680B40002B03D12368DB6854
:102440001B0400D500E0290000290FD12168C968CC
:1024500018239943A3680B432168CB60216809695D
:102460008B009B0861681943236819612168CB6858
:10247000464919402368D960A16A012902D0802108
:10248000490100E029002369022B00D02A00237EA5
:102490009B033343667EF6031E43A37E5B033343F5
:1024A0001943E3680B431A432421615C4E00164331
:1024B000E17E01290FD1A17E002904D131008026BF
:1024C00076020E4307E0A16B20220A43A263E16B70
:1024D00001220A43E263E169FF22C232914203D042
:1024E000E1693143266A0E432168C9683143226895
:1024F000D160E16A80225205914214D0E16A01293B
:1025000011D0E16A02290ED0E16A03290BD0E16AF9
:10251000042908D0E16A052905D0E16A062902D01C
:10252000E16A07290ED1216849690722914322688F
:102530005161216849692C22A25C5207520F0A435B
:1025400021684A612168C968114A0A40B24207D12C
:10255000E563A06B0221884301210143A1630FE0E1
:10256000A16B022291430843A0630120E16B014368
:10257000E163070004E0A16B0843A06301200700AA
:102580003800C0B2F2BD0000FFFEFFFF1902FEFFDF
:10259000E7FF3F83F7B5040000252800694608706F
:1025A0000427206880683840002844D13420205C0B
:1025B000012801D1022043E001263000342160547B
:1025C000607E012804D0200000F0F0F86946087011
:1025D00068460078002831D1A06B1A49014080205C
:1025E00040000843A063E563342025541648216B5E
:1025F00088621648216BC8621548216B08631C204D
:10260000216808602068406810210143206841600B
:102610002068C06806432068C660029B019A206853
:1026200001004031206B02F03FF8206880680743CA
:102630002068876002E002206946087068460078DA
:10264000FEBD0000FEF1FFFF71280008F52800081C
:1026500003290008F8B504000D0000273E0000978C
:1026600080214905E06A884213D0E06A012810D031
:10267000E06A02280DD0E06A03280AD0E06A042844
:1026800007D0E06A052804D0E06A062801D0E06A95
:1026900007283420205C012801D1022085E0012296
:1026A00010003423E05420688068400774D46868C0
:1026B0006B4B984256D02068806A2B689A40024340
:1026C00020688262E06A884228D0E06A012825D02A
:1026D000E06A022822D0E06A03281FD0E06A0428BA
:1026E0001CD0E06A052819D0E06A062816D0E06AF6
:1026F000072813D00720A968226852690240914236
:102700000CD02168496907229143226851612168F0
:102710004969AA6810400843216848612868102860
:1027200002D0286811283CD12868102802D18020C6
:10273000000401E08020C0034A490A681043086091
:10274000286810282DD1484800684849FFF7D8F874
:102750000A21484300900098002822D00098401E8B
:102760000090F8E72068806A29688A4090432168D1
:1027700088622868102802D02868112811D128689A
:10278000102802D18021090401E08021C9033548C5
:1027900002688A43026004E0A06B20210143A16328
:1027A0001600342027543000C0B2F2BD7CB50400BE
:1027B000002006000090216889688907890F012997
:1027C0000BD10121226812680A40002A03D1226835
:1027D000D268120401D50800FFE700283DD1206827
:1027E000806842490140002909D0A06B10210143B3
:1027F000A163E06B01210143E16301202EE001258B
:102800002068806828432168886017480068174955
:10281000FFF776F800900098002803D00098401E3B
:102820000090F8E701F00EFF0600206800682840DD
:10283000002812D101F006FF801B0328F5D3206881
:10284000006828400028F0D1A06B10210143A1634B
:10285000E06B0543E563012000E0002076BD000049
:1028600001100000082701402800002040420F000E
:1028700038B50400656AA86B5021014000292FD1AA
:10288000A86B802189000143A9632868C068C02122
:102890000901014000291FD1A87E00281CD1286809
:1028A0000068000718D52868806840070CD428689D
:1028B00040680C21884329684860A86B0C49014096
:1028C00001200843A86307E0A86B20210143A96306
:1028D000E86B01210143E9632800FEF793FE03E062
:1028E0002000296B096B884731BD0000170000806C
:1028F000FFFEFFFF38B50400656A280001F0ACFF59
:1029000031BD38B50400656AA86B40210143A96355
:10291000E86B04210143E963280001F09EFF31BD0B
:10292000002141628162C162016341637047F2B577
:1029300082B0040015003C4E0298290001F0FBFD16
:1029400030602168306801F066FD01906168FC200C
:10295000800501F060FD216A01F05DFD01000F00BE
:102960003168A06A01F0AFFD390001F054FD616AE1
:1029700001F0A9FD6062E069616A01F01BFD02D20D
:10298000E069606206E0606AA16901F013FD01D2AE
:10299000A06960628027FF05A068390001F03BFD57
:1029A00000902800216B01F0C6FD009901F033FD75
:1029B0000090E068390001F02EFD216A01F0BBFDB6
:1029C000E16A01F028FD009901F07DFD0090E068CA
:1029D000390001F020FD0100206A01F074FD0100C2
:1029E000009801F03BFF802109064840E062019910
:1029F000606A01F068FDE16A01F065FD606360698D
:102A0000616B01F0D7FC02D26069606306E0606B25
:102A1000216901F0CFFC01D2206960633068A062B7
:102A20002563606BFEBD0000EC0A002010B50400B9
:102A3000080011000200200001F062FF200010BD1C
:102A4000F8B584B00400002C01D101204AE22078BE
:102A5000C00766D50C20B4490A680240042A09D090
:102A60000A68104008280ED1802040020968014001
:102A7000814208D1AD480068800352D560680028C3
:102A80004FD101202EE26068012806D1A7480168D5
:102A9000802252020A43026024E06068002809D1C3
:102AA000A2480168A24A0A4002600168A14A0A409D
:102AB000026017E0606805280BD19C4801688022FD
:102AC000D2020A4302600168802252020A43026075
:102AD00008E096480168964A0A4002600168954AF3
:102AE0000A400260606800280DD001F0ABFD0500CF
:102AF0008E480068800314D401F0A4FD401B6528B3
:102B0000F6D30320EEE101F09DFD05008748006843
:102B1000800306D501F096FD401B6528F6D30320FF
:102B2000E0E102262068304000284FD00C207E498A
:102B30000A680240002A06D00A681040082814D10A
:102B40000868C00311D4794801683140002904D0D5
:102B5000E168012901D00120C4E10168F822914314
:102B60002269D2000A43026030E0E06800281AD0EF
:102B70006E4F386801210143396001F063FD0500A3
:102B800038683040002806D101F05CFD401B032866
:102B9000F6D30320A6E13868F82188432169C900EB
:102BA0000143396012E0614F386801218843386081
:102BB00001F048FD050038683040002806D001F0DB
:102BC00041FD401B0328F6D303208BE1207800074A
:102BD00028D5E069002812D0C34F3868012101438D
:102BE000396001F02FFD050038683040002819D108
:102BF00001F028FD401B0328F6D3032072E1BA4FF1
:102C0000386801218843386001F01CFD05003868F0
:102C10003040002806D001F015FD401B0328F6D3F4
:102C200003205FE1042720683840002800D18CE0B1
:102C300000206946087080204005AC4909680140C1
:102C400000290AD1A9490A6802430A6009680840B4
:102C500003900398012069460870A5480068C005E4
:102C600014D4A3480068802149000143A0480160B2
:102C700001F0E8FC05009E480068C00506D401F09C
:102C8000E1FC401B6528F6D303202BE1A068012856
:102C900005D19848016801220A43026021E0A0683A
:102CA000002809D19348016801229143016001681D
:102CB00004229143016014E0A068052808D18D48E2
:102CC000016839430160016801220A43026008E09B
:102CD0008848016801229143016001680422914300
:102CE0000160A06800280FD001F0ACFC050081480D
:102CF0000068304000281FD101F0A4FC401B7E4931
:102D00008842F4D30320EDE001F09CFC05007948F3
:102D10000068304000280FD001F094FC401B764939
:102D20008842F4D30320DDE004100240001002408A
:102D3000FFFFFEFFFFFFFBFF68460078012804D17C
:102D40006A4801686D4A0A4002602078C00650D582
:102D50006069012822D1B44800680743B24807607F
:102D6000B148006801210143AF48016001F06AFCED
:102D70000500AD4800683040002806D101F062FC33
:102D8000401B0328F5D30320ACE0A7480168F822D4
:102D90009143A269D2000A4302602AE00421C94398
:102DA000606988420BD1A048026811400160016847
:102DB000F8229143A269D2000A43026019E09A48BE
:102DC00000680743984807609748006801218843D6
:102DD0009549086001F036FC0500934800683040D2
:102DE000002806D001F02EFC401B0328F5D3032059
:102DF00078E0206A002874D08C4800680C210140DB
:102E000008294DD0206A022838D1894F386889496D
:102E10000140396001F016FC00908026B604386845
:102E20003040002807D001F00DFC0099401A03281B
:102E3000F3D3032056E09E4801680F229143E26AD3
:102E40000A430260794801687B4A0A40A16A11433B
:102E5000626A0A430260386880214904014339608C
:102E600001F0F0FB050038683040002839D101F04E
:102E7000E9FB401B0328F6D3032033E06C4E306897
:102E80006C490140316001F0DDFB050030688001D4
:102E900027D501F0D7FB401B0328F7D3032021E0FF
:102EA000206A012801D101201CE0604800680190DF
:102EB0007F48006802900198802149020840616AB9
:102EC00088420CD102980007000FE16A884206D1BF
:102ED0000198F02189030140A06A814201D00120BC
:102EE00000E0002005B0F0BD241002401C1002409C
:102EF000007000402010024089130000FFFFFFEF28
:102F0000F3B581B00400002C01D101208BE0012534
:102F1000684E30682840029988420CD230680121FE
:102F20008843029901433160306828400299884201
:102F300001D0012077E002202168014000290FD054
:102F40002178490705D539490A68E023DB00134396
:102F50000B6036490A68F0239A43A36813430B6059
:102F600021682940002932D06168012905D1304803
:102F70000068800311D4012055E06168022905D161
:102F80002B480068800108D401204CE028490968DA
:102F90000840002801D1012045E0244F3868032172
:102FA000884361680143396001F04CFB0090386848
:102FB0000C21014060688000814208D001F042FB92
:102FC0000099401A3C498842F1D303202BE0029833
:102FD0003168294088420CD2306801218843029927
:102FE00001433160306805400298854201D00120DC
:102FF00019E02078400706D50C4801682F4A0A409E
:10300000E1681143016000F019F82D49074A126880
:1030100012091207120F895CC8402A490860002073
:1030200001F0E2FA0020FEBD34100240041002401C
:1030300000100240FFFFFFFEFFFFC2FFF0B589B0A6
:1030400005A82149102201F083FC01A81F49102284
:1030500001F07EFC002420000094250026001C497D
:103060000F680C213940042902D0082902D01BE046
:1030700018481AE00F2005A9BA0C0240895C0E001E
:1030800001A90B4A12681040085C0090F80306D5AD
:1030900010480099FEF734FC7043050002E00E482A
:1030A00070430500280000E00A4809B0F0BD0000A8
:1030B0002C1002400020024089130000FFF8FFFF9F
:1030C000444D000828000020244D0008344D00081D
:1030D0000410024000127A0000093D00F8B584B0E7
:1030E000070000200290019080246402396821408A
:1030F000002964D069460870802040053B4D29684E
:103100000140002909D12968014329602968084044
:1031100003900398012069460870354E3068C00559
:1031200012D43068802149000143316001F08AFAED
:1031300002903068C00507D401F084FA0299401A61
:103140006528F6D303204FE0C0208000294E316867
:10315000014001910199002923D001997A6810401A
:1031600081421ED0306824490140019130680443F7
:103170003460306821490140316001983060019825
:10318000C0070ED501F05EFA02903068800708D4BF
:1031900001F058FA0299401A19498842F5D30320E0
:1031A00022E030681449014078680843306068467E
:1031B0000078012803D12868124901402960387835
:1031C000C00706D51048016803229143BA680A4334
:1031D00002603878800606D50B48016810229143BA
:1031E000FA680A430260002005B0F0BD1C100240DE
:1031F0000070004020100240FFFCFFFFFFFFFEFFB9
:1032000089130000FFFFFFEF3010024010B50400EB
:10321000002C01D101205BE04120205C002805D179
:10322000002040216054200000F0D4FC24204121E3
:103230006054206800680121884321680860606844
:1032400024490140206801612348216889680140C0
:1032500022689160E168012906D1A16880221202EA
:103260000A4321688A6005E0A168842212020A43A9
:1032700021688A60E168022903D18021090122685E
:10328000516021684968154A0A4321684A602168EB
:10329000C96808402168C860206961690143A06964
:1032A000000208432168C860E069216A0143206880
:1032B000016020680068012101432068016000204E
:1032C000606420214122A1542063422160540020E7
:1032D00010BD0000FFFFFFF0FF7FFFFF0080000236
:1032E000FEB582B004000F004120205C202800D0F1
:1032F000C5E00A98002803D06846808D002804D1D4
:103300008020800060640120BAE04020205C012819
:1033100001D10220B4E001204021605401F092F973
:10332000060000961923012280210902200000F0E6
:103330001FFA002801D00120A2E021204121605481
:10334000402042216054002565640A986062684606
:10335000808D6085656301960C9800906846038AAD
:1033600068468289390089B2200000F065F900289A
:1033700003D040202554012082E0608DFF280DD924
:10338000FF2020850020009080235B04228DD2B294
:10339000390089B2200000F0BCFA0CE0608D208575
:1033A0000020009080239B04228DD2B2390089B284
:1033B000200000F0AEFA32000C99200000F004FA70
:1033C000002801D001205BE0606A007821688862F3
:1033D000606A401C60629548618D09186185218D85
:1033E00008182085608D00282BD0208D002828D13A
:1033F00000960C9B00228021200000F0B9F90028E3
:1034000001D001203CE0608DFF280DD9FF202085F0
:103410000020009080235B04228DD2B2390089B253
:10342000200000F076FA0CE0608D208500200090EE
:1034300080239B04228DD2B2390089B2200000F093
:1034400068FA608D0028B6D132000C99200000F097
:10345000E7F9002801D0012012E020202168C8618E
:1034600021684968724A0A4021684A6041216054D3
:1034700028004221605440202554002000E0022012
:1034800005B0F0BDFEB582B004000F004120205C05
:10349000202800D0C7E00A98002803D06846808D15
:1034A000002804D18020800060640120BCE040201E
:1034B000205C012801D10220B6E0012040216054A7
:1034C00001F0C0F8060000961923012280210902AC
:1034D000200000F04DF9002801D00120A4E02220B6
:1034E00041216054402042216054002565640A98BF
:1034F00060626846808D6085656301960C980090D7
:103500006846038A68468289390089B2200000F043
:10351000D6F8002803D040202554012084E0608D97
:10352000FF280DD9FF2020854248009080235B04AE
:10353000228DD2B2390089B2200000F0EAF90CE005
:10354000608D20853B48009080239B04228DD2B261
:10355000390089B2200000F0DCF900960C9B0022B3
:103560000421200000F004F9002801D001205BE0D4
:103570002068406A616A0870606A401C60622B487B
:10358000218D09182185618D08186085608D0028BE
:103590002BD0208D002828D100960C9B0022802162
:1035A000200000F0E5F8002801D001203CE0608D0B
:1035B000FF280DD9FF2020850020009080235B0488
:1035C000228DD2B2390089B2200000F0A2F90CE0BD
:1035D000608D20850020009080239B04228DD2B234
:1035E000390089B2200000F094F9608D0028B4D130
:1035F00032000C99200000F013F9002801D00120BE
:1036000012E020202168C86121684968084A0A4000
:1036100021684A60412160542800422160544020C2
:103620002554002000E0022005B0F0BDFFFF00009F
:1036300000E800FE00240080FBB504001700089E8F
:10364000099D4048009080235B0468460289D2B2FD
:1036500068468188200000F05CF92A0031002000D3
:1036600000F0B2F8002801D0012027E06846008968
:10367000012804D13800C0B22168886212E0380005
:1036800080B2000AC0B2216888622A00310020009E
:1036900000F09AF8002801D001200FE03800C0B2F5
:1036A000216888620095330000228021200000F00C
:1036B0005FF8002801D0012000E00020FEBDFBB52E
:1036C00004001700089E099D1E48009000236846CC
:1036D0000289D2B268468188200000F01AF92A00D7
:1036E0003100200000F070F8002801D0012027E010
:1036F00068460089012804D13800C0B22168886278
:1037000012E0380080B2000AC0B2216888622A0044
:103710003100200000F058F8002801D001200FE00F
:103720003800C0B221688862009533000022402131
:10373000200000F01DF8002801D0012000E000204A
:10374000FEBD00000020008000B50168896989077E
:1037500002D50021026891620121026892690A4043
:10376000002A04D10268926911430268916100BD88
:10377000F4B504000F001D00069E206880693840E3
:10378000B84201D1012000E0002069460978884252
:1037900018D10020C0438542EFD000F053FF801BBA
:1037A000854201D3002DE8D12020616C0143616482
:1037B00041216054002001004222A1544021605464
:1037C000012000E00020F2BD70B504000D001600DD
:1037D00020688069800721D432002900200000F091
:1037E00048F8002801D0012019E00020C04385429C
:1037F000EED000F027FF801B854201D3002DE7D1DA
:103800002020616C0143616441216054002001006B
:103810004222A15440216054012000E0002070BDEC
:10382000F8B505000E0017002024286880692040A4
:1038300000281CD13A003100280000F01AF80028B6
:1038400001D0012014E000F0FDFEC01B864201D330
:10385000002EE9D1686C2043686441202C5400207C
:1038600001004222A95440216854012000E00020B8
:10387000F2BDF4B504000F001025206880692840CF
:10388000002844D020684068800106D42068406841
:103890008021C90101432068416020262068806999
:1038A0003040002818D10020C0438742F5D000F0F6
:1038B000C9FE0099401A874201D3002FEDD1606CF8
:1038C0003043606441202654002001004222A1546C
:1038D0004021605401201BE02068C5612068C6615A
:1038E0002000FFF731FF206840681649014020683A
:1038F0004160606C04210143616441202654002032
:1039000001004222A15440216054012000E0002027
:10391000F2BDF0B4049C05686D68660D0A4F37432C
:10392000BD430E00B6B2B605B60D2E431500EDB27E
:103930002D0435431D43254306687560F0BC704770
:103940000000000000E800FEFF63FF0310B5020066
:103950004120105C20282AD14020105C012801D190
:10396000022025E001200300402413552423412494
:10397000135513681B680124A3431468236013685C
:103980001B682C4C1C4013681C6013681B680B439D
:103990001468236013681B6818431368186020209C
:1039A0004123D05400204023D054002000E00220C6
:1039B00010BD10B502004120105C202827D1402006
:1039C000105C012801D1022022E0012003004024E4
:1039D000135524234124135513681B680124A34362
:1039E0001468236013681B68134C1C400B022343AC
:1039F0001468236014682468204314682060202021
:103A000041241055002040241055002000E00220E1
:103A100010BD81B00121094A13680B43136012687D
:103A200011400091009906490A6802430A6001B0FA
:103A300070470000FFEFFFFFFFF0FFFF181002408C
:103A40000000014070B502003C20105C012801D14B
:103A5000022024E001203C23D05402233D241355AE
:103A600013685D6813689B687024A5430C682C4339
:103A700015686C601568234EB54203D01568224E58
:103A8000B54206D18025AB431D004B682B4315681A
:103A9000AB603D25505500203C255055002070BDA1
:103AA00030B50200002003003C24145D012C01D13C
:103AB000022023E001243C255455FF24A343CC6875
:103AC0001C43124D25408B682B43114C1C404B6806
:103AD0002343104C1C400B6823430F4C1C400B69C4
:103AE0002343074C1C404B6923430C4C1C40CB69BF
:103AF0002343146863643C241055002030BD00004B
:103B0000FFDFFFFF002C014000040040FFFCFFFF2F
:103B1000FFFBFFFFFFF7FFFFFFEFFFFFFFBFFFFF11
:103B200081B001207E490A6802430A6009680840A2
:103B3000009000988020400596490A6802430A6078
:103B4000096808400090009801B07047F8B586B049
:103B500007001422002101A8FEF768FF38688E498B
:103B6000884235D18024A4006D480168214301605A
:103B700000682040009000988020800287490A68F1
:103B800002430A60096808400090009807200190ED
:103B9000032002900025039501A99020C00500F0A4
:103BA000FBF97F4EB14830607560B5608020F060F1
:103BB00034618020000170612020B061F561300027
:103BC00000F046FD002801D0FDF752FE3E6377620B
:103BD00007B0F0BD10B586B004001422002101A882
:103BE000FEF724FF2068A049884221D18020C0022E
:103BF0006A490A6802430A60096808400090009810
:103C0000C020019012200290002003900320049015
:103C10000120059001A9964800F0BEF9802080039C
:103C200095490A6802430A600968084000900098B4
:103C300006B010BD10B586B004001422002101A802
:103C4000FEF7F4FE20688B4988422FD180200001C6
:103C500033490A6802430A600968084000900098E6
:103C6000802080024D490A6802430A6009680840C2
:103C700000900098C0208000019012200290002047
:103C80000390032004900220059001A99020C00514
:103C900000F082F98020C003FFF7BBFE0022022162
:103CA0000E2000F056F90E2000F05DF906B010BDB0
:103CB00010B586B004001422002101A8FEF7B6FE5C
:103CC00020686E49884228D1022032490A6802439E
:103CD0000A6009680840009000988020C0022F49BF
:103CE0000A6802430A600968084000900098302082
:103CF00001901220029000200390032004900120E4
:103D0000059001A95A4800F047F90022022110202D
:103D100000F01FF9102000F026F906B010BD0000D9
:103D2000181002401CB5040020685549884212D181
:103D30008020400017490A6802430A600968084069
:103D40000090009800220221132000F002F91320B5
:103D500000F009F91CE020684A4988420AD1802114
:103D60008902494802680A430260006801400091E4
:103D700000980DE020684549884209D18021C90298
:103D8000414802680A4302600068014000910098BF
:103D900013BD00001C10024000240140141002401A
:103DA0005809002010B586B004001422002168468E
:103DB000FEF73CFE20683149884217D18021C902B4
:103DC000334802680A430260006801400591059883
:103DD0000120009002210191002102910321039111
:103DE00004906946224800F0D7F83AE02068254957
:103DF000884219D180218902254802680A4302605D
:103E00000068014005910598402000900220019033
:103E10000020029003200390052004906946902022
:103E2000C00500F0B9F81CE020681849884218D194
:103E300080218902164802680A4302600068014036
:103E400005910598802000900220019000200290AA
:103E5000032003900520049069469020C00500F0DF
:103E60009BF806B010BD000000540040080002405E
:103E700000040048002C01401C10024000040040D7
:103E8000002000400044014018100240004801405A
:103E90001410024000B5010049B2002905D40121E7
:103EA000C206D20E9140364A116000BDF0B5020044
:103EB00052B2002A17D41822324B040064B2A4086C
:103EC000A4001C59FF25C6001640B540AC438D0127
:103ED000EDB2C600324095402543020052B292082E
:103EE00092009D501BE00F22274B182405006DB255
:103EF0001540083DAD08AE0005006DB22A40083AF5
:103F0000920892009A58FF25C7002740BD40AA4357
:103F10008D01EDB2C7003C40A54015439D51F0BD59
:103F200010B50400601E80214904884201D301209D
:103F30000EE0601E1549086003210020C043FFF712
:103F4000B5FF0020124908600720124908600020D0
:103F500010BD70B505000C0016002100280040B20D
:103F6000FFF7A4FF70BD10B50400200040B2FFF7BA
:103F700091FF10BD10B504002000FFF7D1FF10BD68
:103F800000E100E000E400E01CED00E014E000E0EF
:103F900018E000E010E000E0FEB500220B68D3401E
:103FA000002B00D1DAE001230C681D00954025406C
:103FB0000195019C002C00D1CEE003244D682540E2
:103FC000012D03D04D682540022D19D186681500BA
:103FD0006F002500BD40AE43CD6817007F00BD4097
:103FE00035430095009D856046681D009540AE43B1
:103FF0004D682D091D40954035430095009D456055
:104000004D682540032D0DD0C66815006F002500B2
:10401000BD40AE438D6817007F00BD40354300951D
:10402000009DC5604D682540022D1DD1D508AD000D
:1040300045192D6A00951C25009EB4460F271600D1
:10404000B6002E40B7406646BE433700BC460E69F8
:104050001700BF003D40AE4067463E430096D5087E
:10406000AD004519009E2E62066815006F00250000
:10407000BD40AE434D68254017007F00BD4035432D
:104080000095009D05604D68C026B6022E40002EAA
:1040900062D0484D2E681E432E602D681D4002954B
:1040A000029D454D9608B600AE5900960F27BC46B6
:1040B0001600B7000C263E406746B740009EBE4340
:1040C0009027FF05B84201D100230DE03B4FB842D5
:1040D0000AD03B4B984201D1022305E0394B98426C
:1040E00001D1230000E005231400A4000C27274081
:1040F000BB4033439408A4002B51334D2C68019EE0
:10410000B4434E68F60302D52300019C1C432C6087
:104110002E4D2B68019EB3434E68B60302D51C009A
:10412000019B23432B602A4D2C68019EB4434E68AB
:10413000F60202D52300019C1C432C60254B1D6810
:10414000019EB54300954D68AD0203D5009C019DCD
:1041500025430095009C1C60521C1FE7F7BD00B56D
:10416000020010690B009BB21840002801D001200A
:1041700000E00020C0B200BD00B51300DBB2002B90
:1041800003D00B009BB2836102E00B009BB2836201
:1041900000BD10B5040010480168220092B2114021
:1041A000002906D0210089B20160200080B2FDF70D
:1041B000DBFA10BD1810024008000140000400485E
:1041C00000080048000C00480004014004040140BD
:1041D000080401400C040140140401400100422283
:1041E0001201D21E004207D002D4521E0018FCD584
:1041F000C10A40051205891870470000F0B50E008D
:104200005E400125ED072E40B446AE0ADF184C187B
:10421000F44208D2F7420ED2640D01D07F0D12D1C4
:1042200000206146F0BD05D1F74201D87F0D05D1D0
:104230000020C143F0BDFBD1640DF9D00020C14383
:10424000490549088FE0E419C902DB0229432B43E1
:10425000DB0A460DC00231438E4630B487B295B2B8
:104260007D432E0CADB2140C7C43A419260C2404FF
:1042700025439CB27C43A419190C7943270CC91916
:10428000A4B20F043C43090C000C97B247432E0C18
:10429000BE193543ADB2170C4743360CBF19A6B251
:1042A000BF193E043543240C3E0C36199FB24743D8
:1042B000BF19BCB23E0C89191F0C47437F183E043E
:1042C0003443390C704680B297B247432E0CBE1966
:1042D0003543ADB2170C4743360CBF19A6B2BF1910
:1042E0003E043543240C3E0C36199FB24743BF1998
:1042F000BCB23E0C89191F0C47437F183E0434435F
:10430000390C77463F0C90B278432E0C8019060486
:10431000ADB22E43050CA0B22D18120C7A435019E1
:10432000020C80B2240CA4189AB27A431219140415
:104330002043120C89181B0C7B43C91830BCEF0AB0
:10434000394203D1B61940414941641E6F12BF0D75
:10435000E41B0BDBFF19BC4211DA240500274208DD
:10436000AE417841614166463143F0BD641C05D1E0
:10437000401C6141CF0201D34908F4E750E75DE7F3
:1043800030B4012464054D00EC420BD85D00EC42D2
:1043900008D80C001C4364000443144304D299421F
:1043A00000D1904230BC7047FCD08B42FAD182429F
:1043B000F8E7FEE70CB4012212060318DA4207D828
:1043C0004B18DA4204D802000A43921802D28842FB
:1043D0000CBC7047FCD08142FAE7FEE70122D2070D
:1043E0000118090E7F3910D449421F310FD400182B
:1043F00005D2C0011043C84000D5D0437047C0016A
:104400001043C84005D44042704700207047004226
:10441000F3D51000704730B405004D400122D2079B
:1044200015404B180418240E2ED01B0E32D0FF2C32
:1044300034D0FF2B3AD0E418000209021043114394
:10444000000A090A9446C2B24A43000AC3B24B4367
:10445000000A4843110A5B181A43D2B2190A091814
:1044600001D44918641E080A7F3C23DBFE2C08DABD
:10447000E40509061143634699416041284330BC75
:104480007047FF20C005F9E728001B0EFF2BF6D16F
:10449000D043F4E72800FF2CF1D1F9E74002F7D12F
:1044A000FF2B01D14902F3D1E005E7E7D805490226
:1044B000E4D0EDE743020020641CDFD15B129B1CBB
:1044C000DCD9D805DAE70122D20703004B402ED40D
:1044D000431A01D2C01AC91830B44B180418240E5C
:1044E0001B0E22D0FF2C20D0E31A182B1DDC090252
:1044F0001143C40D641E0002104394461925ED1AA1
:104500000A00AA40D940451801D36D08A41CE4054F
:10451000D209280A2D062A436546AA41604103189C
:104520001B0EFF2B01D3C00DC00530BC704751409E
:1045300006E05140CCE70122D20703004B40F8D4FB
:10454000431A03D2C01AC9185040514030B44B1816
:10455000090211430418240E1B0E40D0FF2C3AD040
:1045600025009D410BD31ED8C50D4002401A0BD328
:10457000ED050100400AC90591416841D5E7C50D27
:1045800040024918401AD0D001214008491C0018A7
:10459000FCD58C4204D36D1A000AED054019C4E71E
:1045A000E8051040C1E7182DBFDCAC1C0D00E14050
:1045B000E5414D40012D4941C40D00021043451A0B
:1045C00001D46D199543641EE405280A2D06954112
:1045D000604130BC7047FF2BA7D1D843A5E72442E8
:1045E000A3D10020A1E7FEE710B50400FA20800067
:1045F0000E490978FDF784F901000D480068FDF7C0
:104600007FF9FFF7B7FC002801D001200CE0042C53
:1046100009D2002221000020C043FFF79AFC054880
:104620000460002000E0012010BD00BF3400002025
:104630002800002024000020704770477047704712
:104640007047704701480068704700BFF40A0020B7
:10465000F8B5040000252F00002C01D1012020E036
:10466000022021216054206800680E4901406068E2
:104670000843A1680143E068084321690143606978
:104680000843A1690143E6690E43206806602000E3
:1046900000F0D0F8A563012021216054202025548A
:1046A0000020F2BD0FC0FFFFF7B504001F0000207F
:1046B00006002021615C012901D1022039E0012599
:1046C00029002022A1542121615C01292BD1022142
:1046D0002122A154A0632068006801218843216839
:1046E00008603B00029A0199200000F08EF8E06A11
:1046F000002806D0206800680E2101432068016070
:104700000BE0206800680A210143206801602068EE
:104710000068042188432168086020680068054318
:104720002068056003E0202160540220060030006C
:10473000C0B2FEBD70B50400E06B05682068066875
:104740000420216C02008A402A40002A16D006422A
:1047500014D021680968890605D4216809680422F3
:10476000914322681160216C8840E16B4860E06AE7
:10477000002849D02000E16A884745E00220216CEA
:1047800002008A402A40002A1CD006421AD0216822
:104790000968890608D4216809680A2291432268B9
:1047A000116001212122A154216C8840E16B4860F5
:1047B000002020216054A06A002825D02000A16A92
:1047C000884721E00820216C02008A402A40002A04
:1047D0001AD03040002817D0206800680E21884386
:1047E000216808600120216C02008A40E16B4A6068
:1047F000A06321216054002020216054206B0028F8
:1048000002D02000216B884770BD30B50124056CB3
:10481000AC40C56B6C60046863604468102C04D1C4
:104820000468A2600468E16003E00468A1600468B1
:10483000E26030BD10B5040020680549401814211D
:10484000FDF75EF8800020640248E06310BD0000C0
:10485000F8FFFDBF000002407047704730B405000C
:104860004D400122D20715404B180418240E25D0C4
:104870001B0E2CD0FF2C31D0FF2B34D0E41A0002B9
:1048800009021043114343084808D10D1B1A02D2F4
:10489000641EDB181B18DB18834200D31B1A494126
:1048A000F9D37F3423DDFF2C05DAE40548086041A5
:1048B000284330BC7047FF20C005F9E728001B0ED5
:1048C00003D0FF2BF5D14902F3D0D043F1E7FF2C01
:1048D00001D14002F9D1FF20C005E9E74002F4D13F
:1048E000FF2BF8D1F1E728004902E2D0EDE70B02F7
:1048F00000202442DCD15B129B1CD9D9D805D7E714
:104900001206130A1A43130C1A4300BF094205D0BA
:10491000830705D00270401C491EF9D17047000082
:104920001300103906D330B41400150010393CC000
:10493000FCD230BC490700D30CC000D504C08900AC
:1049400002D30280801C002900D502707047FEE768
:1049500070B4103A03D378C9103A78C0FBD2530729
:1049600001D318C918C001D508C908C0D20704D39B
:104970000B880380891C801C002A01D50B780370EA
:1049800070BC704700B5FEE700B5FEE770477047A2
:10499000F8B501252C007C480188491C018001885C
:1049A0001E2900DAC9E00026310001807749888895
:1049B0004A8990425FD0080008308A884B89D21A11
:1049C000028008228A5E002A08D50022D243140001
:1049D000220052B20B895343038001E028000400F7
:1049E0006B48008848820820085E0F2814DB2000EE
:1049F00040B2C822520050438A888018654AD36862
:104A0000834202D2D2688A8021E0002802D5320097
:104A10008A801CE088801AE00820085E052816DBE2
:104A20008A88200040B20823CB5E24275F438C3F56
:104A300078431018574AD368834202D2D2688A80DA
:104A400005E0002802D532008A8000E08880088BCB
:104A50008A88904202D2088B8880FFE78888488144
:104A600088884C4A126850628888898BFCF745FF19
:104A7000494909684863494988884A8990425CD015
:104A8000080008308A884B89D21A028008228A5E80
:104A9000002A08D50022D2431400220052B20B890A
:104AA0005343038000E02C003948008848820820E6
:104AB000085E0F2813DB200040B2C822520050438A
:104AC0008A888018002801D58E8022E0344AD36875
:104AD000834202D2D2688A801BE0888019E00820D5
:104AE000085E052815DB8888220052B20823CB5EB9
:104AF00024255D438C3D6A438218002A01D58E80AF
:104B000007E02748C368934202D2C068888000E06B
:104B10008A80088B8A88904202D2088B8880FFE7BF
:104B20008888488188881E4A126850628888898BE4
:104B3000FCF7E3FE1B490968486300F039F8F1BD52
:104B400080B50220FFF725FB01BD80B50820FFF7E7
:104B500020FB01BD80B580200002FFF71AFB01BDDC
:104B600080B51148FFF7E6FD01BD80B50C48FDF7A3
:104B70003EF901BD80B50748FDF739F901BD80B5A3
:104B80000A48FDF734F901BDFA0A0020DC090020CB
:104B90002C0000203808002010090020180A0020EE
:104BA000F0070020C80800205809002080080020D5
:104BB00003480168034A127889180160704700BFF2
:104BC000F40A00203400002070B40123002413E014
:104BD0000168001D194202D04D466918491E0C603B
:104BE000091D121F042AFAD20D00960701D50C8068
:104BF000AD1C1A4000D02C700268001D002AE7D1BD
:104C000070BC7047CDCCCC3DCDCC4C3ECDCC4C3ED9
:104C10000AD7233C0000803F000000400000004015
:104C20000AD7233C2C0100000400000000127A0087
:104C30001E0064008813B80B0100000030B401228C
:104C40000EE00368C31844680830144202D04D4691
:104C50002C19641E1D6825601B1D241D091FF9D118
:104C60000168001D0029ECD130BC7047FEE7000050
:104C700010B5074979441831064C7C44163404E0D9
:104C8000081D0A68891888470100A142F8D110BDA3
:104C9000080000002800000031FFFFFFD00A0000DC
:104CA000380000200000000095FFFFFF38000000E2
:104CB00054FFFFFF000000200000000000F00DF88E
:104CC000002801D0FFF7D4FF00BF00BF002000BFC5
:104CD00000BFFBF7EDF900F002F80120704780B546
:104CE00000F002F801BDFEE70746384600F002F882
:104CF000FBE7FEE780B500BF00BF024A11001820A5
:104D0000ABBEFBE7260002000548014603B4684637
:104D100080F3098800BF00BF00BF00BFFFF7CEFFD0
:104D2000A5EDF5FE02030405060708090A0B0C0DA4
:104D30000E0F10100102030405060708090A0B0CE8
:104D40000D0E0F100000000000000000010203041F
:104D50000607080901488047014800476D4D0008D3
:0E4D6000094D0008FEE7FEE7FEE7FEE770479C
:0400000508004D0999
:00000001FF
