:020000040800F2
:10000000D8060020412B0008192A00081D2A0008E4
:1000100000000000000000000000000000000000E0
:10002000000000000000000000000000212A00087D
:100030000000000000000000232A0008252A000814
:100040004729000800000000172A0008D32A0008EA
:10005000DF2A0008512B0008532B0008552B0008FD
:10006000000000002D2A0008572B0008592B00081B
:100070005B2B00085D2B00085F2B000800000000D0
:10008000612B00080000000000000000372A000873
:1000900000000000632B0008652B0008672B000898
:1000A00000000000692B0008000000006B2B000816
:1000B00010B50400002C01D1012026E03D20205C79
:1000C000002805D100203C216054200000F058FD9C
:1000D00002203D216054211D206800F03BFB0120DF
:1000E000462160543E2160543F21605440216054B9
:1000F00041216054422160544321605444216054A2
:10010000452160543D216054002010BD00B53D21C3
:10011000415C012901D0012022E002213D228154CD
:1001200001210268D2680A430368DA6002681E4B44
:100130009A4203D002681D4B9A420BD10268926822
:100140005207520F062A0AD002681268114300684B
:10015000016004E002681268114300680160002039
:1001600000BD00B50168C968012291430268D160F1
:100170000168096A0A4A0A40002A0BD10168096A23
:10018000084A0A40002A05D1016809680122914302
:100190000268116001213D228154002000BD000051
:1001A0001111000044040000002C01400004004034
:1001B00010B50400002C01D1012026E03D20205C78
:1001C000002805D100203C216054200000F0ABFC49
:1001D00002203D216054211D206800F0BBFA01205F
:1001E000462160543E2160543F21605440216054B8
:1001F00041216054422160544321605444216054A1
:10020000452160543D216054002010BD10B504000C
:10021000002902D13E20205C0BE0042902D13F20BE
:10022000205C06E0082902D14020205C01E041204A
:10023000205C012801D0012050E0002904D10220D7
:100240003E22A054C0B211E0042904D102203F2272
:10025000A054C0B20AE0082904D102204022A054D0
:10026000C0B203E002204122A054C0B201222068A3
:1002700000F08EFB1B482168814207D021681A4A92
:10028000914203D02168164A914201D1012100E038
:100290000021C9B2002906D02168496C80221202CF
:1002A0000A4321684A642168814203D020680F49CB
:1002B00088420CD1206880684007400F06280CD087
:1002C00020680068012101432068016005E0206882
:1002D00000680121014320680160002010BD00007A
:1002E00000480140002C014000440140000400404F
:1002F00038B505000C00002D01D1012059E03D204A
:10030000285C002805D100203C216854280000F01A
:10031000DAFB02203D216854286880685E4901406C
:1003200028688160291D286800F014FA286882680E
:10033000286883692868006A21681143574A1A406F
:10034000A3681343A26912021A43554B1340554A3E
:100350001A40E3681343E26912021A4323691B013E
:100360001343226A12031A43222398438823984393
:10037000636803436069000118432B68996029682A
:100380008A61296808620121462029543E202954A7
:100390000800C0B23F2029540800C0B242202954AE
:1003A0000800C0B2432029540800C0B23D2029549F
:1003B000002032BD38B504003E20205C3F22A25C04
:1003C0004223E35C4325655D002910D1C0B20128BA
:1003D00002D1DBB2012B01D001205BE002223E20E2
:1003E00022541000C0B242202254D2B230E004297C
:1003F00010D1D2B2012A02D1EDB2012D01D00120DB
:1004000048E002223F2022541000C0B24320225470
:10041000D2B21DE0C0B2012808D1D2B2012A05D162
:10042000DBB2012B02D1EDB2012D01D0012031E070
:1004300002223E2022541000C0B23F20225410005D
:10044000C0B2422022541000C0B243202254D2B283
:10045000002902D0042906D00BE0012200212068E7
:1004600000F096FA0FE001220421206800F090FAD3
:1004700009E001220021206800F08AFA012204210B
:10048000206800F085FA2068006801210143206897
:100490000160002032BD0000F8BFFFFFFCFCFFFF41
:1004A000F3F3FFFF0F0FFFFF70B504000226206873
:1004B0000069304000281CD02068C0683040002807
:1004C00017D00220C04321680861012020772068EE
:1004D00080698007800F002803D0200000F008FC0E
:1004E00005E0200000F005FC200000F003FC0020E7
:1004F0002077042520680069284000281CD0206847
:10050000C0682840002817D00420C0432168086133
:10051000267720688069C02189000140002903D026
:10052000200000F0E5FB05E0200000F0E2FB2000E9
:1005300000F0E0FB002020770826206800693040AA
:1005400000281BD02068C0683040002816D0082042
:10055000C0432168086125772068C0698007800F43
:10056000002803D0200000F0C3FB05E0200000F0CD
:10057000C0FB200000F0BEFB002020771020216887
:100580000969014000291CD02168C9680840002879
:1005900017D01020C0432168086126772068C06901
:1005A000C02189000140002903D0200000F0A0FBF9
:1005B00005E0200000F09DFB200000F09BFB0020E8
:1005C0002077012021680969014000290BD02168AA
:1005D000C9680840002806D00120C043216808618E
:1005E000200000F089FF802021680969014000296E
:1005F0000BD02168C9680840002806D08020C0437D
:1006000021680861200000F0C6FF402021680969C8
:10061000014000290BD02168C9680840002806D095
:100620004020C04321680861200000F0B5FF202071
:1006300021680969014000290BD02168C968084078
:10064000002806D02020C04321680861200000F067
:10065000A4FF70BDF8B50400002637003C20205CE4
:10066000012801D1022071E001203C23E0540D005B
:10067000002A06D0042A1BD0082A32D00C2A47D0E0
:100680005FE02900206800F09AF82068806908215E
:1006900001432068816120688069042188432168C2
:1006A000886120688069296901432068816149E087
:1006B0002900206800F0BBF82068806980210901CA
:1006C00001432068816120688069214901402068D8
:1006D000816120688069296909020143206881617C
:1006E00030E02900206800F0D9F82068C0690821AE
:1006F00001432068C1612068C069042188432168E2
:10070000C8612068C069296901432068C16119E096
:100710002900206800F0F7F82068C06980210901ED
:1007200001432068C1612068C0690949014020680F
:10073000C1612068C0692969090201432068C1615B
:1007400000E007003C2026543800C0B2F2BD000093
:10075000FFFBFFFF10B503687F4A904202D07F4C39
:10076000A04204D17024A3431C004B682343904251
:100770000BD07A4CA04208D0794CA04205D0794CDD
:10078000A04202D0784CA04203D1784C1C40CB68E8
:1007900023438024A3434C691C4304608B68C362D9
:1007A0000B688362904205D06E4A904202D06E4A36
:1007B000904201D1096901630121416110BD70B509
:1007C000026A01239A430262056A436884697022BF
:1007D0009443032294430A6822430224A5438C686D
:1007E0002C435D4DA84205D05E4EB04202D05E4E15
:1007F000B04206D10826B4432600CC683443042610
:10080000B443A84205D0574DA84202D0564DA84245
:1008100007D1574D1D40594B2B404D691D438B69E6
:100820002B434360826149684163046270BD70B5C7
:10083000026A10239A430262036A426884694D4D3A
:1008400025404A4E2E400C68240234432025AB43F9
:100850008D682D011D43404B984207D18026B5433A
:100860002E00CD682D0135434026B543984205D072
:100870003C4B984202D03C4B984209D13E4B13402E
:100880003F4A1A404B699B0013438A6992001A43FE
:100890004260846149688163056270BDF0B5026A97
:1008A000334B13400362046A4268C56970239D4359
:1008B00003239D430B682B43304D25408C68240255
:1008C0002C43254DA84206D12D4E2640CC68270248
:1008D0003743294C3C40A84205D0224DA84202D0C3
:1008E000214DA84209D1274D1540274A2A404D697C
:1008F0002D0115438A6912012A434260C361496888
:10090000C1630462F0BD70B5026A1E4B13400362FE
:10091000036A4268C469174D2540144E2E400C6886
:1009200024023443184D1D408B681B032B430A4D92
:10093000A84205D00B4DA84202D00B4DA84204D1CD
:10094000124D15404A6992012A434260C4614968C8
:100950000164036270BD0000002C014000040040EF
:10096000002000400044014000480140FFFCFFFF20
:10097000FFFEFFFFFF8FFFFFFFFBFFFFFFFDFFFFFE
:10098000FFF7FFFFFFEFFFFFFFDFFFFFFFBFFFFFEF
:1009900030B41F2401230D002540AB40056A9D4360
:1009A0000562036A0C40A2401A43026230BC7047E1
:1009B00081B001208D490A6802430A600968084035
:1009C0000090009880204005BD490A6802430A60F3
:1009D000096808400090009801B0704770B586B073
:1009E00004001422002101A800F0D8FD20688049ED
:1009F000884236D1802080007C490A6802430A6020
:100A000009680840009000988020800279490A68AF
:100A100002430A600968084000900098072001908E
:100A2000032002900025039501A99020C00500F045
:100A3000BFFD714EA44830607560B5608020F060E5
:100A40008020400030618020C0007061B561F56198
:100A5000300000F0B1FE002801D000F099FD2663BF
:100A6000746206B070BD10B586B004001422002177
:100A700001A800F093FD20689249884221D180208E
:100A8000C0025C490A6802430A6009680840009095
:100A90000098C020019012200290002003900320B3
:100AA00004900120059001A9884800F081FD802074
:100AB000800387490A6802430A6009680840009079
:100AC000009806B010BD10B586B0040014220021B5
:100AD00001A800F063FD20687E49884221D1802072
:100AE000000142490A6802430A6009680840009010
:100AF0000098802080023F490A6802430A60096822
:100B0000084000900098C0208000019002200290D0
:100B1000002103910491059001A99020C00500F0E7
:100B200047FD06B010BD10B586B0040014220021A8
:100B300001A800F033FD2068674988421ED10220D9
:100B40005F490A6802430A60096801400091009900
:100B50008021C902274A13680B43136012681140B1
:100B6000009100993021019102900020039004909F
:100B70000120059001A9554800F01AFD06B010BDEE
:100B800080B50168554A914212D1802040004C49FD
:100B90000A6802430A600968084000900098002231
:100BA0000021132000F00BFF132000F00DFF1CE0CC
:100BB00001684B4A91420AD1802189024948026862
:100BC0000A43026000680140009100980DE000684F
:100BD0004549884209D18021C902424802680A4336
:100BE0000260006801400091009801BD18100240A9
:100BF00000240140141002402002002010B586B0ED
:100C0000040014220021684600F0C8FC2068324924
:100C1000884217D18021C902344802680A43026021
:100C20000068014005910598012000900221019182
:100C3000002102910321039104906946234800F0AA
:100C4000B7FC3AE020682649884219D18021890200
:100C5000264802680A430260006801400591059831
:100C60004020009002200190002002900320039079
:100C70000520049069469020C00500F099FC1CE016
:100C800020681949884218D18021890217480268D2
:100C90000A43026000680140059105988020009099
:100CA0000220019000200290032003900520049070
:100CB00069469020C00500F07BFC06B010BD000026
:100CC0001C1002400054004008000240000400488C
:100CD0001C100240002C0140000400400020004095
:100CE0000044014018100240004801401410024026
:100CF00070477047704730B5016841184468620812
:100D00008A188368E40704D54C461B1901E0641C6B
:100D100009D1914203D00C7864B2491C01E00C3037
:100D200030BD0D78491C1D705B1C002CEFD4641E77
:100D3000F7D5EEE710B500F05DFE00F043F800F0E7
:100D400063FA00F081F800F0F3F800F028F900F001
:100D5000A3F900F0C6F800F03EFA00F07DF900F0CB
:100D6000EDF9B848B8494860B848B9494860B94849
:100D7000C24948603C21C248FFF71CFBC14C3C21E2
:100D80002000FFF717FB08212000FFF73FFA0021A2
:100D9000C848FFF73BFA0021BB48FFF737FABB4CC6
:100DA0002000FFF7B3F9BA4800F034FE0021B9483B
:100DB00000F01AFB2000FFF7A9F9FA20400000F02C
:100DC00097FEF7E738B594B03022002108A800F06C
:100DD000E5FB10220021684600F0E0FB1022002114
:100DE00004A800F0DBFB03200890012009900B9081
:100DF00010200C900224109480204002119080203A
:100E0000400312900025139508A800F085FE0028E5
:100E100001D000F0BDFB07200090019402950395DE
:100E20000121684601F0B4F8002801D000F0B0FBC1
:100E300020200490079504A801F096F9002801D01D
:100E400000F0A6FB15B030BD7FB50C22002168462E
:100E500000F0A4FB8E4CB848206080200006606043
:100E60000026A660E660012525610820606130004B
:100E70002076300060763000A0763000E076FF20EB
:100E8000C230E0612662300024216054A562200057
:100E900001F0F6F9002801D000F07AFB00968020DE
:100EA000400101908020400502906946200001F039
:100EB000C3FA002801D000F06BFB009569462000C2
:100EC00001F0BAFA002801D000F062FB0220009085
:100ED0006946200001F0B0FA002801D000F058FB6C
:100EE0007FBD10B5C54CC6482060C6486060002074
:100EF000A0600121E16020616061A061E061206289
:100F0000200001F04DFB002801D000F041FB002142
:100F1000200001F0AFFB002801D000F039FB0021D8
:100F2000200001F0D9FB002801D000F031FB10BDFA
:100F300030B58BB02422002102A800F02FFB08223C
:100F40000021684600F02AFB4D4CDA48206000255D
:100F50006560A5608020C001E06025616561A561D4
:100F600003200290039501200490059506950795AE
:100F7000089009950A9502A92000FFF7B9F9002801
:100F800001D000F005FB009501956946200001F0B5
:100F9000D7FB002801D000F0FBFA0BB030BD38B50C
:100FA00092B02422002109A800F0F8FA08220021BA
:100FB000684600F0F3FA1C22002102A800F0EEFAC5
:100FC000304CBD48206000256560A5608020C001D0
:100FD000E0602561A5612000FFF7EAF8002801D054
:100FE00000F0D6FA032009900A9501200B900C9589
:100FF0000D950E950F901095119509A92000FFF7FA
:1010000077F9002801D000F0C3FA009501956946F0
:10101000200001F095FB002801D000F0B9FA602013
:101020000290039504950695082202A92000FFF777
:1010300011FB002801D000F0ABFA2000FFF7DEFD25
:1010400013B030BD2731883EB40200206666263FCB
:10105000BC0200209A99193F80B50C48974901605D
:10106000002141608160964AC26001618161FFF7A1
:101070001FF8002801D000F08BFA01BDC402002047
:10108000B800002000010020D80100204801002005
:10109000640200203408000030B58FB01C2200210B
:1010A00008A800F07BFA20220021684600F076FABA
:1010B000004D01E090010020C848286000246C60C9
:1010C000AC6080204001E8602C616C61AC6128005C
:1010D000FEF7EEFF002801D000F05AFA2800FFF7D3
:1010E00067F8002801D000F053FA602008900994B6
:1010F0000A940B940C940D940E94002208A92800D5
:10110000FFF7A8FA002801D000F042FA00940194F9
:10111000029403940494802080010590079469460A
:10112000280001F039FB002801D000F031FA280036
:10113000FFF764FD0FB030BD0024014030B58FB023
:101140001C22002108A800F029FA2022002168466C
:1011500000F024FAA24DA348286000246C60AC6023
:1011600080204001E8602C616C61AC612800FEF7D2
:101170009FFF002801D000F00BFA2800FFF718F8B5
:10118000002801D000F004FA6020089009940A9425
:101190000B940C940D940E94002208A92800FFF7DC
:1011A00059FA002801D000F0F3F900940194029458
:1011B00003940494802080010590079469462800D8
:1011C00001F0EAFA002801D000F0E2F92800FFF768
:1011D00015FD0FB030BD80B50120C6490A68024335
:1011E0000A60096808400090009800220021092048
:1011F00000F0E5FB092000F0E7FB01BD6C000020DA
:10120000005400400E09002070B586B01422002161
:10121000684600F0C3F98021C903B64802680A4352
:1012200002600268114005910599802189020268D7
:101230000A43026002681140059105998021C902A4
:1012400002680A43026000680140059105989026F3
:10125000F6050022C849300000F09DFA28200090D1
:101260000125019500240294032003906946300073
:1012700000F09EF9C12000010090019502940394B2
:101280006946300000F094F90A20009088256D032B
:10129000019502946946B94800F08AF9902000024D
:1012A0000090019502946946300000F081F906B083
:1012B00070BD0000002C01400004004000200040F0
:1012C000FFFF000000B5C0B200280ED0022824D0D5
:1012D00017D3042839D02CD306284ED041D3082860
:1012E00063D056D309286CD076E00020A44908804A
:1012F00001224A808A80CA800A814A818A81C88103
:101300006AE000209E49088048808880C880088163
:1013100001224A818A81C8815EE0994901220A80BE
:101320004A8000208880CA800A8148818881C881DB
:1013300052E0934901220A80002048808880CA80B8
:101340000A814A818A81C88146E08D4901220A804A
:10135000002048808A80C88008814A818A81C881AB
:101360003AE0874901220A80002048808A80CA80AA
:101370000A814A818881C8812EE081490120088044
:1013800048808880C8800881488100208881C88181
:1013900022E000207A49088048808880C8800122A5
:1013A0000A814A818A81C88116E07548012101803D
:1013B00041808180C1800181418181810021C18181
:1013C0000AE06F4901220A80002048808A80CA8092
:1013D0000A814A818A81C881694800BD0044014070
:1013E000D801002000480140F1B50C006846008893
:1013F000642101F027FA06003000C0B200281CD199
:101400000020FFF75FFF00210A001300DBB2092B69
:1014100043DA5C4B2500EDB21600F6B2AD19595512
:101420002500EDB21600F6B2AD195B191500EDB24C
:101430006D00455B1D72521CE7E70A253000C0B203
:10144000290001F0FFF9C0B2FFF73CFF0700F6B238
:101450003000290001F0F6F90800C0B2FFF732FFB2
:10146000002216E047492300DBB21500EDB25B19FC
:101470001500EDB26D007D5BCD542300DBB215008D
:10148000EDB25B19C9181300DBB25B00C35A0B72D3
:10149000521C1100C9B20929E4DB3A4D0120210098
:1014A000C9B26918C87368460088642101F0CAF996
:1014B000C9B200291CD10020FFF704FF00210A0057
:1014C00012E02300DBB21600F6B29B19EB181600EF
:1014D000F6B27600865B1E742300DBB21600F6B20D
:1014E0009B19EB181976521C1300DBB2092BE8DBB1
:1014F000F1BD00001410024070B5234EB04239D146
:10150000224C2078C00712D49025ED05002220211E
:10151000280000F040F91B48218849104A428018F1
:101520005F21425C0821280000F035F905E0012226
:1015300020219020C00500F02EF92088401C20803A
:101540002088C02816DB002020809024E40501229A
:101550001021200000F01FF91021200000F010F9E8
:101560000028F9D000221021200000F014F93000EA
:10157000FEF7F7FD70BD0000380C000000040048C5
:10158000A40200200000002048010020D00200201A
:1015900000B572B6FEE770477047704710B504009B
:1015A000080011000200200001F0A6F9200010BD83
:1015B000FCB5002231E0052303E06B4B9842FAD1E1
:1015C0002B001500AD000C272F40BB403343674D67
:1015D0009608B600AB51664D2B68A3434E68F603E0
:1015E00000D523432B60634D2B68A3434E68B6039D
:1015F00000D523432B60604D2B68A3434E68F60251
:1016000000D523432B605D4D2B68A3434E68B60283
:1016100001D51C4323002B60521C0B68D340002BC8
:1016200000D1A0E001230D681C0094402C40002C48
:10163000F2D003254E682E40012E03D04E682E4076
:10164000022E19D18768BC46160077002E00BE40D6
:101650006746B743BC46CF6816007600B74066467B
:101660003743876047681E009640B7434E68360987
:101670001E4096403E4346604E682E40032E0FD0DB
:10168000C768BC46160077002E00BE406746B743C9
:10169000BC468F6816007600B74066463743C76081
:1016A0004E682E40022E1FD1D608B6008619366A23
:1016B0000196019E00960F27BC461600B7001C2617
:1016C0003E406746B740009EBE4300960F69BC4649
:1016D0001600B7001C263E406746B740009E3743C1
:1016E000D608B600861937620768BC461600770030
:1016F0002E00BE406746B743BC464F682F401600D9
:101700007600B7406646374307604E68C027BF0281
:101710003740002F00D17FE7244E37681F433760E2
:1017200036681E400096009E104E9708BF00F6597E
:1017300000960F27BC461600B7000C263E406746B1
:10174000B740009EBE439027FF05B84201D1002359
:1017500037E7174FB84200D133E7164B984200D015
:101760002BE702232DE7F3BD000C004808000140E1
:101770000004014004040140080401400C0401403D
:1017800000B5006989B20840002801D0012000E0BE
:101790000020C0B200BD00B5D2B2002A02D089B28A
:1017A000816101E089B2816200BD00001810024031
:1017B000000400480008004838B50400002528004F
:1017C000002C01D1012020E002202121605420685A
:1017D00000680E49014060680843A1680143E06861
:1017E00008432169014360690843A1690143E06935
:1017F000084321680860200000F071F8A56301200B
:101800002121605420202554002032BD0FC0FFFF4D
:1018100038B5C16B0968026813680422046C1500AE
:10182000A5400D40002D15D0134213D00168096862
:10183000890605D40168096804239943036819607F
:10184000016C8A40C16B4A60C16A002946D0C16AF6
:10185000884743E00222046C1500A5400D40002D8E
:101860001BD0134219D001680968890608D40168A1
:1018700009680A2399430368196001212123C1548F
:10188000016C8A40C16B4A60002120228154816A28
:10189000002923D0816A884720E00822046C1500C3
:1018A000A5400D40002D19D01A40002A16D001681D
:1018B00009680E229143026811600121026C0B003D
:1018C0009340C26B53608163212281540021202206
:1018D0008154016B002901D0016B884731BD10B5DF
:1018E0000400206805494018142100F0AEFF800074
:1018F00020640348E06310BD00000000F8FFFDBF56
:101900000000024000B5010049B2002905D40121C0
:10191000C006C00E81403148016000BDF0B5020034
:1019200052B2002A16D418222D4B040064B2A40827
:10193000A4001C59FF25C6001640B540AC438901E0
:10194000C9B2C5002A409140214340B280088000BE
:1019500019501BE00F25234B1824020052B22A40D5
:10196000083A92089200060076B23540083DAD086C
:10197000AD005D59FF26C7002740BE40B543890131
:10198000C9B2C0000440A14029439950F0BD80B5C0
:10199000411E80225204914201D301200EE0401EDC
:1019A0001149086003210020C043FFF7B7FF002062
:1019B0000E49086007200E490860002002BD80B56E
:1019C00040B2FFF7ABFF01BD80B540B2FFF79AFF11
:1019D00001BD80B5FFF7DBFF02BD000000E100E0C4
:1019E00000E400E01CED00E014E000E018E000E09E
:1019F00010E000E080B50648016810220A4302604A
:101A0000032000F0A1FFFEF7D3FF002002BD00007D
:101A100000200240FEB5040000252F002800280009
:101A20003420205C012801D102205EE00126300034
:101A300034216054032021688968014001290AD1BA
:101A4000216809683140002903D12168C968090467
:101A500001D5310000E0290000293DD1A16B234AC6
:101A60000A4002211143A1632168C968084000901F
:101A70002068C068032188432168C86020688068A6
:101A80008021090601432068816000F085FF0190F4
:101A900020688068002813D500F07EFF0199401A65
:101AA0000328F5D3206880680028F1D5A06B0221B7
:101AB000884310210143A16334202554012014E000
:101AC0002068C068009901432068C160A06B0221B2
:101AD00088430643A66304E0A06B20210143A16371
:101AE0003700342025543800C0B2FEBDFFFEFFFF92
:101AF00038B5050000F050FF04000020C0438542C7
:101B000002D0044800782D1800F046FF001BA842C0
:101B1000FAD331BD68000020F8B50400002C01D1D3
:101B200001202BE22078C00766D50C20AC490A685A
:101B30000240042A09D00A68104008280ED18020EB
:101B4000400209680140814208D1A648006880032C
:101B500052D5606800284FD101200FE2606801284B
:101B600006D1A0480168802252020A43026024E0A4
:101B70006068002809D19B4801689B4A0A400260BE
:101B800001689A4A0A40026017E0606805280BD194
:101B9000944801688022D2020A43026001688022D0
:101BA00052020A43026008E08E4801688E4A0A40E9
:101BB000026001688D4A0A400260606800280DD00A
:101BC00000F0EAFE050087480068800314D400F0A6
:101BD000E3FE401B6528F6D30320CFE100F0DCFED6
:101BE000050080480068800306D500F0D5FE401B44
:101BF0006528F6D30320C1E1207880071CD50C208E
:101C000077490A680240002A06D00A68104008286E
:101C10002AD10868C00327D472480168890704D50F
:101C2000E168012901D00120A8E10168F82291436F
:101C30002269D2000A4302602078000755D5E06986
:101C4000002840D0BE4D286801210143296000F0E2
:101C5000A3FE06002868800747D400F09DFE801B85
:101C60000328F7D3032089E1E068002819D05D4DEF
:101C7000286801210143296000F08EFE06002868D3
:101C8000800706D400F088FE801B0328F7D30320CA
:101C900074E12868F82188432169C900014329605B
:101CA000CAE7504D286801218843286000F074FE7F
:101CB000060028688007BFD500F06EFE801B032851
:101CC000F7D303205AE19E4D2868012188432860FC
:101CD00000F062FE06002868800706D500F05CFE72
:101CE000801B0328F7D3032048E1042520682840FF
:101CF000002800D184E0002680204005A049096822
:101D00000140002908D19E490A6802430A60096817
:101D100008400090009801269A4F3868C00512D4F8
:101D20003868802149000143396000F035FE009099
:101D30003868C00507D400F02FFE0099401A6528C6
:101D4000F6D303201AE1A068012805D18E48016866
:101D500001220A43026021E0A068002809D18A48D4
:101D600001680122914301600168042291430160EE
:101D700014E0A068052808D1834801682943016060
:101D8000016801220A43026008E07F4801680122DD
:101D9000914301600168042291430160A06800281A
:101DA0000ED000F0F9FD07007748006880071FD4C7
:101DB00000F0F2FDC01B75498842F5D30320DDE039
:101DC00000F0EAFD070070480068800710D500F0B9
:101DD000E3FDC01B6D498842F5D30320CEE000BF70
:101DE0000410024000100240FFFFFEFFFFFFFBFF58
:101DF000F6B2012E04D162480168AF4A0A4002607F
:101E00002078C0061ED5606901283ED1AB4E3068EF
:101E100005433560306801210143316000F0BCFDAD
:101E200005003068800706D400F0B6FD401B03288B
:101E3000F7D30320A2E03068F8218843A169C900E4
:101E400001433160206A002800D196E09C4F386839
:101E50000C210140082975D0206A02285DD1994DD6
:101E6000286899490140296000F096FD009080267D
:101E7000B6042868304000282DD000F08DFD009970
:101E8000401A0328F3D3032078E00421C943606992
:101E900088420BD189480268114001600168F8222C
:101EA0009143A269D2000A430260CBE7834E3068B7
:101EB00005433560306801218843306000F06CFDD7
:101EC000050030688007BDD500F066FD401B032883
:101ED000F7D3032052E0994801680F229143E26A48
:101EE0000A430260386894490140A06A0843616A65
:101EF000014339602868802149040143296000F0CA
:101F00004BFD040028683040002836D100F044FD25
:101F1000001B0328F6D3032030E06A4C20686A498E
:101F20000140216000F038FD05002068800124D5C3
:101F300000F032FD401B0328F7D303201EE000BF52
:101F400024100240206A012801D1012016E03868DF
:101F50007A490968802252020240636A9A420AD191
:101F60000907090FE26A914205D1F0218903014076
:101F7000A06A814201D0012000E00020F2BD0000F3
:101F80001C10024000700040201002408913000025
:101F9000FEB50400002C01D101208CE00091012548
:101FA000674E30682840009988420CD23068012181
:101FB0008843009901433160306828400099884285
:101FC00001D0012077E002202168014000290FD0D4
:101FD0002178490705D53A490A68E023DB00134315
:101FE0000B6037490A68F0239A43A36813430B60D8
:101FF00021682940002932D06168012905D1314882
:102000000068800311D4012055E06168022905D1E0
:102010002C480068800108D401204CE02949096857
:102020000840002801D1012045E0254F38680321F0
:10203000884361680143396000F0AEFC0190386864
:102040000C21014060688000814208D000F0A4FCAF
:102050000199401A3B498842F1D303202BE00098B4
:102060003168294088420CD23068012188430099A8
:1020700001433160306805400098854201D001205D
:1020800019E02078400706D50D4801682E4A0A401D
:10209000E1681143016000F019F82C49084A126800
:1020A00012091207120F895CC840294908600320F1
:1020B00000F04AFC0020FEBDFFFFFFEF341002409D
:1020C0000410024000100240FFFFFFFE10B588B070
:1020D00004A82049102200F065FC68461E49102221
:1020E00000F060FC002108000800080008001B4800
:1020F00000680C210140042902D0082902D017E011
:10210000174C16E00F2104AA830C0B40D45C6A46DE
:102110000A4B1B681940515CC00306D5104800F0FB
:1021200094FB210004004C4301E00E48444300E0CE
:102130000B4C200008B010BDFFFFC2FF2C10024066
:102140000020024089130000FFF8FFFF302B000839
:1021500064000020102B0008202B0008041002400F
:1021600000127A0000093D00F8B50400002738008D
:10217000380080256D022068284000285AD0802031
:102180004005374909680140002908D134490A68E7
:1021900002430A6009680840009000980127314E08
:1021A0003068C00512D43068802149000143316095
:1021B00000F0F2FB00903068C00507D400F0ECFBA3
:1021C0000099401A6528F6D3032048E0C021890011
:1021D000254E3068084000281ED0626811408842B1
:1021E0001AD031682148084031680D4335603168A4
:1021F0001F4A0A4032603060C0070DD500F0CCFBAA
:1022000005003068800707D400F0C6FB401B194961
:102210008842F6D3032022E0306814490140606808
:1022200008433060FFB2012F04D10D480168124A03
:102230000A4002602078C00706D5104801680322D2
:102240009143A2680A4302602078800606D50B48B5
:10225000016810229143E2680A4302600020F2BD47
:102260001C1002400070004020100240FFFCFFFFE5
:10227000FFFFFEFF89130000FFFFFFEF3010024059
:10228000F8B5040000252E002F00002C01D10120FC
:10229000CAE0A06B002806D1E56328003421605411
:1022A0002000FEF79BFB1021A06B0840002800D007
:1022B000B4E00420226892680240002A00D0ADE019
:1022C000A36B5A4A1A4002231343A36322689268FD
:1022D0009207920F012A0AD1012223681B6813403A
:1022E000002B03D12368DB681B0400D500E02A0023
:1022F000002A0FD12268D26818239A43A368134397
:102300002268D3602268126993009B0862681A43AE
:1023100023681A612268D368454A1A402368DA6044
:10232000A26A012A02D08022520100E02A00236919
:10233000022B00D02800237E9B033B43677EFF03D4
:102340001F43A37E5B033B431A43E36813431843D5
:102350002422A25C52000243E07E01280FD1A07E1D
:10236000002804D1100080225202024307E0A06B33
:1023700020230343A363E06B01230343E363E0698A
:10238000FF23C233984203D0E0691043226A02431C
:102390002068C06810432368D860E06A80235B052A
:1023A000984214D0E06A012811D0E06A02280ED0C9
:1023B000E06A03280BD0E06A042808D0E06A052808
:1023C00005D0E06A062802D0E06A07280ED120680E
:1023D00040690723984323685861206840692C238B
:1023E000E35C5B075B0F0343206843612068C068C0
:1023F000104B0340934207D1E563A06B0221884351
:1024000001210143A1630DE0A06B0222904301432F
:10241000A1630126E06B3043E06303E0A06B01435E
:10242000A16301263000C0B2F2BD0000FFFEFFFF35
:102430001902FEFFE7FF3F83F8B5040000263500D0
:10244000009680225205E06A904213D0E06A01288B
:1024500010D0E06A02280DD0E06A03280AD0E06AB2
:10246000042807D0E06A052804D0E06A062801D0D5
:10247000E06A07283420205C012801D1022085E091
:10248000012318003427E05520688068400774D481
:1024900048683F4FB84256D02068806A0F68BB40FA
:1024A000034320688362E06A904228D0E06A0128F2
:1024B00025D0E06A022822D0E06A03281FD0E06A13
:1024C00004281CD0E06A052819D0E06A062816D036
:1024D000E06A072813D007208A6823685B690340F5
:1024E0009A420CD02268526907239A4323685A61A2
:1024F000226852698B68184010432268506108684E
:10250000102802D0086811283CD10868102802D190
:102510008020000401E08020C0031E4A1368184395
:102520001060086810282DD11B4800681B4900F076
:102530008CF90A21484300900098002822D0009886
:10254000401E0090F8E72068806A0A68934098432C
:10255000226890620868102802D00868112811D1FA
:102560000868102802D18021090401E08021C903F4
:10257000084802688A43026004E0A06B20210143FE
:10258000A1631D00342026542800C0B2F2BD000013
:1025900001100000082701406400002040420F00A5
:1025A00010B50400002C01D101205BE04120205C2B
:1025B000002805D10020402160542000FEF753FA86
:1025C000242041216054206800680121884321684B
:1025D000086060682449014020680161234821683F
:1025E0008968014022689160E168012906D1A168EB
:1025F000802212020A4321688A6005E0A1688422D1
:1026000012020A4321688A60E168022903D180210D
:1026100009012268516021684968154A0A43216806
:102620004A602168C96808402168C86020696169FA
:102630000143A069000208432168C860E069216A7B
:10264000014320680160206800680121014320687F
:1026500001600020606420214122A15420634221B6
:102660006054002010BD0000FFFFFFF0FF7FFFFF60
:102670000080000210B54122825C202A2AD140222B
:10268000825C012A01D1022025E0012213004024AE
:10269000035524234124035503681B680124A343E5
:1026A0000468236003681B68234C1C4003681C609B
:1026B00003681B68194303681960016809680A43C5
:1026C00001680A6020214122815400214022815466
:1026D000002000E0022010BD10B54122825C202ABB
:1026E00027D14022825C012A01D1022022E001226E
:1026F00013004024035524234124035503681B6819
:102700000124A3430468236003681B680B4C1C402E
:102710000902214303681960016809680A430168D6
:102720000A6020214122815400214022815400204E
:1027300000E0022010BD0000FFEFFFFFFFF0FFFFF1
:1027400030B53C22825C012A01D1022023E0012223
:102750003C23C25402233D24035503685C6803688C
:102760009B687025AC430D68254304686560046868
:10277000224DAC4203D00468214DAC4205D18024E7
:10278000A34349681943036899603D2142540021DD
:102790003C228154002030BD30B5002213003C247F
:1027A000045D012C01D1022023E001243C25445585
:1027B000FF24A343CC681C43124D25408B682B4358
:1027C000114C1C404B682343104C1C400B682343A6
:1027D0000F4C1C400B692343074C1C404B6923439F
:1027E0000C4C1C40C9692143036859643C21425484
:1027F000002030BD00000000FFDFFFFF002C014083
:1028000000040040FFFCFFFFFFFBFFFFFFF7FFFF9F
:10281000FFEFFFFFFFBFFFFFF446002804D449424B
:1028200000F013F8404260474042002905D45FD0D1
:1028300000F00BF8404249426047494200F005F879
:102840004942604703460B43E6D40022030A8B4209
:102850000BD203098B4219D243088B422ED2411A64
:1028600000D20146524110467047FF2209023FD074
:1028700012068B4205D3121209028B4201D31212A7
:10288000090203098B4219D300E0090AC3098B42EC
:1028900001D3CB01C01A524183098B4201D38B0172
:1028A000C01A524143098B4201D34B01C01A524115
:1028B00003098B4201D30B01C01A5241C3088B425A
:1028C00001D3CB00C01A524183088B4201D38B0045
:1028D000C01A524143088B4201D34B00C01A5241E7
:1028E000884200D3401A5241CFD201461046704769
:1028F00008B500F071F808BD1206130A1A43130C4C
:102900001A4300BF094205D0830705D00270401C5E
:10291000491EF9D1704700001300103906D330B4B6
:102920001400150010393CC0FCD230BC490700D35C
:102930000CC000D504C0890002D30280801C00298D
:1029400000D502707047FEE710B50400FA20800041
:102950000E490978FFF779FF01000D480068FFF77D
:1029600074FFFFF736F8002801D001200CE0042C9A
:1029700009D2002221000020C043FFF720F80548BB
:102980000460002000E0012010BD00BF68000020AE
:10299000640000206000002001480068704700BF0C
:1029A000CC02002070B4103A03D378C9103A78C032
:1029B000FBD2530701D318C918C001D508C908C0F4
:1029C000D20704D30B880380891C801C002A01D500
:1029D0000B78037070BC7047704770B401230024FB
:1029E00013E00168001D194202D04D466918491EC6
:1029F0000C60091D121F042AFAD20D00960701D59A
:102A00000C80AD1C1A4000D02C700268001D002AFA
:102A1000E7D170BC7047FEE700B5FEE700B5FEE702
:102A20007047704780B500F00FF801BD80B50448CD
:102A3000FEF7EEFE01BD80B50248FDF735FD01BD94
:102A4000200200204801002003480168034A127850
:102A500089180160704700BFCC0200206800002088
:102A600010B5074979441831064C7C44163404E00B
:102A7000081D0A68891888470100A142F8D110BDD5
:102A8000080000002400000053FFFFFF6802000060
:102A90006C000020000000005FE2FFFFD200000099
:102AA000420000000000002000F00DF8002801D0D6
:102AB000FFF7D6FF00BF00BF002000BF00BFFEF73A
:102AC00039F900F002F80120704780B500F002F8F3
:102AD00001BDFEE70746384600F002F8FBE7FEE7D7
:102AE00080B500BF00BF024A11001820ABBEFBE753
:102AF000260002000548014603B4684680F30988B1
:102B000000BF00BF00BF00BFFFF7CEFFA5EDF5FE81
:102B100002030405060708090A0B0C0D0E0F10101E
:102B20000102030405060708090A0B0C0D0E0F101D
:102B3000000000000000000001020304060708096D
:102B400001488047014800476D2B0008F52A00081E
:102B5000FEE7FEE7FEE7FEE7FEE7FEE7FEE7FEE74D
:102B6000FEE7FEE7FEE7FEE7FEE7FEE7704700014F
:102B7000F9000001F9000001C9000001F90000019D
:0F2B8000F9000001F9000004FC0003127A0001C3
:0400000508002AF5D0
:00000001FF
